{
  "_format": "hh-sol-artifact-1",
  "contractName": "MarketPlace",
  "sourceName": "contracts/MarketPlace/MarketPlace.sol",
  "abi": [
    {
      "inputs": [
        {
          "internalType": "address",
          "name": "nftAddress_",
          "type": "address"
        },
        {
          "internalType": "uint256",
          "name": "feeDecimal_",
          "type": "uint256"
        },
        {
          "internalType": "uint256",
          "name": "feeRate_",
          "type": "uint256"
        },
        {
          "internalType": "address",
          "name": "feeRecipient_",
          "type": "address"
        }
      ],
      "stateMutability": "nonpayable",
      "type": "constructor"
    },
    {
      "anonymous": false,
      "inputs": [
        {
          "indexed": false,
          "internalType": "uint256",
          "name": "feeDecimal",
          "type": "uint256"
        },
        {
          "indexed": false,
          "internalType": "uint256",
          "name": "feeRate",
          "type": "uint256"
        }
      ],
      "name": "FeeRateUpdated",
      "type": "event"
    },
    {
      "anonymous": false,
      "inputs": [
        {
          "indexed": true,
          "internalType": "uint256",
          "name": "orderId",
          "type": "uint256"
        },
        {
          "indexed": true,
          "internalType": "address",
          "name": "seller",
          "type": "address"
        },
        {
          "indexed": true,
          "internalType": "uint256",
          "name": "tokenId",
          "type": "uint256"
        },
        {
          "indexed": false,
          "internalType": "address",
          "name": "paymentToken",
          "type": "address"
        },
        {
          "indexed": false,
          "internalType": "uint256",
          "name": "price",
          "type": "uint256"
        }
      ],
      "name": "OrderAdded",
      "type": "event"
    },
    {
      "anonymous": false,
      "inputs": [
        {
          "indexed": true,
          "internalType": "uint256",
          "name": "orderId",
          "type": "uint256"
        }
      ],
      "name": "OrderCancelled",
      "type": "event"
    },
    {
      "anonymous": false,
      "inputs": [
        {
          "indexed": false,
          "internalType": "uint256",
          "name": "orderId",
          "type": "uint256"
        },
        {
          "indexed": false,
          "internalType": "address",
          "name": "seller",
          "type": "address"
        },
        {
          "indexed": false,
          "internalType": "address",
          "name": "buyer",
          "type": "address"
        },
        {
          "indexed": false,
          "internalType": "uint256",
          "name": "tokenId",
          "type": "uint256"
        },
        {
          "indexed": false,
          "internalType": "address",
          "name": "paymentToken",
          "type": "address"
        },
        {
          "indexed": false,
          "internalType": "uint256",
          "name": "price",
          "type": "uint256"
        }
      ],
      "name": "OrderMatched",
      "type": "event"
    },
    {
      "anonymous": false,
      "inputs": [
        {
          "indexed": true,
          "internalType": "address",
          "name": "previousOwner",
          "type": "address"
        },
        {
          "indexed": true,
          "internalType": "address",
          "name": "newOwner",
          "type": "address"
        }
      ],
      "name": "OwnershipTransferred",
      "type": "event"
    },
    {
      "inputs": [
        {
          "internalType": "uint256",
          "name": "tokenId_",
          "type": "uint256"
        },
        {
          "internalType": "address",
          "name": "paymentToken_",
          "type": "address"
        },
        {
          "internalType": "uint256",
          "name": "price_",
          "type": "uint256"
        }
      ],
      "name": "addOrder",
      "outputs": [],
      "stateMutability": "nonpayable",
      "type": "function"
    },
    {
      "inputs": [
        {
          "internalType": "address",
          "name": "paymentToken_",
          "type": "address"
        }
      ],
      "name": "addPaymentToken",
      "outputs": [],
      "stateMutability": "nonpayable",
      "type": "function"
    },
    {
      "inputs": [
        {
          "internalType": "uint256",
          "name": "orderId_",
          "type": "uint256"
        }
      ],
      "name": "cancelOrder",
      "outputs": [],
      "stateMutability": "nonpayable",
      "type": "function"
    },
    {
      "inputs": [
        {
          "internalType": "uint256",
          "name": "orderId_",
          "type": "uint256"
        }
      ],
      "name": "executeOrder",
      "outputs": [],
      "stateMutability": "nonpayable",
      "type": "function"
    },
    {
      "inputs": [],
      "name": "feeDecimal",
      "outputs": [
        {
          "internalType": "uint256",
          "name": "",
          "type": "uint256"
        }
      ],
      "stateMutability": "view",
      "type": "function"
    },
    {
      "inputs": [],
      "name": "feeRate",
      "outputs": [
        {
          "internalType": "uint256",
          "name": "",
          "type": "uint256"
        }
      ],
      "stateMutability": "view",
      "type": "function"
    },
    {
      "inputs": [],
      "name": "feeRecipient",
      "outputs": [
        {
          "internalType": "address",
          "name": "",
          "type": "address"
        }
      ],
      "stateMutability": "view",
      "type": "function"
    },
    {
      "inputs": [
        {
          "internalType": "address",
          "name": "paymentToken_",
          "type": "address"
        }
      ],
      "name": "isPaymentTokenSupported",
      "outputs": [
        {
          "internalType": "bool",
          "name": "",
          "type": "bool"
        }
      ],
      "stateMutability": "view",
      "type": "function"
    },
    {
      "inputs": [
        {
          "internalType": "uint256",
          "name": "orderId_",
          "type": "uint256"
        },
        {
          "internalType": "address",
          "name": "seller_",
          "type": "address"
        }
      ],
      "name": "isSeller",
      "outputs": [
        {
          "internalType": "bool",
          "name": "",
          "type": "bool"
        }
      ],
      "stateMutability": "view",
      "type": "function"
    },
    {
      "inputs": [],
      "name": "nftContract",
      "outputs": [
        {
          "internalType": "contract IERC721",
          "name": "",
          "type": "address"
        }
      ],
      "stateMutability": "view",
      "type": "function"
    },
    {
      "inputs": [
        {
          "internalType": "uint256",
          "name": "",
          "type": "uint256"
        }
      ],
      "name": "orders",
      "outputs": [
        {
          "internalType": "address",
          "name": "seller",
          "type": "address"
        },
        {
          "internalType": "address",
          "name": "buyer",
          "type": "address"
        },
        {
          "internalType": "uint256",
          "name": "tokenId",
          "type": "uint256"
        },
        {
          "internalType": "address",
          "name": "paymentToken",
          "type": "address"
        },
        {
          "internalType": "uint256",
          "name": "price",
          "type": "uint256"
        }
      ],
      "stateMutability": "view",
      "type": "function"
    },
    {
      "inputs": [],
      "name": "owner",
      "outputs": [
        {
          "internalType": "address",
          "name": "",
          "type": "address"
        }
      ],
      "stateMutability": "view",
      "type": "function"
    },
    {
      "inputs": [],
      "name": "renounceOwnership",
      "outputs": [],
      "stateMutability": "nonpayable",
      "type": "function"
    },
    {
      "inputs": [
        {
          "internalType": "address",
          "name": "newOwner",
          "type": "address"
        }
      ],
      "name": "transferOwnership",
      "outputs": [],
      "stateMutability": "nonpayable",
      "type": "function"
    },
    {
      "inputs": [
        {
          "internalType": "uint256",
          "name": "feeDecimal_",
          "type": "uint256"
        },
        {
          "internalType": "uint256",
          "name": "feeRate_",
          "type": "uint256"
        }
      ],
      "name": "updateFeeRate",
      "outputs": [],
      "stateMutability": "nonpayable",
      "type": "function"
    },
    {
      "inputs": [
        {
          "internalType": "address",
          "name": "feeRecipient_",
          "type": "address"
        }
      ],
      "name": "updateFeeRecipient",
      "outputs": [],
      "stateMutability": "nonpayable",
      "type": "function"
    }
  ],
  "bytecode": "0x60a06040523480156200001157600080fd5b5060405162003169380380620031698339818101604052810190620000379190620003f2565b620000576200004b620001b860201b60201c565b620001c060201b60201c565b600073ffffffffffffffffffffffffffffffffffffffff168473ffffffffffffffffffffffffffffffffffffffff161415620000ca576040517f08c379a0000000000000000000000000000000000000000000000000000000008152600401620000c190620004ac565b60405180910390fd5b600073ffffffffffffffffffffffffffffffffffffffff168173ffffffffffffffffffffffffffffffffffffffff1614156200013d576040517f08c379a00000000000000000000000000000000000000000000000000000000081526004016200013490620004ac565b60405180910390fd5b8373ffffffffffffffffffffffffffffffffffffffff1660808173ffffffffffffffffffffffffffffffffffffffff1660601b8152505062000185816200028460201b60201c565b6200019783836200033b60201b60201c565b620001ae6001620003ae60201b6200162e1760201c565b505050506200081c565b600033905090565b60008060009054906101000a900473ffffffffffffffffffffffffffffffffffffffff169050816000806101000a81548173ffffffffffffffffffffffffffffffffffffffff021916908373ffffffffffffffffffffffffffffffffffffffff1602179055508173ffffffffffffffffffffffffffffffffffffffff168173ffffffffffffffffffffffffffffffffffffffff167f8be0079c531659141344cd1fd0a4f28419497f9722a3daafe3b4186f6b6457e060405160405180910390a35050565b600073ffffffffffffffffffffffffffffffffffffffff168173ffffffffffffffffffffffffffffffffffffffff161415620002f7576040517f08c379a0000000000000000000000000000000000000000000000000000000008152600401620002ee90620004ac565b60405180910390fd5b80600560006101000a81548173ffffffffffffffffffffffffffffffffffffffff021916908373ffffffffffffffffffffffffffffffffffffffff16021790555050565b6002826200034a919062000501565b600a620003589190620005b9565b81106200039c576040517f08c379a00000000000000000000000000000000000000000000000000000000081526004016200039390620004ce565b60405180910390fd5b81600381905550806004819055505050565b6001816000016000828254019250508190555050565b600081519050620003d581620007e8565b92915050565b600081519050620003ec8162000802565b92915050565b600080600080608085870312156200040957600080fd5b60006200041987828801620003c4565b94505060206200042c87828801620003db565b93505060406200043f87828801620003db565b92505060606200045287828801620003c4565b91505092959194509250565b60006200046d602a83620004f0565b91506200047a8262000770565b604082019050919050565b600062000494601c83620004f0565b9150620004a182620007bf565b602082019050919050565b60006020820190508181036000830152620004c7816200045e565b9050919050565b60006020820190508181036000830152620004e98162000485565b9050919050565b600082825260208201905092915050565b60006200050e826200072a565b91506200051b836200072a565b9250827fffffffffffffffffffffffffffffffffffffffffffffffffffffffffffffffff0382111562000553576200055262000734565b5b828201905092915050565b6000808291508390505b6001851115620005b05780860481111562000588576200058762000734565b5b6001851615620005985780820291505b8081029050620005a88562000763565b945062000568565b94509492505050565b6000620005c6826200072a565b9150620005d3836200072a565b9250620006027fffffffffffffffffffffffffffffffffffffffffffffffffffffffffffffffff84846200060a565b905092915050565b6000826200061c5760019050620006ef565b816200062c5760009050620006ef565b8160018114620006455760028114620006505762000686565b6001915050620006ef565b60ff84111562000665576200066462000734565b5b8360020a9150848211156200067f576200067e62000734565b5b50620006ef565b5060208310610133831016604e8410600b8410161715620006c05782820a905083811115620006ba57620006b962000734565b5b620006ef565b620006cf84848460016200055e565b92509050818404811115620006e957620006e862000734565b5b81810290505b9392505050565b600062000703826200070a565b9050919050565b600073ffffffffffffffffffffffffffffffffffffffff82169050919050565b6000819050919050565b7f4e487b7100000000000000000000000000000000000000000000000000000000600052601160045260246000fd5b60008160011c9050919050565b7f4e46544d61726b6574506c6163653a206e667441646472657373206973207a6560008201527f726f206164647265737300000000000000000000000000000000000000000000602082015250565b7f4e46544d61726b6574506c6163653a2062616420666565207261746500000000600082015250565b620007f381620006f6565b8114620007ff57600080fd5b50565b6200080d816200072a565b81146200081957600080fd5b50565b60805160601c612904620008656000396000818161068001528181610c5401528181610efd01528181611013015281816110d901528181611396015261148c01526129046000f3fe608060405234801561001057600080fd5b50600436106101005760003560e01c806394f6113411610097578063c46142c511610066578063c46142c51461028b578063d56d229d146102a7578063f160d369146102c5578063f2fde38b146102e157610100565b806394f61134146101ed578063978bbdb914610209578063a85c38ef14610227578063be91dc0f1461025b57610100565b80636757ef9c116100d35780636757ef9c1461018b578063715018a6146101a75780637e11b31f146101b15780638da5cb5b146101cf57610100565b80631da664e81461010557806346904840146101355780634a7dc8e014610153578063514fcac71461016f575b600080fd5b61011f600480360381019061011a91906119f2565b6102fd565b60405161012c9190611e7a565b60405180910390f35b61013d61031a565b60405161014a9190611d83565b60405180910390f35b61016d600480360381019061016891906119f2565b610340565b005b61018960048036038101906101849190611a6d565b610497565b005b6101a560048036038101906101a09190611b21565b610746565b005b6101af610809565b005b6101b9610891565b6040516101c69190612070565b60405180910390f35b6101d7610897565b6040516101e49190611d83565b60405180910390f35b61020760048036038101906102029190611a6d565b6108c0565b005b610211610d89565b60405161021e9190612070565b60405180910390f35b610241600480360381019061023c9190611a6d565b610d8f565b604051610252959493929190611dfe565b60405180910390f35b61027560048036038101906102709190611a96565b610e25565b6040516102829190611e7a565b60405180910390f35b6102a560048036038101906102a09190611ad2565b610e94565b005b6102af61148a565b6040516102bc9190611e95565b60405180910390f35b6102df60048036038101906102da91906119f2565b6114ae565b005b6102fb60048036038101906102f691906119f2565b611536565b005b600061031382600661164490919063ffffffff16565b9050919050565b600560009054906101000a900473ffffffffffffffffffffffffffffffffffffffff1681565b610348611674565b73ffffffffffffffffffffffffffffffffffffffff16610366610897565b73ffffffffffffffffffffffffffffffffffffffff16146103bc576040517f08c379a00000000000000000000000000000000000000000000000000000000081526004016103b390611ff0565b60405180910390fd5b600073ffffffffffffffffffffffffffffffffffffffff168173ffffffffffffffffffffffffffffffffffffffff16141561042c576040517f08c379a000000000000000000000000000000000000000000000000000000000815260040161042390612010565b60405180910390fd5b61044081600661167c90919063ffffffff16565b61047f576040517f08c379a000000000000000000000000000000000000000000000000000000000815260040161047690611f50565b60405180910390fd5b61049381600661167c90919063ffffffff16565b5050565b6000600260008381526020019081526020016000209050600073ffffffffffffffffffffffffffffffffffffffff168160010160009054906101000a900473ffffffffffffffffffffffffffffffffffffffff1673ffffffffffffffffffffffffffffffffffffffff1614610541576040517f08c379a000000000000000000000000000000000000000000000000000000000815260040161053890611f70565b60405180910390fd5b610549611674565b73ffffffffffffffffffffffffffffffffffffffff168160000160009054906101000a900473ffffffffffffffffffffffffffffffffffffffff1673ffffffffffffffffffffffffffffffffffffffff16146105da576040517f08c379a00000000000000000000000000000000000000000000000000000000081526004016105d190611fb0565b60405180910390fd5b60008160020154905060026000848152602001908152602001600020600080820160006101000a81549073ffffffffffffffffffffffffffffffffffffffff02191690556001820160006101000a81549073ffffffffffffffffffffffffffffffffffffffff021916905560028201600090556003820160006101000a81549073ffffffffffffffffffffffffffffffffffffffff0219169055600482016000905550507f000000000000000000000000000000000000000000000000000000000000000073ffffffffffffffffffffffffffffffffffffffff166323b872dd306106c3611674565b846040518463ffffffff1660e01b81526004016106e293929190611dc7565b600060405180830381600087803b1580156106fc57600080fd5b505af1158015610710573d6000803e3d6000fd5b50505050807f61b9399f2f0f32ca39ce8d7be32caed5ec22fe07a6daba3a467ed479ec60658260405160405180910390a2505050565b61074e611674565b73ffffffffffffffffffffffffffffffffffffffff1661076c610897565b73ffffffffffffffffffffffffffffffffffffffff16146107c2576040517f08c379a00000000000000000000000000000000000000000000000000000000081526004016107b990611ff0565b60405180910390fd5b6107cc82826116ac565b7f14914da2bf76024616fbe1859783fcd4dbddcb179b1f3a854949fbf920dcb95782826040516107fd9291906120ec565b60405180910390a15050565b610811611674565b73ffffffffffffffffffffffffffffffffffffffff1661082f610897565b73ffffffffffffffffffffffffffffffffffffffff1614610885576040517f08c379a000000000000000000000000000000000000000000000000000000000815260040161087c90611ff0565b60405180910390fd5b61088f6000611718565b565b60035481565b60008060009054906101000a900473ffffffffffffffffffffffffffffffffffffffff16905090565b6108d1816108cc611674565b610e25565b15610911576040517f08c379a000000000000000000000000000000000000000000000000000000000815260040161090890612050565b60405180910390fd5b600073ffffffffffffffffffffffffffffffffffffffff166002600083815260200190815260200160002060010160009054906101000a900473ffffffffffffffffffffffffffffffffffffffff1673ffffffffffffffffffffffffffffffffffffffff16146109b6576040517f08c379a00000000000000000000000000000000000000000000000000000000081526004016109ad90611f70565b60405180910390fd5b6000600260008381526020019081526020016000206004015411610a0f576040517f08c379a0000000000000000000000000000000000000000000000000000000008152600401610a0690611fd0565b60405180910390fd5b6000600260008381526020019081526020016000209050610a2e611674565b8160010160006101000a81548173ffffffffffffffffffffffffffffffffffffffff021916908373ffffffffffffffffffffffffffffffffffffffff1602179055506000610a7b836117dc565b90506000811115610b64578160030160009054906101000a900473ffffffffffffffffffffffffffffffffffffffff1673ffffffffffffffffffffffffffffffffffffffff166323b872dd610ace611674565b600560009054906101000a900473ffffffffffffffffffffffffffffffffffffffff16846040518463ffffffff1660e01b8152600401610b1093929190611dc7565b602060405180830381600087803b158015610b2a57600080fd5b505af1158015610b3e573d6000803e3d6000fd5b505050506040513d601f19601f82011682018060405250810190610b629190611a44565b505b8160030160009054906101000a900473ffffffffffffffffffffffffffffffffffffffff1673ffffffffffffffffffffffffffffffffffffffff166323b872dd610bac611674565b8460000160009054906101000a900473ffffffffffffffffffffffffffffffffffffffff16848660040154610be19190612378565b6040518463ffffffff1660e01b8152600401610bff93929190611dc7565b602060405180830381600087803b158015610c1957600080fd5b505af1158015610c2d573d6000803e3d6000fd5b505050506040513d601f19601f82011682018060405250810190610c519190611a44565b507f000000000000000000000000000000000000000000000000000000000000000073ffffffffffffffffffffffffffffffffffffffff166323b872dd30610c97611674565b85600201546040518463ffffffff1660e01b8152600401610cba93929190611dc7565b600060405180830381600087803b158015610cd457600080fd5b505af1158015610ce8573d6000803e3d6000fd5b505050507fd92904f74973e583bd5940ae2a3a1a28fa8a41e9e9233efe6eb60fc6d0536522838360000160009054906101000a900473ffffffffffffffffffffffffffffffffffffffff16610d3b611674565b85600201548660030160009054906101000a900473ffffffffffffffffffffffffffffffffffffffff168760040154604051610d7c9695949392919061208b565b60405180910390a1505050565b60045481565b60026020528060005260406000206000915090508060000160009054906101000a900473ffffffffffffffffffffffffffffffffffffffff16908060010160009054906101000a900473ffffffffffffffffffffffffffffffffffffffff16908060020154908060030160009054906101000a900473ffffffffffffffffffffffffffffffffffffffff16908060040154905085565b60008173ffffffffffffffffffffffffffffffffffffffff166002600085815260200190815260200160002060000160009054906101000a900473ffffffffffffffffffffffffffffffffffffffff1673ffffffffffffffffffffffffffffffffffffffff1614905092915050565b81610e9e816102fd565b610edd576040517f08c379a0000000000000000000000000000000000000000000000000000000008152600401610ed490612030565b60405180910390fd5b610ee5611674565b73ffffffffffffffffffffffffffffffffffffffff167f000000000000000000000000000000000000000000000000000000000000000073ffffffffffffffffffffffffffffffffffffffff16636352211e866040518263ffffffff1660e01b8152600401610f549190612070565b60206040518083038186803b158015610f6c57600080fd5b505afa158015610f80573d6000803e3d6000fd5b505050506040513d601f19601f82011682018060405250810190610fa49190611a1b565b73ffffffffffffffffffffffffffffffffffffffff1614610ffa576040517f08c379a0000000000000000000000000000000000000000000000000000000008152600401610ff190611ef0565b60405180910390fd5b3073ffffffffffffffffffffffffffffffffffffffff167f000000000000000000000000000000000000000000000000000000000000000073ffffffffffffffffffffffffffffffffffffffff1663081812fc866040518263ffffffff1660e01b815260040161106a9190612070565b60206040518083038186803b15801561108257600080fd5b505afa158015611096573d6000803e3d6000fd5b505050506040513d601f19601f820116820180604052508101906110ba9190611a1b565b73ffffffffffffffffffffffffffffffffffffffff16148061118a57507f000000000000000000000000000000000000000000000000000000000000000073ffffffffffffffffffffffffffffffffffffffff1663e985e9c561111b611674565b306040518363ffffffff1660e01b8152600401611139929190611d9e565b60206040518083038186803b15801561115157600080fd5b505afa158015611165573d6000803e3d6000fd5b505050506040513d601f19601f820116820180604052508101906111899190611a44565b5b6111c9576040517f08c379a00000000000000000000000000000000000000000000000000000000081526004016111c090611eb0565b60405180910390fd5b6000821161120c576040517f08c379a000000000000000000000000000000000000000000000000000000000815260040161120390611f10565b60405180910390fd5b60006112186001611849565b90506040518060a0016040528061122d611674565b73ffffffffffffffffffffffffffffffffffffffff168152602001600073ffffffffffffffffffffffffffffffffffffffff1681526020018681526020018573ffffffffffffffffffffffffffffffffffffffff168152602001848152506002600083815260200190815260200160002060008201518160000160006101000a81548173ffffffffffffffffffffffffffffffffffffffff021916908373ffffffffffffffffffffffffffffffffffffffff16021790555060208201518160010160006101000a81548173ffffffffffffffffffffffffffffffffffffffff021916908373ffffffffffffffffffffffffffffffffffffffff1602179055506040820151816002015560608201518160030160006101000a81548173ffffffffffffffffffffffffffffffffffffffff021916908373ffffffffffffffffffffffffffffffffffffffff16021790555060808201518160040155905050611394600161162e565b7f000000000000000000000000000000000000000000000000000000000000000073ffffffffffffffffffffffffffffffffffffffff166323b872dd6113d8611674565b30886040518463ffffffff1660e01b81526004016113f893929190611dc7565b600060405180830381600087803b15801561141257600080fd5b505af1158015611426573d6000803e3d6000fd5b5050505084611433611674565b73ffffffffffffffffffffffffffffffffffffffff16827f2a40b778ad2a0e665f93ad917831cd03068b829743c6f6a350518360e2dd97df878760405161147b929190611e51565b60405180910390a45050505050565b7f000000000000000000000000000000000000000000000000000000000000000081565b6114b6611674565b73ffffffffffffffffffffffffffffffffffffffff166114d4610897565b73ffffffffffffffffffffffffffffffffffffffff161461152a576040517f08c379a000000000000000000000000000000000000000000000000000000000815260040161152190611ff0565b60405180910390fd5b61153381611857565b50565b61153e611674565b73ffffffffffffffffffffffffffffffffffffffff1661155c610897565b73ffffffffffffffffffffffffffffffffffffffff16146115b2576040517f08c379a00000000000000000000000000000000000000000000000000000000081526004016115a990611ff0565b60405180910390fd5b600073ffffffffffffffffffffffffffffffffffffffff168173ffffffffffffffffffffffffffffffffffffffff161415611622576040517f08c379a000000000000000000000000000000000000000000000000000000000815260040161161990611ed0565b60405180910390fd5b61162b81611718565b50565b6001816000016000828254019250508190555050565b600061166c836000018373ffffffffffffffffffffffffffffffffffffffff1660001b61190b565b905092915050565b600033905090565b60006116a4836000018373ffffffffffffffffffffffffffffffffffffffff1660001b61192e565b905092915050565b6002826116b99190612126565b600a6116c59190612200565b8110611706576040517f08c379a00000000000000000000000000000000000000000000000000000000081526004016116fd90611f90565b60405180910390fd5b81600381905550806004819055505050565b60008060009054906101000a900473ffffffffffffffffffffffffffffffffffffffff169050816000806101000a81548173ffffffffffffffffffffffffffffffffffffffff021916908373ffffffffffffffffffffffffffffffffffffffff1602179055508173ffffffffffffffffffffffffffffffffffffffff168173ffffffffffffffffffffffffffffffffffffffff167f8be0079c531659141344cd1fd0a4f28419497f9722a3daafe3b4186f6b6457e060405160405180910390a35050565b60008060026000848152602001908152602001600020905060006004541415611809576000915050611844565b60026003546118189190612126565b600a6118249190612200565b8160040154600454611836919061231e565b611840919061217c565b9150505b919050565b600081600001549050919050565b600073ffffffffffffffffffffffffffffffffffffffff168173ffffffffffffffffffffffffffffffffffffffff1614156118c7576040517f08c379a00000000000000000000000000000000000000000000000000000000081526004016118be90611f30565b60405180910390fd5b80600560006101000a81548173ffffffffffffffffffffffffffffffffffffffff021916908373ffffffffffffffffffffffffffffffffffffffff16021790555050565b600080836001016000848152602001908152602001600020541415905092915050565b600061193a838361190b565b611993578260000182908060018154018082558091505060019003906000526020600020016000909190919091505582600001805490508360010160008481526020019081526020016000208190555060019050611998565b600090505b92915050565b6000813590506119ad81612889565b92915050565b6000815190506119c281612889565b92915050565b6000815190506119d7816128a0565b92915050565b6000813590506119ec816128b7565b92915050565b600060208284031215611a0457600080fd5b6000611a128482850161199e565b91505092915050565b600060208284031215611a2d57600080fd5b6000611a3b848285016119b3565b91505092915050565b600060208284031215611a5657600080fd5b6000611a64848285016119c8565b91505092915050565b600060208284031215611a7f57600080fd5b6000611a8d848285016119dd565b91505092915050565b60008060408385031215611aa957600080fd5b6000611ab7858286016119dd565b9250506020611ac88582860161199e565b9150509250929050565b600080600060608486031215611ae757600080fd5b6000611af5868287016119dd565b9350506020611b068682870161199e565b9250506040611b17868287016119dd565b9150509250925092565b60008060408385031215611b3457600080fd5b6000611b42858286016119dd565b9250506020611b53858286016119dd565b9150509250929050565b611b66816123ac565b82525050565b611b75816123be565b82525050565b611b84816123f4565b82525050565b6000611b97604183612115565b9150611ba282612483565b606082019050919050565b6000611bba602683612115565b9150611bc5826124f8565b604082019050919050565b6000611bdd603183612115565b9150611be882612547565b604082019050919050565b6000611c00602c83612115565b9150611c0b82612596565b604082019050919050565b6000611c23602a83612115565b9150611c2e826125e5565b604082019050919050565b6000611c46602283612115565b9150611c5182612634565b604082019050919050565b6000611c69602d83612115565b9150611c7482612683565b604082019050919050565b6000611c8c601c83612115565b9150611c97826126d2565b602082019050919050565b6000611caf601d83612115565b9150611cba826126fb565b602082019050919050565b6000611cd2602e83612115565b9150611cdd82612724565b604082019050919050565b6000611cf5602083612115565b9150611d0082612773565b602082019050919050565b6000611d18602d83612115565b9150611d238261279c565b604082019050919050565b6000611d3b602983612115565b9150611d46826127eb565b604082019050919050565b6000611d5e603383612115565b9150611d698261283a565b604082019050919050565b611d7d816123ea565b82525050565b6000602082019050611d986000830184611b5d565b92915050565b6000604082019050611db36000830185611b5d565b611dc06020830184611b5d565b9392505050565b6000606082019050611ddc6000830186611b5d565b611de96020830185611b5d565b611df66040830184611d74565b949350505050565b600060a082019050611e136000830188611b5d565b611e206020830187611b5d565b611e2d6040830186611d74565b611e3a6060830185611b5d565b611e476080830184611d74565b9695505050505050565b6000604082019050611e666000830185611b5d565b611e736020830184611d74565b9392505050565b6000602082019050611e8f6000830184611b6c565b92915050565b6000602082019050611eaa6000830184611b7b565b92915050565b60006020820190508181036000830152611ec981611b8a565b9050919050565b60006020820190508181036000830152611ee981611bad565b9050919050565b60006020820190508181036000830152611f0981611bd0565b9050919050565b60006020820190508181036000830152611f2981611bf3565b9050919050565b60006020820190508181036000830152611f4981611c16565b9050919050565b60006020820190508181036000830152611f6981611c39565b9050919050565b60006020820190508181036000830152611f8981611c5c565b9050919050565b60006020820190508181036000830152611fa981611c7f565b9050919050565b60006020820190508181036000830152611fc981611ca2565b9050919050565b60006020820190508181036000830152611fe981611cc5565b9050919050565b6000602082019050818103600083015261200981611ce8565b9050919050565b6000602082019050818103600083015261202981611d0b565b9050919050565b6000602082019050818103600083015261204981611d2e565b9050919050565b6000602082019050818103600083015261206981611d51565b9050919050565b60006020820190506120856000830184611d74565b92915050565b600060c0820190506120a06000830189611d74565b6120ad6020830188611b5d565b6120ba6040830187611b5d565b6120c76060830186611d74565b6120d46080830185611b5d565b6120e160a0830184611d74565b979650505050505050565b60006040820190506121016000830185611d74565b61210e6020830184611d74565b9392505050565b600082825260208201905092915050565b6000612131826123ea565b915061213c836123ea565b9250827fffffffffffffffffffffffffffffffffffffffffffffffffffffffffffffffff0382111561217157612170612418565b5b828201905092915050565b6000612187826123ea565b9150612192836123ea565b9250826121a2576121a1612447565b5b828204905092915050565b6000808291508390505b60018511156121f7578086048111156121d3576121d2612418565b5b60018516156121e25780820291505b80810290506121f085612476565b94506121b7565b94509492505050565b600061220b826123ea565b9150612216836123ea565b92506122437fffffffffffffffffffffffffffffffffffffffffffffffffffffffffffffffff848461224b565b905092915050565b60008261225b5760019050612317565b816122695760009050612317565b816001811461227f5760028114612289576122b8565b6001915050612317565b60ff84111561229b5761229a612418565b5b8360020a9150848211156122b2576122b1612418565b5b50612317565b5060208310610133831016604e8410600b84101617156122ed5782820a9050838111156122e8576122e7612418565b5b612317565b6122fa84848460016121ad565b9250905081840481111561231157612310612418565b5b81810290505b9392505050565b6000612329826123ea565b9150612334836123ea565b9250817fffffffffffffffffffffffffffffffffffffffffffffffffffffffffffffffff048311821515161561236d5761236c612418565b5b828202905092915050565b6000612383826123ea565b915061238e836123ea565b9250828210156123a1576123a0612418565b5b828203905092915050565b60006123b7826123ca565b9050919050565b60008115159050919050565b600073ffffffffffffffffffffffffffffffffffffffff82169050919050565b6000819050919050565b60006123ff82612406565b9050919050565b6000612411826123ca565b9050919050565b7f4e487b7100000000000000000000000000000000000000000000000000000000600052601160045260246000fd5b7f4e487b7100000000000000000000000000000000000000000000000000000000600052601260045260246000fd5b60008160011c9050919050565b7f4e46544d61726b6574506c6163653a2074686520636f6e74726163742069732060008201527f756e617574686f72697a656420746f206d616e616765207468697320746f6b6560208201527f6e00000000000000000000000000000000000000000000000000000000000000604082015250565b7f4f776e61626c653a206e6577206f776e657220697320746865207a65726f206160008201527f6464726573730000000000000000000000000000000000000000000000000000602082015250565b7f4e46544d61726b6574506c6163653a20796f7520617265206e6f74207468652060008201527f6f776e6572206f662074686973206e6674000000000000000000000000000000602082015250565b7f4e46544d61726b6574506c6163653a205072696365206d75737420626520677260008201527f6565746572207468616e20300000000000000000000000000000000000000000602082015250565b7f4e46544d61726b6574506c6163653a206e667441646472657373206973207a6560008201527f726f206164647265737300000000000000000000000000000000000000000000602082015250565b7f4e46544d61726b6574506c6163653a20616c64726561647920737570706f727460008201527f6564000000000000000000000000000000000000000000000000000000000000602082015250565b7f4e46544d61726b6574506c6163653a2054686973206e6674546f6b656e20697360008201527f20616c726561647920736f6c6400000000000000000000000000000000000000602082015250565b7f4e46544d61726b6574506c6163653a2062616420666565207261746500000000600082015250565b7f4e46544d61726b6574506c6163653a206d757374206265206f776e6572000000600082015250565b7f4e46544d61726b6574506c6163653a2054686973206f7264657220697320616c60008201527f72656164792063616e63656c6564000000000000000000000000000000000000602082015250565b7f4f776e61626c653a2063616c6c6572206973206e6f7420746865206f776e6572600082015250565b7f4e46544d61726b6574506c6163653a207061796d656e74546f6b656e5f20697360008201527f207a65726f206164647265737300000000000000000000000000000000000000602082015250565b7f4e46544d61726b6574506c6163653a20756e737570706f72746564207061796d60008201527f656e7420746f6b656e0000000000000000000000000000000000000000000000602082015250565b7f4e46544d61726b6574506c6163653a206275796572206d75737420626520646960008201527f66666572656e742066726f6d2073656c6c657200000000000000000000000000602082015250565b612892816123ac565b811461289d57600080fd5b50565b6128a9816123be565b81146128b457600080fd5b50565b6128c0816123ea565b81146128cb57600080fd5b5056fea26469706673582212203b6020b899482e905280c82748de51e2c6335d34b6e486d4ec4c0505a679917e64736f6c63430008040033",
  "linkReferences": {},
  "deployedLinkReferences": {}
}