{
  "_format": "hh-sol-artifact-1",
  "contractName": "Reserve",
  "sourceName": "contracts/Reserve/Reserve.sol",
  "abi": [
    {
      "inputs": [
        {
          "internalType": "address",
          "name": "_tokenAddress",
          "type": "address"
        }
      ],
      "stateMutability": "nonpayable",
      "type": "constructor"
    },
    {
      "anonymous": false,
      "inputs": [
        {
          "indexed": true,
          "internalType": "address",
          "name": "previousOwner",
          "type": "address"
        },
        {
          "indexed": true,
          "internalType": "address",
          "name": "newOwner",
          "type": "address"
        }
      ],
      "name": "OwnershipTransferred",
      "type": "event"
    },
    {
      "inputs": [],
      "name": "owner",
      "outputs": [
        {
          "internalType": "address",
          "name": "",
          "type": "address"
        }
      ],
      "stateMutability": "view",
      "type": "function"
    },
    {
      "inputs": [],
      "name": "renounceOwnership",
      "outputs": [],
      "stateMutability": "nonpayable",
      "type": "function"
    },
    {
      "inputs": [],
      "name": "token",
      "outputs": [
        {
          "internalType": "contract IERC20",
          "name": "",
          "type": "address"
        }
      ],
      "stateMutability": "view",
      "type": "function"
    },
    {
      "inputs": [
        {
          "internalType": "address",
          "name": "newOwner",
          "type": "address"
        }
      ],
      "name": "transferOwnership",
      "outputs": [],
      "stateMutability": "nonpayable",
      "type": "function"
    },
    {
      "inputs": [],
      "name": "unlocktime",
      "outputs": [
        {
          "internalType": "uint256",
          "name": "",
          "type": "uint256"
        }
      ],
      "stateMutability": "view",
      "type": "function"
    },
    {
      "inputs": [
        {
          "internalType": "address",
          "name": "_to",
          "type": "address"
        },
        {
          "internalType": "uint256",
          "name": "_value",
          "type": "uint256"
        }
      ],
      "name": "withdrawTo",
      "outputs": [],
      "stateMutability": "nonpayable",
      "type": "function"
    }
  ],
  "bytecode": "0x60a06040523480156200001157600080fd5b5060405162000e4d38038062000e4d83398181016040528101906200003791906200018f565b620000576200004b620000ac60201b60201c565b620000b460201b60201c565b8073ffffffffffffffffffffffffffffffffffffffff1660808173ffffffffffffffffffffffffffffffffffffffff1660601b8152505062dd7c00426200009f9190620001bb565b600181905550506200029f565b600033905090565b60008060009054906101000a900473ffffffffffffffffffffffffffffffffffffffff169050816000806101000a81548173ffffffffffffffffffffffffffffffffffffffff021916908373ffffffffffffffffffffffffffffffffffffffff1602179055508173ffffffffffffffffffffffffffffffffffffffff168173ffffffffffffffffffffffffffffffffffffffff167f8be0079c531659141344cd1fd0a4f28419497f9722a3daafe3b4186f6b6457e060405160405180910390a35050565b600081519050620001898162000285565b92915050565b600060208284031215620001a257600080fd5b6000620001b28482850162000178565b91505092915050565b6000620001c8826200024c565b9150620001d5836200024c565b9250827fffffffffffffffffffffffffffffffffffffffffffffffffffffffffffffffff038211156200020d576200020c62000256565b5b828201905092915050565b600062000225826200022c565b9050919050565b600073ffffffffffffffffffffffffffffffffffffffff82169050919050565b6000819050919050565b7f4e487b7100000000000000000000000000000000000000000000000000000000600052601160045260246000fd5b620002908162000218565b81146200029c57600080fd5b50565b60805160601c610b81620002cc600039600081816102360152818161032001526105810152610b816000f3fe608060405234801561001057600080fd5b50600436106100625760003560e01c8063205c287814610067578063323772ee14610083578063715018a6146100a15780638da5cb5b146100ab578063f2fde38b146100c9578063fc0c546a146100e5575b600080fd5b610081600480360381019061007c91906106ec565b610103565b005b61008b6103d0565b6040516100989190610955565b60405180910390f35b6100a96103d6565b005b6100b361045e565b6040516100c09190610856565b60405180910390f35b6100e360048036038101906100de91906106c3565b610487565b005b6100ed61057f565b6040516100fa919061089a565b60405180910390f35b61010b6105a3565b73ffffffffffffffffffffffffffffffffffffffff1661012961045e565b73ffffffffffffffffffffffffffffffffffffffff161461017f576040517f08c379a0000000000000000000000000000000000000000000000000000000008152600401610176906108f5565b60405180910390fd5b60015442116101c3576040517f08c379a00000000000000000000000000000000000000000000000000000000081526004016101ba90610935565b60405180910390fd5b600073ffffffffffffffffffffffffffffffffffffffff168273ffffffffffffffffffffffffffffffffffffffff161415610233576040517f08c379a000000000000000000000000000000000000000000000000000000000815260040161022a90610915565b60405180910390fd5b807f000000000000000000000000000000000000000000000000000000000000000073ffffffffffffffffffffffffffffffffffffffff166370a08231306040518263ffffffff1660e01b815260040161028d9190610856565b60206040518083038186803b1580156102a557600080fd5b505afa1580156102b9573d6000803e3d6000fd5b505050506040513d601f19601f820116820180604052508101906102dd9190610751565b101561031e576040517f08c379a0000000000000000000000000000000000000000000000000000000008152600401610315906108b5565b60405180910390fd5b7f000000000000000000000000000000000000000000000000000000000000000073ffffffffffffffffffffffffffffffffffffffff1663a9059cbb83836040518363ffffffff1660e01b8152600401610379929190610871565b602060405180830381600087803b15801561039357600080fd5b505af11580156103a7573d6000803e3d6000fd5b505050506040513d601f19601f820116820180604052508101906103cb9190610728565b505050565b60015481565b6103de6105a3565b73ffffffffffffffffffffffffffffffffffffffff166103fc61045e565b73ffffffffffffffffffffffffffffffffffffffff1614610452576040517f08c379a0000000000000000000000000000000000000000000000000000000008152600401610449906108f5565b60405180910390fd5b61045c60006105ab565b565b60008060009054906101000a900473ffffffffffffffffffffffffffffffffffffffff16905090565b61048f6105a3565b73ffffffffffffffffffffffffffffffffffffffff166104ad61045e565b73ffffffffffffffffffffffffffffffffffffffff1614610503576040517f08c379a00000000000000000000000000000000000000000000000000000000081526004016104fa906108f5565b60405180910390fd5b600073ffffffffffffffffffffffffffffffffffffffff168173ffffffffffffffffffffffffffffffffffffffff161415610573576040517f08c379a000000000000000000000000000000000000000000000000000000000815260040161056a906108d5565b60405180910390fd5b61057c816105ab565b50565b7f000000000000000000000000000000000000000000000000000000000000000081565b600033905090565b60008060009054906101000a900473ffffffffffffffffffffffffffffffffffffffff169050816000806101000a81548173ffffffffffffffffffffffffffffffffffffffff021916908373ffffffffffffffffffffffffffffffffffffffff1602179055508173ffffffffffffffffffffffffffffffffffffffff168173ffffffffffffffffffffffffffffffffffffffff167f8be0079c531659141344cd1fd0a4f28419497f9722a3daafe3b4186f6b6457e060405160405180910390a35050565b60008135905061067e81610b06565b92915050565b60008151905061069381610b1d565b92915050565b6000813590506106a881610b34565b92915050565b6000815190506106bd81610b34565b92915050565b6000602082840312156106d557600080fd5b60006106e38482850161066f565b91505092915050565b600080604083850312156106ff57600080fd5b600061070d8582860161066f565b925050602061071e85828601610699565b9150509250929050565b60006020828403121561073a57600080fd5b600061074884828501610684565b91505092915050565b60006020828403121561076357600080fd5b6000610771848285016106ae565b91505092915050565b61078381610981565b82525050565b610792816109c9565b82525050565b60006107a5601983610970565b91506107b0826109ed565b602082019050919050565b60006107c8602683610970565b91506107d382610a16565b604082019050919050565b60006107eb602083610970565b91506107f682610a65565b602082019050919050565b600061080e603c83610970565b915061081982610a8e565b604082019050919050565b6000610831601683610970565b915061083c82610add565b602082019050919050565b610850816109bf565b82525050565b600060208201905061086b600083018461077a565b92915050565b6000604082019050610886600083018561077a565b6108936020830184610847565b9392505050565b60006020820190506108af6000830184610789565b92915050565b600060208201905081810360008301526108ce81610798565b9050919050565b600060208201905081810360008301526108ee816107bb565b9050919050565b6000602082019050818103600083015261090e816107de565b9050919050565b6000602082019050818103600083015261092e81610801565b9050919050565b6000602082019050818103600083015261094e81610824565b9050919050565b600060208201905061096a6000830184610847565b92915050565b600082825260208201905092915050565b600061098c8261099f565b9050919050565b60008115159050919050565b600073ffffffffffffffffffffffffffffffffffffffff82169050919050565b6000819050919050565b60006109d4826109db565b9050919050565b60006109e68261099f565b9050919050565b7f526573657276653a204e6f7420656e6f75676820746f6b656e00000000000000600082015250565b7f4f776e61626c653a206e6577206f776e657220697320746865207a65726f206160008201527f6464726573730000000000000000000000000000000000000000000000000000602082015250565b7f4f776e61626c653a2063616c6c6572206973206e6f7420746865206f776e6572600082015250565b7f526573657276653a20526563697069656e742061646472657373206d7573742060008201527f626520646966666572656e742066726f6d206164647265737328302900000000602082015250565b7f526576657273653a2043616e206e6f7420747261646500000000000000000000600082015250565b610b0f81610981565b8114610b1a57600080fd5b50565b610b2681610993565b8114610b3157600080fd5b50565b610b3d816109bf565b8114610b4857600080fd5b5056fea2646970667358221220824c7f605c42bb627473391f2bfd84e8b266146065c88a40f20e1b1cacbbdb8264736f6c63430008040033",
  "linkReferences": {},
  "deployedLinkReferences": {}
}