{
  "_format": "hh-sol-artifact-1",
  "contractName": "TokenSale",
  "sourceName": "contracts/Crownsale/TokenSale.sol",
  "abi": [
    {
      "inputs": [
        {
          "internalType": "address",
          "name": "_tokenAddress",
          "type": "address"
        },
        {
          "internalType": "uint256",
          "name": "feeDecimal_",
          "type": "uint256"
        },
        {
          "internalType": "uint256",
          "name": "feeRate_",
          "type": "uint256"
        }
      ],
      "stateMutability": "nonpayable",
      "type": "constructor"
    },
    {
      "anonymous": false,
      "inputs": [
        {
          "indexed": false,
          "internalType": "uint256",
          "name": "feeDecimal",
          "type": "uint256"
        },
        {
          "indexed": false,
          "internalType": "uint256",
          "name": "feeRate",
          "type": "uint256"
        }
      ],
      "name": "FeeRateUpdated",
      "type": "event"
    },
    {
      "anonymous": false,
      "inputs": [
        {
          "indexed": true,
          "internalType": "address",
          "name": "previousOwner",
          "type": "address"
        },
        {
          "indexed": true,
          "internalType": "address",
          "name": "newOwner",
          "type": "address"
        }
      ],
      "name": "OwnershipTransferred",
      "type": "event"
    },
    {
      "inputs": [],
      "name": "buy",
      "outputs": [],
      "stateMutability": "payable",
      "type": "function"
    },
    {
      "inputs": [],
      "name": "checkContribution",
      "outputs": [
        {
          "internalType": "uint256",
          "name": "",
          "type": "uint256"
        }
      ],
      "stateMutability": "view",
      "type": "function"
    },
    {
      "inputs": [
        {
          "internalType": "address",
          "name": "",
          "type": "address"
        }
      ],
      "name": "contributions",
      "outputs": [
        {
          "internalType": "uint256",
          "name": "",
          "type": "uint256"
        }
      ],
      "stateMutability": "view",
      "type": "function"
    },
    {
      "inputs": [],
      "name": "feeDecimal",
      "outputs": [
        {
          "internalType": "uint256",
          "name": "",
          "type": "uint256"
        }
      ],
      "stateMutability": "view",
      "type": "function"
    },
    {
      "inputs": [],
      "name": "feeRate",
      "outputs": [
        {
          "internalType": "uint256",
          "name": "",
          "type": "uint256"
        }
      ],
      "stateMutability": "view",
      "type": "function"
    },
    {
      "inputs": [],
      "name": "feeRecipient",
      "outputs": [
        {
          "internalType": "address",
          "name": "",
          "type": "address"
        }
      ],
      "stateMutability": "view",
      "type": "function"
    },
    {
      "inputs": [],
      "name": "gold",
      "outputs": [
        {
          "internalType": "contract IERC20",
          "name": "",
          "type": "address"
        }
      ],
      "stateMutability": "view",
      "type": "function"
    },
    {
      "inputs": [],
      "name": "investorHardCap",
      "outputs": [
        {
          "internalType": "uint256",
          "name": "",
          "type": "uint256"
        }
      ],
      "stateMutability": "view",
      "type": "function"
    },
    {
      "inputs": [],
      "name": "investorMinCap",
      "outputs": [
        {
          "internalType": "uint256",
          "name": "",
          "type": "uint256"
        }
      ],
      "stateMutability": "view",
      "type": "function"
    },
    {
      "inputs": [],
      "name": "owner",
      "outputs": [
        {
          "internalType": "address",
          "name": "",
          "type": "address"
        }
      ],
      "stateMutability": "view",
      "type": "function"
    },
    {
      "inputs": [],
      "name": "rate",
      "outputs": [
        {
          "internalType": "uint256",
          "name": "",
          "type": "uint256"
        }
      ],
      "stateMutability": "view",
      "type": "function"
    },
    {
      "inputs": [],
      "name": "renounceOwnership",
      "outputs": [],
      "stateMutability": "nonpayable",
      "type": "function"
    },
    {
      "inputs": [
        {
          "internalType": "uint256",
          "name": "amountToken",
          "type": "uint256"
        }
      ],
      "name": "sell",
      "outputs": [],
      "stateMutability": "payable",
      "type": "function"
    },
    {
      "inputs": [
        {
          "internalType": "address",
          "name": "newOwner",
          "type": "address"
        }
      ],
      "name": "transferOwnership",
      "outputs": [],
      "stateMutability": "nonpayable",
      "type": "function"
    },
    {
      "inputs": [
        {
          "internalType": "uint256",
          "name": "feeDecimal_",
          "type": "uint256"
        },
        {
          "internalType": "uint256",
          "name": "feeRate_",
          "type": "uint256"
        }
      ],
      "name": "updateFeeRate",
      "outputs": [],
      "stateMutability": "nonpayable",
      "type": "function"
    },
    {
      "inputs": [
        {
          "internalType": "uint256",
          "name": "rate_",
          "type": "uint256"
        }
      ],
      "name": "updateRate",
      "outputs": [],
      "stateMutability": "nonpayable",
      "type": "function"
    }
  ],
  "bytecode": "0x608060405266470de4df820000600155678ac7230489e80000600255600a6003553480156200002d57600080fd5b5060405162001cc038038062001cc083398181016040528101906200005391906200023c565b6200007362000067620000cf60201b60201c565b620000d760201b60201c565b82600860006101000a81548173ffffffffffffffffffffffffffffffffffffffff021916908373ffffffffffffffffffffffffffffffffffffffff160217905550620000c682826200019b60201b60201c565b505050620005b8565b600033905090565b60008060009054906101000a900473ffffffffffffffffffffffffffffffffffffffff169050816000806101000a81548173ffffffffffffffffffffffffffffffffffffffff021916908373ffffffffffffffffffffffffffffffffffffffff1602179055508173ffffffffffffffffffffffffffffffffffffffff168173ffffffffffffffffffffffffffffffffffffffff167f8be0079c531659141344cd1fd0a4f28419497f9722a3daafe3b4186f6b6457e060405160405180910390a35050565b600282620001aa9190620002ec565b600a620001b89190620003a4565b8110620001fc576040517f08c379a0000000000000000000000000000000000000000000000000000000008152600401620001f390620002b9565b60405180910390fd5b81600581905550806006819055505050565b6000815190506200021f8162000584565b92915050565b60008151905062000236816200059e565b92915050565b6000806000606084860312156200025257600080fd5b600062000262868287016200020e565b9350506020620002758682870162000225565b9250506040620002888682870162000225565b9150509250925092565b6000620002a1601783620002db565b9150620002ae826200055b565b602082019050919050565b60006020820190508181036000830152620002d48162000292565b9050919050565b600082825260208201905092915050565b6000620002f98262000515565b9150620003068362000515565b9250827fffffffffffffffffffffffffffffffffffffffffffffffffffffffffffffffff038211156200033e576200033d6200051f565b5b828201905092915050565b6000808291508390505b60018511156200039b578086048111156200037357620003726200051f565b5b6001851615620003835780820291505b808102905062000393856200054e565b945062000353565b94509492505050565b6000620003b18262000515565b9150620003be8362000515565b9250620003ed7fffffffffffffffffffffffffffffffffffffffffffffffffffffffffffffffff8484620003f5565b905092915050565b600082620004075760019050620004da565b81620004175760009050620004da565b81600181146200043057600281146200043b5762000471565b6001915050620004da565b60ff84111562000450576200044f6200051f565b5b8360020a9150848211156200046a57620004696200051f565b5b50620004da565b5060208310610133831016604e8410600b8410161715620004ab5782820a905083811115620004a557620004a46200051f565b5b620004da565b620004ba848484600162000349565b92509050818404811115620004d457620004d36200051f565b5b81810290505b9392505050565b6000620004ee82620004f5565b9050919050565b600073ffffffffffffffffffffffffffffffffffffffff82169050919050565b6000819050919050565b7f4e487b7100000000000000000000000000000000000000000000000000000000600052601160045260246000fd5b60008160011c9050919050565b7f546f6b656e53616c653a20626164206665652072617465000000000000000000600082015250565b6200058f81620004e1565b81146200059b57600080fd5b50565b620005a98162000515565b8114620005b557600080fd5b50565b6116f880620005c86000396000f3fe6080604052600436106100f35760003560e01c8063978bbdb91161008a578063e4849b3211610059578063e4849b32146102d5578063ed5db874146102f1578063f2fde38b1461031c578063fbec6f2114610345576100f3565b8063978bbdb91461024a578063a6f2ae3a14610275578063b25d7f541461027f578063c1d26e94146102aa576100f3565b806369ea1771116100c657806369ea1771146101b4578063715018a6146101dd5780637e11b31f146101f45780638da5cb5b1461021f576100f3565b80632c4e722e146100f857806342e94c901461012357806346904840146101605780636757ef9c1461018b575b600080fd5b34801561010457600080fd5b5061010d610370565b60405161011a9190611160565b60405180910390f35b34801561012f57600080fd5b5061014a60048036038101906101459190610de8565b610376565b6040516101579190611160565b60405180910390f35b34801561016c57600080fd5b5061017561038e565b6040516101829190610fea565b60405180910390f35b34801561019757600080fd5b506101b260048036038101906101ad9190610e8c565b6103b4565b005b3480156101c057600080fd5b506101db60048036038101906101d69190610e3a565b610477565b005b3480156101e957600080fd5b506101f26104fd565b005b34801561020057600080fd5b50610209610585565b6040516102169190611160565b60405180910390f35b34801561022b57600080fd5b5061023461058b565b6040516102419190610fea565b60405180910390f35b34801561025657600080fd5b5061025f6105b4565b60405161026c9190611160565b60405180910390f35b61027d6105ba565b005b34801561028b57600080fd5b50610294610894565b6040516102a19190611160565b60405180910390f35b3480156102b657600080fd5b506102bf61089a565b6040516102cc9190611160565b60405180910390f35b6102ef60048036038101906102ea9190610e3a565b6108e1565b005b3480156102fd57600080fd5b50610306610ae8565b6040516103139190611160565b60405180910390f35b34801561032857600080fd5b50610343600480360381019061033e9190610de8565b610aee565b005b34801561035157600080fd5b5061035a610be6565b6040516103679190611065565b60405180910390f35b60035481565b60076020528060005260406000206000915090505481565b600460009054906101000a900473ffffffffffffffffffffffffffffffffffffffff1681565b6103bc610c0c565b73ffffffffffffffffffffffffffffffffffffffff166103da61058b565b73ffffffffffffffffffffffffffffffffffffffff1614610430576040517f08c379a000000000000000000000000000000000000000000000000000000000815260040161042790611120565b60405180910390fd5b61043a8282610c14565b7f14914da2bf76024616fbe1859783fcd4dbddcb179b1f3a854949fbf920dcb957828260405161046b92919061117b565b60405180910390a15050565b61047f610c0c565b73ffffffffffffffffffffffffffffffffffffffff1661049d61058b565b73ffffffffffffffffffffffffffffffffffffffff16146104f3576040517f08c379a00000000000000000000000000000000000000000000000000000000081526004016104ea90611120565b60405180910390fd5b8060038190555050565b610505610c0c565b73ffffffffffffffffffffffffffffffffffffffff1661052361058b565b73ffffffffffffffffffffffffffffffffffffffff1614610579576040517f08c379a000000000000000000000000000000000000000000000000000000000815260040161057090611120565b60405180910390fd5b6105836000610c80565b565b60055481565b60008060009054906101000a900473ffffffffffffffffffffffffffffffffffffffff16905090565b60065481565b6000600354346105ca91906113ad565b90506001548111610610576040517f08c379a000000000000000000000000000000000000000000000000000000000815260040161060790611140565b60405180910390fd5b60025481600760003373ffffffffffffffffffffffffffffffffffffffff1673ffffffffffffffffffffffffffffffffffffffff1681526020019081526020016000205461065e91906111b5565b1061069e576040517f08c379a000000000000000000000000000000000000000000000000000000000815260040161069590611100565b60405180910390fd5b80600860009054906101000a900473ffffffffffffffffffffffffffffffffffffffff1673ffffffffffffffffffffffffffffffffffffffff166370a08231306040518263ffffffff1660e01b81526004016106fa9190610fea565b60206040518083038186803b15801561071257600080fd5b505afa158015610726573d6000803e3d6000fd5b505050506040513d601f19601f8201168201806040525081019061074a9190610e63565b101561078b576040517f08c379a0000000000000000000000000000000000000000000000000000000008152600401610782906110c0565b60405180910390fd5b80600760003373ffffffffffffffffffffffffffffffffffffffff1673ffffffffffffffffffffffffffffffffffffffff16815260200190815260200160002060008282546107da91906111b5565b92505081905550600860009054906101000a900473ffffffffffffffffffffffffffffffffffffffff1673ffffffffffffffffffffffffffffffffffffffff1663a9059cbb33836040518363ffffffff1660e01b815260040161083e92919061103c565b602060405180830381600087803b15801561085857600080fd5b505af115801561086c573d6000803e3d6000fd5b505050506040513d601f19601f820116820180604052508101906108909190610e11565b5050565b60015481565b6000600760003373ffffffffffffffffffffffffffffffffffffffff1673ffffffffffffffffffffffffffffffffffffffff16815260200190815260200160002054905090565b80600760003373ffffffffffffffffffffffffffffffffffffffff1673ffffffffffffffffffffffffffffffffffffffff168152602001908152602001600020541015610963576040517f08c379a000000000000000000000000000000000000000000000000000000000815260040161095a906110e0565b60405180910390fd5b600061096e82610d44565b9050600060035482846109819190611407565b61098b919061120b565b905082600760003373ffffffffffffffffffffffffffffffffffffffff1673ffffffffffffffffffffffffffffffffffffffff16815260200190815260200160002060008282546109dc9190611407565b92505081905550600860009054906101000a900473ffffffffffffffffffffffffffffffffffffffff1673ffffffffffffffffffffffffffffffffffffffff166323b872dd610a29610c0c565b30866040518463ffffffff1660e01b8152600401610a4993929190611005565b602060405180830381600087803b158015610a6357600080fd5b505af1158015610a77573d6000803e3d6000fd5b505050506040513d601f19601f82011682018060405250810190610a9b9190610e11565b503373ffffffffffffffffffffffffffffffffffffffff166108fc829081150290604051600060405180830381858888f19350505050158015610ae2573d6000803e3d6000fd5b50505050565b60025481565b610af6610c0c565b73ffffffffffffffffffffffffffffffffffffffff16610b1461058b565b73ffffffffffffffffffffffffffffffffffffffff1614610b6a576040517f08c379a0000000000000000000000000000000000000000000000000000000008152600401610b6190611120565b60405180910390fd5b600073ffffffffffffffffffffffffffffffffffffffff168173ffffffffffffffffffffffffffffffffffffffff161415610bda576040517f08c379a0000000000000000000000000000000000000000000000000000000008152600401610bd1906110a0565b60405180910390fd5b610be381610c80565b50565b600860009054906101000a900473ffffffffffffffffffffffffffffffffffffffff1681565b600033905090565b600282610c2191906111b5565b600a610c2d919061128f565b8110610c6e576040517f08c379a0000000000000000000000000000000000000000000000000000000008152600401610c6590611080565b60405180910390fd5b81600581905550806006819055505050565b60008060009054906101000a900473ffffffffffffffffffffffffffffffffffffffff169050816000806101000a81548173ffffffffffffffffffffffffffffffffffffffff021916908373ffffffffffffffffffffffffffffffffffffffff1602179055508173ffffffffffffffffffffffffffffffffffffffff168173ffffffffffffffffffffffffffffffffffffffff167f8be0079c531659141344cd1fd0a4f28419497f9722a3daafe3b4186f6b6457e060405160405180910390a35050565b6000806006541415610d595760009050610d8f565b6002600554610d6891906111b5565b600a610d74919061128f565b82600654610d8291906113ad565b610d8c919061120b565b90505b919050565b600081359050610da38161167d565b92915050565b600081519050610db881611694565b92915050565b600081359050610dcd816116ab565b92915050565b600081519050610de2816116ab565b92915050565b600060208284031215610dfa57600080fd5b6000610e0884828501610d94565b91505092915050565b600060208284031215610e2357600080fd5b6000610e3184828501610da9565b91505092915050565b600060208284031215610e4c57600080fd5b6000610e5a84828501610dbe565b91505092915050565b600060208284031215610e7557600080fd5b6000610e8384828501610dd3565b91505092915050565b60008060408385031215610e9f57600080fd5b6000610ead85828601610dbe565b9250506020610ebe85828601610dbe565b9150509250929050565b610ed18161143b565b82525050565b610ee081611483565b82525050565b6000610ef36017836111a4565b9150610efe82611512565b602082019050919050565b6000610f166026836111a4565b9150610f218261153b565b604082019050919050565b6000610f39601f836111a4565b9150610f448261158a565b602082019050919050565b6000610f5c6035836111a4565b9150610f67826115b3565b604082019050919050565b6000610f7f601a836111a4565b9150610f8a82611602565b602082019050919050565b6000610fa26020836111a4565b9150610fad8261162b565b602082019050919050565b6000610fc5601c836111a4565b9150610fd082611654565b602082019050919050565b610fe481611479565b82525050565b6000602082019050610fff6000830184610ec8565b92915050565b600060608201905061101a6000830186610ec8565b6110276020830185610ec8565b6110346040830184610fdb565b949350505050565b60006040820190506110516000830185610ec8565b61105e6020830184610fdb565b9392505050565b600060208201905061107a6000830184610ed7565b92915050565b6000602082019050818103600083015261109981610ee6565b9050919050565b600060208201905081810360008301526110b981610f09565b9050919050565b600060208201905081810360008301526110d981610f2c565b9050919050565b600060208201905081810360008301526110f981610f4f565b9050919050565b6000602082019050818103600083015261111981610f72565b9050919050565b6000602082019050818103600083015261113981610f95565b9050919050565b6000602082019050818103600083015261115981610fb8565b9050919050565b60006020820190506111756000830184610fdb565b92915050565b60006040820190506111906000830185610fdb565b61119d6020830184610fdb565b9392505050565b600082825260208201905092915050565b60006111c082611479565b91506111cb83611479565b9250827fffffffffffffffffffffffffffffffffffffffffffffffffffffffffffffffff03821115611200576111ff6114a7565b5b828201905092915050565b600061121682611479565b915061122183611479565b925082611231576112306114d6565b5b828204905092915050565b6000808291508390505b600185111561128657808604811115611262576112616114a7565b5b60018516156112715780820291505b808102905061127f85611505565b9450611246565b94509492505050565b600061129a82611479565b91506112a583611479565b92506112d27fffffffffffffffffffffffffffffffffffffffffffffffffffffffffffffffff84846112da565b905092915050565b6000826112ea57600190506113a6565b816112f857600090506113a6565b816001811461130e576002811461131857611347565b60019150506113a6565b60ff84111561132a576113296114a7565b5b8360020a915084821115611341576113406114a7565b5b506113a6565b5060208310610133831016604e8410600b841016171561137c5782820a905083811115611377576113766114a7565b5b6113a6565b611389848484600161123c565b925090508184048111156113a05761139f6114a7565b5b81810290505b9392505050565b60006113b882611479565b91506113c383611479565b9250817fffffffffffffffffffffffffffffffffffffffffffffffffffffffffffffffff04831182151516156113fc576113fb6114a7565b5b828202905092915050565b600061141282611479565b915061141d83611479565b9250828210156114305761142f6114a7565b5b828203905092915050565b600061144682611459565b9050919050565b60008115159050919050565b600073ffffffffffffffffffffffffffffffffffffffff82169050919050565b6000819050919050565b600061148e82611495565b9050919050565b60006114a082611459565b9050919050565b7f4e487b7100000000000000000000000000000000000000000000000000000000600052601160045260246000fd5b7f4e487b7100000000000000000000000000000000000000000000000000000000600052601260045260246000fd5b60008160011c9050919050565b7f546f6b656e53616c653a20626164206665652072617465000000000000000000600082015250565b7f4f776e61626c653a206e6577206f776e657220697320746865207a65726f206160008201527f6464726573730000000000000000000000000000000000000000000000000000602082015250565b7f546f6b656e53616c653a2065786365656420746f6b656e2062616c616e636500600082015250565b7f546f6b656e53616c653a20596f757220636f6e747269627574696f6e20646f2060008201527f6e6f74206861766520656e6f75676820746f6b656e0000000000000000000000602082015250565b7f546f6b656e53616c653a20657863656564206861726420636170000000000000600082015250565b7f4f776e61626c653a2063616c6c6572206973206e6f7420746865206f776e6572600082015250565b7f546f6b656e53616c653a204e6f74207265616368206d696e2063617000000000600082015250565b6116868161143b565b811461169157600080fd5b50565b61169d8161144d565b81146116a857600080fd5b50565b6116b481611479565b81146116bf57600080fd5b5056fea26469706673582212203547b1c33ad6164d9f882d7ce450d268ebe73f0ae45d6174950e5796132c49a364736f6c63430008040033",
  "linkReferences": {},
  "deployedLinkReferences": {}
}