{
  "_format": "hh-sol-artifact-1",
  "contractName": "Gold",
  "sourceName": "contracts/gold/Gold.sol",
  "abi": [
    {
      "inputs": [],
      "stateMutability": "nonpayable",
      "type": "constructor"
    },
    {
      "anonymous": false,
      "inputs": [
        {
          "indexed": true,
          "internalType": "address",
          "name": "owner",
          "type": "address"
        },
        {
          "indexed": true,
          "internalType": "address",
          "name": "spender",
          "type": "address"
        },
        {
          "indexed": false,
          "internalType": "uint256",
          "name": "value",
          "type": "uint256"
        }
      ],
      "name": "Approval",
      "type": "event"
    },
    {
      "anonymous": false,
      "inputs": [
        {
          "indexed": false,
          "internalType": "address",
          "name": "account",
          "type": "address"
        }
      ],
      "name": "BlacklistAdded",
      "type": "event"
    },
    {
      "anonymous": false,
      "inputs": [
        {
          "indexed": false,
          "internalType": "address",
          "name": "account",
          "type": "address"
        }
      ],
      "name": "BlacklistRemoved",
      "type": "event"
    },
    {
      "anonymous": false,
      "inputs": [
        {
          "indexed": false,
          "internalType": "address",
          "name": "account",
          "type": "address"
        }
      ],
      "name": "Paused",
      "type": "event"
    },
    {
      "anonymous": false,
      "inputs": [
        {
          "indexed": true,
          "internalType": "bytes32",
          "name": "role",
          "type": "bytes32"
        },
        {
          "indexed": true,
          "internalType": "bytes32",
          "name": "previousAdminRole",
          "type": "bytes32"
        },
        {
          "indexed": true,
          "internalType": "bytes32",
          "name": "newAdminRole",
          "type": "bytes32"
        }
      ],
      "name": "RoleAdminChanged",
      "type": "event"
    },
    {
      "anonymous": false,
      "inputs": [
        {
          "indexed": true,
          "internalType": "bytes32",
          "name": "role",
          "type": "bytes32"
        },
        {
          "indexed": true,
          "internalType": "address",
          "name": "account",
          "type": "address"
        },
        {
          "indexed": true,
          "internalType": "address",
          "name": "sender",
          "type": "address"
        }
      ],
      "name": "RoleGranted",
      "type": "event"
    },
    {
      "anonymous": false,
      "inputs": [
        {
          "indexed": true,
          "internalType": "bytes32",
          "name": "role",
          "type": "bytes32"
        },
        {
          "indexed": true,
          "internalType": "address",
          "name": "account",
          "type": "address"
        },
        {
          "indexed": true,
          "internalType": "address",
          "name": "sender",
          "type": "address"
        }
      ],
      "name": "RoleRevoked",
      "type": "event"
    },
    {
      "anonymous": false,
      "inputs": [
        {
          "indexed": true,
          "internalType": "address",
          "name": "from",
          "type": "address"
        },
        {
          "indexed": true,
          "internalType": "address",
          "name": "to",
          "type": "address"
        },
        {
          "indexed": false,
          "internalType": "uint256",
          "name": "value",
          "type": "uint256"
        }
      ],
      "name": "Transfer",
      "type": "event"
    },
    {
      "anonymous": false,
      "inputs": [
        {
          "indexed": false,
          "internalType": "address",
          "name": "account",
          "type": "address"
        }
      ],
      "name": "Unpaused",
      "type": "event"
    },
    {
      "inputs": [],
      "name": "DEFAULT_ADMIN_ROLE",
      "outputs": [
        {
          "internalType": "bytes32",
          "name": "",
          "type": "bytes32"
        }
      ],
      "stateMutability": "view",
      "type": "function"
    },
    {
      "inputs": [],
      "name": "PAUSER_ROLE",
      "outputs": [
        {
          "internalType": "bytes32",
          "name": "",
          "type": "bytes32"
        }
      ],
      "stateMutability": "view",
      "type": "function"
    },
    {
      "inputs": [
        {
          "internalType": "address",
          "name": "_account",
          "type": "address"
        }
      ],
      "name": "addToBlacklist",
      "outputs": [],
      "stateMutability": "nonpayable",
      "type": "function"
    },
    {
      "inputs": [
        {
          "internalType": "address",
          "name": "owner",
          "type": "address"
        },
        {
          "internalType": "address",
          "name": "spender",
          "type": "address"
        }
      ],
      "name": "allowance",
      "outputs": [
        {
          "internalType": "uint256",
          "name": "",
          "type": "uint256"
        }
      ],
      "stateMutability": "view",
      "type": "function"
    },
    {
      "inputs": [
        {
          "internalType": "address",
          "name": "spender",
          "type": "address"
        },
        {
          "internalType": "uint256",
          "name": "amount",
          "type": "uint256"
        }
      ],
      "name": "approve",
      "outputs": [
        {
          "internalType": "bool",
          "name": "",
          "type": "bool"
        }
      ],
      "stateMutability": "nonpayable",
      "type": "function"
    },
    {
      "inputs": [
        {
          "internalType": "address",
          "name": "account",
          "type": "address"
        }
      ],
      "name": "balanceOf",
      "outputs": [
        {
          "internalType": "uint256",
          "name": "",
          "type": "uint256"
        }
      ],
      "stateMutability": "view",
      "type": "function"
    },
    {
      "inputs": [],
      "name": "decimals",
      "outputs": [
        {
          "internalType": "uint8",
          "name": "",
          "type": "uint8"
        }
      ],
      "stateMutability": "view",
      "type": "function"
    },
    {
      "inputs": [
        {
          "internalType": "address",
          "name": "spender",
          "type": "address"
        },
        {
          "internalType": "uint256",
          "name": "subtractedValue",
          "type": "uint256"
        }
      ],
      "name": "decreaseAllowance",
      "outputs": [
        {
          "internalType": "bool",
          "name": "",
          "type": "bool"
        }
      ],
      "stateMutability": "nonpayable",
      "type": "function"
    },
    {
      "inputs": [
        {
          "internalType": "bytes32",
          "name": "role",
          "type": "bytes32"
        }
      ],
      "name": "getRoleAdmin",
      "outputs": [
        {
          "internalType": "bytes32",
          "name": "",
          "type": "bytes32"
        }
      ],
      "stateMutability": "view",
      "type": "function"
    },
    {
      "inputs": [
        {
          "internalType": "bytes32",
          "name": "role",
          "type": "bytes32"
        },
        {
          "internalType": "address",
          "name": "account",
          "type": "address"
        }
      ],
      "name": "grantRole",
      "outputs": [],
      "stateMutability": "nonpayable",
      "type": "function"
    },
    {
      "inputs": [
        {
          "internalType": "bytes32",
          "name": "role",
          "type": "bytes32"
        },
        {
          "internalType": "address",
          "name": "account",
          "type": "address"
        }
      ],
      "name": "hasRole",
      "outputs": [
        {
          "internalType": "bool",
          "name": "",
          "type": "bool"
        }
      ],
      "stateMutability": "view",
      "type": "function"
    },
    {
      "inputs": [
        {
          "internalType": "address",
          "name": "spender",
          "type": "address"
        },
        {
          "internalType": "uint256",
          "name": "addedValue",
          "type": "uint256"
        }
      ],
      "name": "increaseAllowance",
      "outputs": [
        {
          "internalType": "bool",
          "name": "",
          "type": "bool"
        }
      ],
      "stateMutability": "nonpayable",
      "type": "function"
    },
    {
      "inputs": [],
      "name": "name",
      "outputs": [
        {
          "internalType": "string",
          "name": "",
          "type": "string"
        }
      ],
      "stateMutability": "view",
      "type": "function"
    },
    {
      "inputs": [],
      "name": "pause",
      "outputs": [],
      "stateMutability": "nonpayable",
      "type": "function"
    },
    {
      "inputs": [],
      "name": "paused",
      "outputs": [
        {
          "internalType": "bool",
          "name": "",
          "type": "bool"
        }
      ],
      "stateMutability": "view",
      "type": "function"
    },
    {
      "inputs": [
        {
          "internalType": "address",
          "name": "_account",
          "type": "address"
        }
      ],
      "name": "removeFromBlacklist",
      "outputs": [],
      "stateMutability": "nonpayable",
      "type": "function"
    },
    {
      "inputs": [
        {
          "internalType": "bytes32",
          "name": "role",
          "type": "bytes32"
        },
        {
          "internalType": "address",
          "name": "account",
          "type": "address"
        }
      ],
      "name": "renounceRole",
      "outputs": [],
      "stateMutability": "nonpayable",
      "type": "function"
    },
    {
      "inputs": [
        {
          "internalType": "bytes32",
          "name": "role",
          "type": "bytes32"
        },
        {
          "internalType": "address",
          "name": "account",
          "type": "address"
        }
      ],
      "name": "revokeRole",
      "outputs": [],
      "stateMutability": "nonpayable",
      "type": "function"
    },
    {
      "inputs": [
        {
          "internalType": "bytes4",
          "name": "interfaceId",
          "type": "bytes4"
        }
      ],
      "name": "supportsInterface",
      "outputs": [
        {
          "internalType": "bool",
          "name": "",
          "type": "bool"
        }
      ],
      "stateMutability": "view",
      "type": "function"
    },
    {
      "inputs": [],
      "name": "symbol",
      "outputs": [
        {
          "internalType": "string",
          "name": "",
          "type": "string"
        }
      ],
      "stateMutability": "view",
      "type": "function"
    },
    {
      "inputs": [],
      "name": "totalSupply",
      "outputs": [
        {
          "internalType": "uint256",
          "name": "",
          "type": "uint256"
        }
      ],
      "stateMutability": "view",
      "type": "function"
    },
    {
      "inputs": [
        {
          "internalType": "address",
          "name": "to",
          "type": "address"
        },
        {
          "internalType": "uint256",
          "name": "amount",
          "type": "uint256"
        }
      ],
      "name": "transfer",
      "outputs": [
        {
          "internalType": "bool",
          "name": "",
          "type": "bool"
        }
      ],
      "stateMutability": "nonpayable",
      "type": "function"
    },
    {
      "inputs": [
        {
          "internalType": "address",
          "name": "from",
          "type": "address"
        },
        {
          "internalType": "address",
          "name": "to",
          "type": "address"
        },
        {
          "internalType": "uint256",
          "name": "amount",
          "type": "uint256"
        }
      ],
      "name": "transferFrom",
      "outputs": [
        {
          "internalType": "bool",
          "name": "",
          "type": "bool"
        }
      ],
      "stateMutability": "nonpayable",
      "type": "function"
    },
    {
      "inputs": [],
      "name": "unpause",
      "outputs": [],
      "stateMutability": "nonpayable",
      "type": "function"
    }
  ],
  "bytecode": "0x60806040523480156200001157600080fd5b506040518060400160405280600481526020017f474f4c44000000000000000000000000000000000000000000000000000000008152506040518060400160405280600381526020017f474c44000000000000000000000000000000000000000000000000000000000081525081600390805190602001906200009692919062000607565b508060049080519060200190620000af92919062000607565b5050506000600560006101000a81548160ff021916908315150217905550620000e26000801b336200015960201b60201c565b620001147f65d7a28e3265b37a6474929f336521b332c1681b933f6cb9f3376673440d862a336200015960201b60201c565b6200015333620001296200016f60201b60201c565b600a620001379190620008d2565b620f424062000147919062000a0f565b6200017860201b60201c565b62000c18565b6200016b8282620002f160201b60201c565b5050565b60006012905090565b600073ffffffffffffffffffffffffffffffffffffffff168273ffffffffffffffffffffffffffffffffffffffff161415620001eb576040517f08c379a0000000000000000000000000000000000000000000000000000000008152600401620001e290620007ca565b60405180910390fd5b620001ff60008383620003e360201b60201c565b80600260008282546200021391906200081a565b92505081905550806000808473ffffffffffffffffffffffffffffffffffffffff1673ffffffffffffffffffffffffffffffffffffffff16815260200190815260200160002060008282546200026a91906200081a565b925050819055508173ffffffffffffffffffffffffffffffffffffffff16600073ffffffffffffffffffffffffffffffffffffffff167fddf252ad1be2c89b69c2b068fc378daa952ba7f163c4a11628f55a4df523b3ef83604051620002d19190620007ec565b60405180910390a3620002ed600083836200057360201b60201c565b5050565b6200030382826200057860201b60201c565b620003df5760016006600084815260200190815260200160002060000160008373ffffffffffffffffffffffffffffffffffffffff1673ffffffffffffffffffffffffffffffffffffffff16815260200190815260200160002060006101000a81548160ff02191690831515021790555062000384620005e360201b60201c565b73ffffffffffffffffffffffffffffffffffffffff168173ffffffffffffffffffffffffffffffffffffffff16837f2f8788117e7eff1d82e926ec794901d17c78024a50270940304540a733656f0d60405160405180910390a45b5050565b620003f3620005eb60201b60201c565b1562000436576040517f08c379a00000000000000000000000000000000000000000000000000000000081526004016200042d90620007a8565b60405180910390fd5b600760008473ffffffffffffffffffffffffffffffffffffffff1673ffffffffffffffffffffffffffffffffffffffff16815260200190815260200160002060009054906101000a900460ff1615620004c6576040517f08c379a0000000000000000000000000000000000000000000000000000000008152600401620004bd9062000764565b60405180910390fd5b600760008373ffffffffffffffffffffffffffffffffffffffff1673ffffffffffffffffffffffffffffffffffffffff16815260200190815260200160002060009054906101000a900460ff161562000556576040517f08c379a00000000000000000000000000000000000000000000000000000000081526004016200054d9062000786565b60405180910390fd5b6200056e8383836200060260201b62000e2c1760201c565b505050565b505050565b60006006600084815260200190815260200160002060000160008373ffffffffffffffffffffffffffffffffffffffff1673ffffffffffffffffffffffffffffffffffffffff16815260200190815260200160002060009054906101000a900460ff16905092915050565b600033905090565b6000600560009054906101000a900460ff16905090565b505050565b828054620006159062000a87565b90600052602060002090601f01602090048101928262000639576000855562000685565b82601f106200065457805160ff191683800117855562000685565b8280016001018555821562000685579182015b828111156200068457825182559160200191906001019062000667565b5b50905062000694919062000698565b5090565b5b80821115620006b357600081600090555060010162000699565b5090565b6000620006c660258362000809565b9150620006d38262000b28565b604082019050919050565b6000620006ed60278362000809565b9150620006fa8262000b77565b604082019050919050565b60006200071460108362000809565b9150620007218262000bc6565b602082019050919050565b60006200073b601f8362000809565b9150620007488262000bef565b602082019050919050565b6200075e8162000a70565b82525050565b600060208201905081810360008301526200077f81620006b7565b9050919050565b60006020820190508181036000830152620007a181620006de565b9050919050565b60006020820190508181036000830152620007c38162000705565b9050919050565b60006020820190508181036000830152620007e5816200072c565b9050919050565b600060208201905062000803600083018462000753565b92915050565b600082825260208201905092915050565b6000620008278262000a70565b9150620008348362000a70565b9250827fffffffffffffffffffffffffffffffffffffffffffffffffffffffffffffffff038211156200086c576200086b62000abd565b5b828201905092915050565b6000808291508390505b6001851115620008c957808604811115620008a157620008a062000abd565b5b6001851615620008b15780820291505b8081029050620008c18562000b1b565b945062000881565b94509492505050565b6000620008df8262000a70565b9150620008ec8362000a7a565b92506200091b7fffffffffffffffffffffffffffffffffffffffffffffffffffffffffffffffff848462000923565b905092915050565b60008262000935576001905062000a08565b8162000945576000905062000a08565b81600181146200095e576002811462000969576200099f565b600191505062000a08565b60ff8411156200097e576200097d62000abd565b5b8360020a91508482111562000998576200099762000abd565b5b5062000a08565b5060208310610133831016604e8410600b8410161715620009d95782820a905083811115620009d357620009d262000abd565b5b62000a08565b620009e8848484600162000877565b9250905081840481111562000a025762000a0162000abd565b5b81810290505b9392505050565b600062000a1c8262000a70565b915062000a298362000a70565b9250817fffffffffffffffffffffffffffffffffffffffffffffffffffffffffffffffff048311821515161562000a655762000a6462000abd565b5b828202905092915050565b6000819050919050565b600060ff82169050919050565b6000600282049050600182168062000aa057607f821691505b6020821081141562000ab75762000ab662000aec565b5b50919050565b7f4e487b7100000000000000000000000000000000000000000000000000000000600052601160045260246000fd5b7f4e487b7100000000000000000000000000000000000000000000000000000000600052602260045260246000fd5b60008160011c9050919050565b7f476f6c643a206163636f756e742073656e64657220776173206f6e20626c616360008201527f6b6c697374000000000000000000000000000000000000000000000000000000602082015250565b7f476f6c643a206163636f756e7420726563656976657220776173206f6e20626c60008201527f61636b6c69737400000000000000000000000000000000000000000000000000602082015250565b7f5061757361626c653a2070617573656400000000000000000000000000000000600082015250565b7f45524332303a206d696e7420746f20746865207a65726f206164647265737300600082015250565b612ae78062000c286000396000f3fe608060405234801561001057600080fd5b50600436106101585760003560e01c8063537df3b6116100c3578063a217fddf1161007c578063a217fddf146103c7578063a457c2d7146103e5578063a9059cbb14610415578063d547741f14610445578063dd62ed3e14610461578063e63ab1e91461049157610158565b8063537df3b6146103055780635c975abb1461032157806370a082311461033f5780638456cb591461036f57806391d148541461037957806395d89b41146103a957610158565b80632f2ff15d116101155780632f2ff15d14610259578063313ce5671461027557806336568abe1461029357806339509351146102af5780633f4ba83a146102df57806344337ea1146102e957610158565b806301ffc9a71461015d57806306fdde031461018d578063095ea7b3146101ab57806318160ddd146101db57806323b872dd146101f9578063248a9ca314610229575b600080fd5b61017760048036038101906101729190611d3a565b6104af565b60405161018491906120e3565b60405180910390f35b610195610529565b6040516101a29190612119565b60405180910390f35b6101c560048036038101906101c09190611c99565b6105bb565b6040516101d291906120e3565b60405180910390f35b6101e36105de565b6040516101f0919061233b565b60405180910390f35b610213600480360381019061020e9190611c4a565b6105e8565b60405161022091906120e3565b60405180910390f35b610243600480360381019061023e9190611cd5565b610617565b60405161025091906120fe565b60405180910390f35b610273600480360381019061026e9190611cfe565b610637565b005b61027d610660565b60405161028a9190612356565b60405180910390f35b6102ad60048036038101906102a89190611cfe565b610669565b005b6102c960048036038101906102c49190611c99565b6106ec565b6040516102d691906120e3565b60405180910390f35b6102e7610796565b005b61030360048036038101906102fe9190611be5565b6107d3565b005b61031f600480360381019061031a9190611be5565b610977565b005b610329610aab565b60405161033691906120e3565b60405180910390f35b61035960048036038101906103549190611be5565b610ac2565b604051610366919061233b565b60405180910390f35b610377610b0a565b005b610393600480360381019061038e9190611cfe565b610b47565b6040516103a091906120e3565b60405180910390f35b6103b1610bb2565b6040516103be9190612119565b60405180910390f35b6103cf610c44565b6040516103dc91906120fe565b60405180910390f35b6103ff60048036038101906103fa9190611c99565b610c4b565b60405161040c91906120e3565b60405180910390f35b61042f600480360381019061042a9190611c99565b610d35565b60405161043c91906120e3565b60405180910390f35b61045f600480360381019061045a9190611cfe565b610d58565b005b61047b60048036038101906104769190611c0e565b610d81565b604051610488919061233b565b60405180910390f35b610499610e08565b6040516104a691906120fe565b60405180910390f35b60007f7965db0b000000000000000000000000000000000000000000000000000000007bffffffffffffffffffffffffffffffffffffffffffffffffffffffff1916827bffffffffffffffffffffffffffffffffffffffffffffffffffffffff19161480610522575061052182610e31565b5b9050919050565b60606003805461053890612530565b80601f016020809104026020016040519081016040528092919081815260200182805461056490612530565b80156105b15780601f10610586576101008083540402835291602001916105b1565b820191906000526020600020905b81548152906001019060200180831161059457829003601f168201915b5050505050905090565b6000806105c6610e9b565b90506105d3818585610ea3565b600191505092915050565b6000600254905090565b6000806105f3610e9b565b905061060085828561106e565b61060b8585856110fa565b60019150509392505050565b600060066000838152602001908152602001600020600101549050919050565b61064082610617565b6106518161064c610e9b565b61137b565b61065b8383611418565b505050565b60006012905090565b610671610e9b565b73ffffffffffffffffffffffffffffffffffffffff168173ffffffffffffffffffffffffffffffffffffffff16146106de576040517f08c379a00000000000000000000000000000000000000000000000000000000081526004016106d59061231b565b60405180910390fd5b6106e882826114f9565b5050565b6000806106f7610e9b565b905061078b818585600160008673ffffffffffffffffffffffffffffffffffffffff1673ffffffffffffffffffffffffffffffffffffffff16815260200190815260200160002060008973ffffffffffffffffffffffffffffffffffffffff1673ffffffffffffffffffffffffffffffffffffffff168152602001908152602001600020546107869190612398565b610ea3565b600191505092915050565b7f65d7a28e3265b37a6474929f336521b332c1681b933f6cb9f3376673440d862a6107c8816107c3610e9b565b61137b565b6107d06115db565b50565b6000801b6107e8816107e3610e9b565b61137b565b3373ffffffffffffffffffffffffffffffffffffffff168273ffffffffffffffffffffffffffffffffffffffff161415610857576040517f08c379a000000000000000000000000000000000000000000000000000000000815260040161084e9061221b565b60405180910390fd5b600760008373ffffffffffffffffffffffffffffffffffffffff1673ffffffffffffffffffffffffffffffffffffffff16815260200190815260200160002060009054906101000a900460ff16156108e4576040517f08c379a00000000000000000000000000000000000000000000000000000000081526004016108db9061213b565b60405180910390fd5b6001600760008473ffffffffffffffffffffffffffffffffffffffff1673ffffffffffffffffffffffffffffffffffffffff16815260200190815260200160002060006101000a81548160ff0219169083151502179055507f44d5fe68b00f68950fb9c1ff0a61ef7f747b1a36359a7e3a7f3324db4b8789678260405161096b91906120c8565b60405180910390a15050565b6000801b61098c81610987610e9b565b61137b565b600760008373ffffffffffffffffffffffffffffffffffffffff1673ffffffffffffffffffffffffffffffffffffffff16815260200190815260200160002060009054906101000a900460ff16610a18576040517f08c379a0000000000000000000000000000000000000000000000000000000008152600401610a0f9061229b565b60405180910390fd5b6000600760008473ffffffffffffffffffffffffffffffffffffffff1673ffffffffffffffffffffffffffffffffffffffff16815260200190815260200160002060006101000a81548160ff0219169083151502179055507f1747ca720b1a174a464b6513ace29b1d3190b5f632b9f34147017c81425bfde882604051610a9f91906120c8565b60405180910390a15050565b6000600560009054906101000a900460ff16905090565b60008060008373ffffffffffffffffffffffffffffffffffffffff1673ffffffffffffffffffffffffffffffffffffffff168152602001908152602001600020549050919050565b7f65d7a28e3265b37a6474929f336521b332c1681b933f6cb9f3376673440d862a610b3c81610b37610e9b565b61137b565b610b4461167d565b50565b60006006600084815260200190815260200160002060000160008373ffffffffffffffffffffffffffffffffffffffff1673ffffffffffffffffffffffffffffffffffffffff16815260200190815260200160002060009054906101000a900460ff16905092915050565b606060048054610bc190612530565b80601f0160208091040260200160405190810160405280929190818152602001828054610bed90612530565b8015610c3a5780601f10610c0f57610100808354040283529160200191610c3a565b820191906000526020600020905b815481529060010190602001808311610c1d57829003601f168201915b5050505050905090565b6000801b81565b600080610c56610e9b565b90506000600160008373ffffffffffffffffffffffffffffffffffffffff1673ffffffffffffffffffffffffffffffffffffffff16815260200190815260200160002060008673ffffffffffffffffffffffffffffffffffffffff1673ffffffffffffffffffffffffffffffffffffffff16815260200190815260200160002054905083811015610d1c576040517f08c379a0000000000000000000000000000000000000000000000000000000008152600401610d13906122fb565b60405180910390fd5b610d298286868403610ea3565b60019250505092915050565b600080610d40610e9b565b9050610d4d8185856110fa565b600191505092915050565b610d6182610617565b610d7281610d6d610e9b565b61137b565b610d7c83836114f9565b505050565b6000600160008473ffffffffffffffffffffffffffffffffffffffff1673ffffffffffffffffffffffffffffffffffffffff16815260200190815260200160002060008373ffffffffffffffffffffffffffffffffffffffff1673ffffffffffffffffffffffffffffffffffffffff16815260200190815260200160002054905092915050565b7f65d7a28e3265b37a6474929f336521b332c1681b933f6cb9f3376673440d862a81565b505050565b60007f01ffc9a7000000000000000000000000000000000000000000000000000000007bffffffffffffffffffffffffffffffffffffffffffffffffffffffff1916827bffffffffffffffffffffffffffffffffffffffffffffffffffffffff1916149050919050565b600033905090565b600073ffffffffffffffffffffffffffffffffffffffff168373ffffffffffffffffffffffffffffffffffffffff161415610f13576040517f08c379a0000000000000000000000000000000000000000000000000000000008152600401610f0a906122db565b60405180910390fd5b600073ffffffffffffffffffffffffffffffffffffffff168273ffffffffffffffffffffffffffffffffffffffff161415610f83576040517f08c379a0000000000000000000000000000000000000000000000000000000008152600401610f7a906121fb565b60405180910390fd5b80600160008573ffffffffffffffffffffffffffffffffffffffff1673ffffffffffffffffffffffffffffffffffffffff16815260200190815260200160002060008473ffffffffffffffffffffffffffffffffffffffff1673ffffffffffffffffffffffffffffffffffffffff168152602001908152602001600020819055508173ffffffffffffffffffffffffffffffffffffffff168373ffffffffffffffffffffffffffffffffffffffff167f8c5be1e5ebec7d5bd14f71427d1e84f3dd0314c0f7b2291e5b200ac8c7c3b92583604051611061919061233b565b60405180910390a3505050565b600061107a8484610d81565b90507fffffffffffffffffffffffffffffffffffffffffffffffffffffffffffffffff81146110f457818110156110e6576040517f08c379a00000000000000000000000000000000000000000000000000000000081526004016110dd9061223b565b60405180910390fd5b6110f38484848403610ea3565b5b50505050565b600073ffffffffffffffffffffffffffffffffffffffff168373ffffffffffffffffffffffffffffffffffffffff16141561116a576040517f08c379a0000000000000000000000000000000000000000000000000000000008152600401611161906122bb565b60405180910390fd5b600073ffffffffffffffffffffffffffffffffffffffff168273ffffffffffffffffffffffffffffffffffffffff1614156111da576040517f08c379a00000000000000000000000000000000000000000000000000000000081526004016111d19061219b565b60405180910390fd5b6111e5838383611720565b60008060008573ffffffffffffffffffffffffffffffffffffffff1673ffffffffffffffffffffffffffffffffffffffff1681526020019081526020016000205490508181101561126b576040517f08c379a00000000000000000000000000000000000000000000000000000000081526004016112629061225b565b60405180910390fd5b8181036000808673ffffffffffffffffffffffffffffffffffffffff1673ffffffffffffffffffffffffffffffffffffffff16815260200190815260200160002081905550816000808573ffffffffffffffffffffffffffffffffffffffff1673ffffffffffffffffffffffffffffffffffffffff16815260200190815260200160002060008282546112fe9190612398565b925050819055508273ffffffffffffffffffffffffffffffffffffffff168473ffffffffffffffffffffffffffffffffffffffff167fddf252ad1be2c89b69c2b068fc378daa952ba7f163c4a11628f55a4df523b3ef84604051611362919061233b565b60405180910390a3611375848484611892565b50505050565b6113858282610b47565b611414576113aa8173ffffffffffffffffffffffffffffffffffffffff166014611897565b6113b88360001c6020611897565b6040516020016113c992919061208e565b6040516020818303038152906040526040517f08c379a000000000000000000000000000000000000000000000000000000000815260040161140b9190612119565b60405180910390fd5b5050565b6114228282610b47565b6114f55760016006600084815260200190815260200160002060000160008373ffffffffffffffffffffffffffffffffffffffff1673ffffffffffffffffffffffffffffffffffffffff16815260200190815260200160002060006101000a81548160ff02191690831515021790555061149a610e9b565b73ffffffffffffffffffffffffffffffffffffffff168173ffffffffffffffffffffffffffffffffffffffff16837f2f8788117e7eff1d82e926ec794901d17c78024a50270940304540a733656f0d60405160405180910390a45b5050565b6115038282610b47565b156115d75760006006600084815260200190815260200160002060000160008373ffffffffffffffffffffffffffffffffffffffff1673ffffffffffffffffffffffffffffffffffffffff16815260200190815260200160002060006101000a81548160ff02191690831515021790555061157c610e9b565b73ffffffffffffffffffffffffffffffffffffffff168173ffffffffffffffffffffffffffffffffffffffff16837ff6391f5c32d9c69d2a47ea670b442974b53935d1edc7fd64eb21e047a839171b60405160405180910390a45b5050565b6115e3610aab565b611622576040517f08c379a0000000000000000000000000000000000000000000000000000000008152600401611619906121db565b60405180910390fd5b6000600560006101000a81548160ff0219169083151502179055507f5db9ee0a495bf2e6ff9c91a7834c1ba4fdd244a5e8aa4e537bd38aeae4b073aa611666610e9b565b60405161167391906120c8565b60405180910390a1565b611685610aab565b156116c5576040517f08c379a00000000000000000000000000000000000000000000000000000000081526004016116bc9061227b565b60405180910390fd5b6001600560006101000a81548160ff0219169083151502179055507f62e78cea01bee320cd4e420270b5ea74000d11b0c9f74754ebdbfc544b05a258611709610e9b565b60405161171691906120c8565b60405180910390a1565b611728610aab565b15611768576040517f08c379a000000000000000000000000000000000000000000000000000000000815260040161175f9061227b565b60405180910390fd5b600760008473ffffffffffffffffffffffffffffffffffffffff1673ffffffffffffffffffffffffffffffffffffffff16815260200190815260200160002060009054906101000a900460ff16156117f5576040517f08c379a00000000000000000000000000000000000000000000000000000000081526004016117ec9061215b565b60405180910390fd5b600760008373ffffffffffffffffffffffffffffffffffffffff1673ffffffffffffffffffffffffffffffffffffffff16815260200190815260200160002060009054906101000a900460ff1615611882576040517f08c379a0000000000000000000000000000000000000000000000000000000008152600401611879906121bb565b60405180910390fd5b61188d838383610e2c565b505050565b505050565b6060600060028360026118aa91906123ee565b6118b49190612398565b67ffffffffffffffff8111156118f3577f4e487b7100000000000000000000000000000000000000000000000000000000600052604160045260246000fd5b6040519080825280601f01601f1916602001820160405280156119255781602001600182028036833780820191505090505b5090507f300000000000000000000000000000000000000000000000000000000000000081600081518110611983577f4e487b7100000000000000000000000000000000000000000000000000000000600052603260045260246000fd5b60200101907effffffffffffffffffffffffffffffffffffffffffffffffffffffffffffff1916908160001a9053507f780000000000000000000000000000000000000000000000000000000000000081600181518110611a0d577f4e487b7100000000000000000000000000000000000000000000000000000000600052603260045260246000fd5b60200101907effffffffffffffffffffffffffffffffffffffffffffffffffffffffffffff1916908160001a90535060006001846002611a4d91906123ee565b611a579190612398565b90505b6001811115611b43577f3031323334353637383961626364656600000000000000000000000000000000600f861660108110611abf577f4e487b7100000000000000000000000000000000000000000000000000000000600052603260045260246000fd5b1a60f81b828281518110611afc577f4e487b7100000000000000000000000000000000000000000000000000000000600052603260045260246000fd5b60200101907effffffffffffffffffffffffffffffffffffffffffffffffffffffffffffff1916908160001a905350600485901c945080611b3c90612506565b9050611a5a565b5060008414611b87576040517f08c379a0000000000000000000000000000000000000000000000000000000008152600401611b7e9061217b565b60405180910390fd5b8091505092915050565b600081359050611ba081612a55565b92915050565b600081359050611bb581612a6c565b92915050565b600081359050611bca81612a83565b92915050565b600081359050611bdf81612a9a565b92915050565b600060208284031215611bf757600080fd5b6000611c0584828501611b91565b91505092915050565b60008060408385031215611c2157600080fd5b6000611c2f85828601611b91565b9250506020611c4085828601611b91565b9150509250929050565b600080600060608486031215611c5f57600080fd5b6000611c6d86828701611b91565b9350506020611c7e86828701611b91565b9250506040611c8f86828701611bd0565b9150509250925092565b60008060408385031215611cac57600080fd5b6000611cba85828601611b91565b9250506020611ccb85828601611bd0565b9150509250929050565b600060208284031215611ce757600080fd5b6000611cf584828501611ba6565b91505092915050565b60008060408385031215611d1157600080fd5b6000611d1f85828601611ba6565b9250506020611d3085828601611b91565b9150509250929050565b600060208284031215611d4c57600080fd5b6000611d5a84828501611bbb565b91505092915050565b611d6c81612448565b82525050565b611d7b8161245a565b82525050565b611d8a81612466565b82525050565b6000611d9b82612371565b611da5818561237c565b9350611db58185602086016124d3565b611dbe816125c0565b840191505092915050565b6000611dd482612371565b611dde818561238d565b9350611dee8185602086016124d3565b80840191505092915050565b6000611e07601e8361237c565b9150611e12826125d1565b602082019050919050565b6000611e2a60258361237c565b9150611e35826125fa565b604082019050919050565b6000611e4d60208361237c565b9150611e5882612649565b602082019050919050565b6000611e7060238361237c565b9150611e7b82612672565b604082019050919050565b6000611e9360278361237c565b9150611e9e826126c1565b604082019050919050565b6000611eb660148361237c565b9150611ec182612710565b602082019050919050565b6000611ed960228361237c565b9150611ee482612739565b604082019050919050565b6000611efc60268361237c565b9150611f0782612788565b604082019050919050565b6000611f1f601d8361237c565b9150611f2a826127d7565b602082019050919050565b6000611f4260268361237c565b9150611f4d82612800565b604082019050919050565b6000611f6560108361237c565b9150611f708261284f565b602082019050919050565b6000611f8860228361237c565b9150611f9382612878565b604082019050919050565b6000611fab60258361237c565b9150611fb6826128c7565b604082019050919050565b6000611fce60248361237c565b9150611fd982612916565b604082019050919050565b6000611ff160178361238d565b9150611ffc82612965565b601782019050919050565b600061201460258361237c565b915061201f8261298e565b604082019050919050565b600061203760118361238d565b9150612042826129dd565b601182019050919050565b600061205a602f8361237c565b915061206582612a06565b604082019050919050565b612079816124bc565b82525050565b612088816124c6565b82525050565b600061209982611fe4565b91506120a58285611dc9565b91506120b08261202a565b91506120bc8284611dc9565b91508190509392505050565b60006020820190506120dd6000830184611d63565b92915050565b60006020820190506120f86000830184611d72565b92915050565b60006020820190506121136000830184611d81565b92915050565b600060208201905081810360008301526121338184611d90565b905092915050565b6000602082019050818103600083015261215481611dfa565b9050919050565b6000602082019050818103600083015261217481611e1d565b9050919050565b6000602082019050818103600083015261219481611e40565b9050919050565b600060208201905081810360008301526121b481611e63565b9050919050565b600060208201905081810360008301526121d481611e86565b9050919050565b600060208201905081810360008301526121f481611ea9565b9050919050565b6000602082019050818103600083015261221481611ecc565b9050919050565b6000602082019050818103600083015261223481611eef565b9050919050565b6000602082019050818103600083015261225481611f12565b9050919050565b6000602082019050818103600083015261227481611f35565b9050919050565b6000602082019050818103600083015261229481611f58565b9050919050565b600060208201905081810360008301526122b481611f7b565b9050919050565b600060208201905081810360008301526122d481611f9e565b9050919050565b600060208201905081810360008301526122f481611fc1565b9050919050565b6000602082019050818103600083015261231481612007565b9050919050565b600060208201905081810360008301526123348161204d565b9050919050565b60006020820190506123506000830184612070565b92915050565b600060208201905061236b600083018461207f565b92915050565b600081519050919050565b600082825260208201905092915050565b600081905092915050565b60006123a3826124bc565b91506123ae836124bc565b9250827fffffffffffffffffffffffffffffffffffffffffffffffffffffffffffffffff038211156123e3576123e2612562565b5b828201905092915050565b60006123f9826124bc565b9150612404836124bc565b9250817fffffffffffffffffffffffffffffffffffffffffffffffffffffffffffffffff048311821515161561243d5761243c612562565b5b828202905092915050565b60006124538261249c565b9050919050565b60008115159050919050565b6000819050919050565b60007fffffffff0000000000000000000000000000000000000000000000000000000082169050919050565b600073ffffffffffffffffffffffffffffffffffffffff82169050919050565b6000819050919050565b600060ff82169050919050565b60005b838110156124f15780820151818401526020810190506124d6565b83811115612500576000848401525b50505050565b6000612511826124bc565b9150600082141561252557612524612562565b5b600182039050919050565b6000600282049050600182168061254857607f821691505b6020821081141561255c5761255b612591565b5b50919050565b7f4e487b7100000000000000000000000000000000000000000000000000000000600052601160045260246000fd5b7f4e487b7100000000000000000000000000000000000000000000000000000000600052602260045260246000fd5b6000601f19601f8301169050919050565b7f476f6c643a206163636f756e7420776173206f6e20626c61636b6c6973740000600082015250565b7f476f6c643a206163636f756e742073656e64657220776173206f6e20626c616360008201527f6b6c697374000000000000000000000000000000000000000000000000000000602082015250565b7f537472696e67733a20686578206c656e67746820696e73756666696369656e74600082015250565b7f45524332303a207472616e7366657220746f20746865207a65726f206164647260008201527f6573730000000000000000000000000000000000000000000000000000000000602082015250565b7f476f6c643a206163636f756e7420726563656976657220776173206f6e20626c60008201527f61636b6c69737400000000000000000000000000000000000000000000000000602082015250565b7f5061757361626c653a206e6f7420706175736564000000000000000000000000600082015250565b7f45524332303a20617070726f766520746f20746865207a65726f20616464726560008201527f7373000000000000000000000000000000000000000000000000000000000000602082015250565b7f476f6c643a206d757374206e6f74206164642073656e64657220746f20626c6160008201527f636b6c6973740000000000000000000000000000000000000000000000000000602082015250565b7f45524332303a20696e73756666696369656e7420616c6c6f77616e6365000000600082015250565b7f45524332303a207472616e7366657220616d6f756e742065786365656473206260008201527f616c616e63650000000000000000000000000000000000000000000000000000602082015250565b7f5061757361626c653a2070617573656400000000000000000000000000000000600082015250565b7f476f6c643a206163636f756e7420776173206e6f74206f6e20626c61636b6c6960008201527f7374000000000000000000000000000000000000000000000000000000000000602082015250565b7f45524332303a207472616e736665722066726f6d20746865207a65726f20616460008201527f6472657373000000000000000000000000000000000000000000000000000000602082015250565b7f45524332303a20617070726f76652066726f6d20746865207a65726f2061646460008201527f7265737300000000000000000000000000000000000000000000000000000000602082015250565b7f416363657373436f6e74726f6c3a206163636f756e7420000000000000000000600082015250565b7f45524332303a2064656372656173656420616c6c6f77616e63652062656c6f7760008201527f207a65726f000000000000000000000000000000000000000000000000000000602082015250565b7f206973206d697373696e6720726f6c6520000000000000000000000000000000600082015250565b7f416363657373436f6e74726f6c3a2063616e206f6e6c792072656e6f756e636560008201527f20726f6c657320666f722073656c660000000000000000000000000000000000602082015250565b612a5e81612448565b8114612a6957600080fd5b50565b612a7581612466565b8114612a8057600080fd5b50565b612a8c81612470565b8114612a9757600080fd5b50565b612aa3816124bc565b8114612aae57600080fd5b5056fea26469706673582212209f94c51a624bbbd87f3d12f85d525b8be2dee4f119b11bdedce1fcb59b43b77e64736f6c63430008040033",
  "linkReferences": {},
  "deployedLinkReferences": {}
}