{
  "_format": "hh-sol-artifact-1",
  "contractName": "Gold",
  "sourceName": "contracts/gold/Gold.sol",
  "abi": [
    {
      "inputs": [],
      "stateMutability": "nonpayable",
      "type": "constructor"
    },
    {
      "anonymous": false,
      "inputs": [
        {
          "indexed": true,
          "internalType": "address",
          "name": "owner",
          "type": "address"
        },
        {
          "indexed": true,
          "internalType": "address",
          "name": "spender",
          "type": "address"
        },
        {
          "indexed": false,
          "internalType": "uint256",
          "name": "value",
          "type": "uint256"
        }
      ],
      "name": "Approval",
      "type": "event"
    },
    {
      "anonymous": false,
      "inputs": [
        {
          "indexed": false,
          "internalType": "address",
          "name": "account",
          "type": "address"
        }
      ],
      "name": "BlacklistAdded",
      "type": "event"
    },
    {
      "anonymous": false,
      "inputs": [
        {
          "indexed": false,
          "internalType": "address",
          "name": "account",
          "type": "address"
        }
      ],
      "name": "BlacklistRemoved",
      "type": "event"
    },
    {
      "anonymous": false,
      "inputs": [
        {
          "indexed": false,
          "internalType": "address",
          "name": "account",
          "type": "address"
        }
      ],
      "name": "Paused",
      "type": "event"
    },
    {
      "anonymous": false,
      "inputs": [
        {
          "indexed": true,
          "internalType": "bytes32",
          "name": "role",
          "type": "bytes32"
        },
        {
          "indexed": true,
          "internalType": "bytes32",
          "name": "previousAdminRole",
          "type": "bytes32"
        },
        {
          "indexed": true,
          "internalType": "bytes32",
          "name": "newAdminRole",
          "type": "bytes32"
        }
      ],
      "name": "RoleAdminChanged",
      "type": "event"
    },
    {
      "anonymous": false,
      "inputs": [
        {
          "indexed": true,
          "internalType": "bytes32",
          "name": "role",
          "type": "bytes32"
        },
        {
          "indexed": true,
          "internalType": "address",
          "name": "account",
          "type": "address"
        },
        {
          "indexed": true,
          "internalType": "address",
          "name": "sender",
          "type": "address"
        }
      ],
      "name": "RoleGranted",
      "type": "event"
    },
    {
      "anonymous": false,
      "inputs": [
        {
          "indexed": true,
          "internalType": "bytes32",
          "name": "role",
          "type": "bytes32"
        },
        {
          "indexed": true,
          "internalType": "address",
          "name": "account",
          "type": "address"
        },
        {
          "indexed": true,
          "internalType": "address",
          "name": "sender",
          "type": "address"
        }
      ],
      "name": "RoleRevoked",
      "type": "event"
    },
    {
      "anonymous": false,
      "inputs": [
        {
          "indexed": true,
          "internalType": "address",
          "name": "from",
          "type": "address"
        },
        {
          "indexed": true,
          "internalType": "address",
          "name": "to",
          "type": "address"
        },
        {
          "indexed": false,
          "internalType": "uint256",
          "name": "value",
          "type": "uint256"
        }
      ],
      "name": "Transfer",
      "type": "event"
    },
    {
      "anonymous": false,
      "inputs": [
        {
          "indexed": false,
          "internalType": "address",
          "name": "account",
          "type": "address"
        }
      ],
      "name": "Unpaused",
      "type": "event"
    },
    {
      "inputs": [],
      "name": "DEFAULT_ADMIN_ROLE",
      "outputs": [
        {
          "internalType": "bytes32",
          "name": "",
          "type": "bytes32"
        }
      ],
      "stateMutability": "view",
      "type": "function"
    },
    {
      "inputs": [],
      "name": "PAUSER_ROLE",
      "outputs": [
        {
          "internalType": "bytes32",
          "name": "",
          "type": "bytes32"
        }
      ],
      "stateMutability": "view",
      "type": "function"
    },
    {
      "inputs": [
        {
          "internalType": "address",
          "name": "_account",
          "type": "address"
        }
      ],
      "name": "addToBlacklist",
      "outputs": [],
      "stateMutability": "nonpayable",
      "type": "function"
    },
    {
      "inputs": [
        {
          "internalType": "address",
          "name": "owner",
          "type": "address"
        },
        {
          "internalType": "address",
          "name": "spender",
          "type": "address"
        }
      ],
      "name": "allowance",
      "outputs": [
        {
          "internalType": "uint256",
          "name": "",
          "type": "uint256"
        }
      ],
      "stateMutability": "view",
      "type": "function"
    },
    {
      "inputs": [
        {
          "internalType": "address",
          "name": "spender",
          "type": "address"
        },
        {
          "internalType": "uint256",
          "name": "amount",
          "type": "uint256"
        }
      ],
      "name": "approve",
      "outputs": [
        {
          "internalType": "bool",
          "name": "",
          "type": "bool"
        }
      ],
      "stateMutability": "nonpayable",
      "type": "function"
    },
    {
      "inputs": [
        {
          "internalType": "address",
          "name": "account",
          "type": "address"
        }
      ],
      "name": "balanceOf",
      "outputs": [
        {
          "internalType": "uint256",
          "name": "",
          "type": "uint256"
        }
      ],
      "stateMutability": "view",
      "type": "function"
    },
    {
      "inputs": [],
      "name": "decimals",
      "outputs": [
        {
          "internalType": "uint8",
          "name": "",
          "type": "uint8"
        }
      ],
      "stateMutability": "view",
      "type": "function"
    },
    {
      "inputs": [
        {
          "internalType": "address",
          "name": "spender",
          "type": "address"
        },
        {
          "internalType": "uint256",
          "name": "subtractedValue",
          "type": "uint256"
        }
      ],
      "name": "decreaseAllowance",
      "outputs": [
        {
          "internalType": "bool",
          "name": "",
          "type": "bool"
        }
      ],
      "stateMutability": "nonpayable",
      "type": "function"
    },
    {
      "inputs": [
        {
          "internalType": "bytes32",
          "name": "role",
          "type": "bytes32"
        }
      ],
      "name": "getRoleAdmin",
      "outputs": [
        {
          "internalType": "bytes32",
          "name": "",
          "type": "bytes32"
        }
      ],
      "stateMutability": "view",
      "type": "function"
    },
    {
      "inputs": [
        {
          "internalType": "bytes32",
          "name": "role",
          "type": "bytes32"
        },
        {
          "internalType": "address",
          "name": "account",
          "type": "address"
        }
      ],
      "name": "grantRole",
      "outputs": [],
      "stateMutability": "nonpayable",
      "type": "function"
    },
    {
      "inputs": [
        {
          "internalType": "bytes32",
          "name": "role",
          "type": "bytes32"
        },
        {
          "internalType": "address",
          "name": "account",
          "type": "address"
        }
      ],
      "name": "hasRole",
      "outputs": [
        {
          "internalType": "bool",
          "name": "",
          "type": "bool"
        }
      ],
      "stateMutability": "view",
      "type": "function"
    },
    {
      "inputs": [
        {
          "internalType": "address",
          "name": "spender",
          "type": "address"
        },
        {
          "internalType": "uint256",
          "name": "addedValue",
          "type": "uint256"
        }
      ],
      "name": "increaseAllowance",
      "outputs": [
        {
          "internalType": "bool",
          "name": "",
          "type": "bool"
        }
      ],
      "stateMutability": "nonpayable",
      "type": "function"
    },
    {
      "inputs": [],
      "name": "name",
      "outputs": [
        {
          "internalType": "string",
          "name": "",
          "type": "string"
        }
      ],
      "stateMutability": "view",
      "type": "function"
    },
    {
      "inputs": [],
      "name": "pause",
      "outputs": [],
      "stateMutability": "nonpayable",
      "type": "function"
    },
    {
      "inputs": [],
      "name": "paused",
      "outputs": [
        {
          "internalType": "bool",
          "name": "",
          "type": "bool"
        }
      ],
      "stateMutability": "view",
      "type": "function"
    },
    {
      "inputs": [
        {
          "internalType": "address",
          "name": "_account",
          "type": "address"
        }
      ],
      "name": "removeFromBlacklist",
      "outputs": [],
      "stateMutability": "nonpayable",
      "type": "function"
    },
    {
      "inputs": [
        {
          "internalType": "bytes32",
          "name": "role",
          "type": "bytes32"
        },
        {
          "internalType": "address",
          "name": "account",
          "type": "address"
        }
      ],
      "name": "renounceRole",
      "outputs": [],
      "stateMutability": "nonpayable",
      "type": "function"
    },
    {
      "inputs": [
        {
          "internalType": "bytes32",
          "name": "role",
          "type": "bytes32"
        },
        {
          "internalType": "address",
          "name": "account",
          "type": "address"
        }
      ],
      "name": "revokeRole",
      "outputs": [],
      "stateMutability": "nonpayable",
      "type": "function"
    },
    {
      "inputs": [
        {
          "internalType": "bytes4",
          "name": "interfaceId",
          "type": "bytes4"
        }
      ],
      "name": "supportsInterface",
      "outputs": [
        {
          "internalType": "bool",
          "name": "",
          "type": "bool"
        }
      ],
      "stateMutability": "view",
      "type": "function"
    },
    {
      "inputs": [],
      "name": "symbol",
      "outputs": [
        {
          "internalType": "string",
          "name": "",
          "type": "string"
        }
      ],
      "stateMutability": "view",
      "type": "function"
    },
    {
      "inputs": [],
      "name": "totalSupply",
      "outputs": [
        {
          "internalType": "uint256",
          "name": "",
          "type": "uint256"
        }
      ],
      "stateMutability": "view",
      "type": "function"
    },
    {
      "inputs": [
        {
          "internalType": "address",
          "name": "to",
          "type": "address"
        },
        {
          "internalType": "uint256",
          "name": "amount",
          "type": "uint256"
        }
      ],
      "name": "transfer",
      "outputs": [
        {
          "internalType": "bool",
          "name": "",
          "type": "bool"
        }
      ],
      "stateMutability": "nonpayable",
      "type": "function"
    },
    {
      "inputs": [
        {
          "internalType": "address",
          "name": "from",
          "type": "address"
        },
        {
          "internalType": "address",
          "name": "to",
          "type": "address"
        },
        {
          "internalType": "uint256",
          "name": "amount",
          "type": "uint256"
        }
      ],
      "name": "transferFrom",
      "outputs": [
        {
          "internalType": "bool",
          "name": "",
          "type": "bool"
        }
      ],
      "stateMutability": "nonpayable",
      "type": "function"
    },
    {
      "inputs": [],
      "name": "unpause",
      "outputs": [],
      "stateMutability": "nonpayable",
      "type": "function"
    }
  ],
  "bytecode": "0x60806040523480156200001157600080fd5b506040518060400160405280600481526020017f474f4c44000000000000000000000000000000000000000000000000000000008152506040518060400160405280600381526020017f474c44000000000000000000000000000000000000000000000000000000000081525081600390805190602001906200009692919062000607565b508060049080519060200190620000af92919062000607565b5050506000600560006101000a81548160ff021916908315150217905550620000e26000801b336200015960201b60201c565b620001147f65d7a28e3265b37a6474929f336521b332c1681b933f6cb9f3376673440d862a336200015960201b60201c565b6200015333620001296200016f60201b60201c565b600a620001379190620008d2565b620f424062000147919062000a0f565b6200017860201b60201c565b62000c18565b6200016b8282620002f160201b60201c565b5050565b60006012905090565b600073ffffffffffffffffffffffffffffffffffffffff168273ffffffffffffffffffffffffffffffffffffffff161415620001eb576040517f08c379a0000000000000000000000000000000000000000000000000000000008152600401620001e290620007ca565b60405180910390fd5b620001ff60008383620003e360201b60201c565b80600260008282546200021391906200081a565b92505081905550806000808473ffffffffffffffffffffffffffffffffffffffff1673ffffffffffffffffffffffffffffffffffffffff16815260200190815260200160002060008282546200026a91906200081a565b925050819055508173ffffffffffffffffffffffffffffffffffffffff16600073ffffffffffffffffffffffffffffffffffffffff167fddf252ad1be2c89b69c2b068fc378daa952ba7f163c4a11628f55a4df523b3ef83604051620002d19190620007ec565b60405180910390a3620002ed600083836200057360201b60201c565b5050565b6200030382826200057860201b60201c565b620003df5760016006600084815260200190815260200160002060000160008373ffffffffffffffffffffffffffffffffffffffff1673ffffffffffffffffffffffffffffffffffffffff16815260200190815260200160002060006101000a81548160ff02191690831515021790555062000384620005e360201b60201c565b73ffffffffffffffffffffffffffffffffffffffff168173ffffffffffffffffffffffffffffffffffffffff16837f2f8788117e7eff1d82e926ec794901d17c78024a50270940304540a733656f0d60405160405180910390a45b5050565b620003f3620005eb60201b60201c565b1562000436576040517f08c379a00000000000000000000000000000000000000000000000000000000081526004016200042d90620007a8565b60405180910390fd5b600760008473ffffffffffffffffffffffffffffffffffffffff1673ffffffffffffffffffffffffffffffffffffffff16815260200190815260200160002060009054906101000a900460ff1615620004c6576040517f08c379a0000000000000000000000000000000000000000000000000000000008152600401620004bd9062000764565b60405180910390fd5b600760008373ffffffffffffffffffffffffffffffffffffffff1673ffffffffffffffffffffffffffffffffffffffff16815260200190815260200160002060009054906101000a900460ff161562000556576040517f08c379a00000000000000000000000000000000000000000000000000000000081526004016200054d9062000786565b60405180910390fd5b6200056e8383836200060260201b62000d161760201c565b505050565b505050565b60006006600084815260200190815260200160002060000160008373ffffffffffffffffffffffffffffffffffffffff1673ffffffffffffffffffffffffffffffffffffffff16815260200190815260200160002060009054906101000a900460ff16905092915050565b600033905090565b6000600560009054906101000a900460ff16905090565b505050565b828054620006159062000a87565b90600052602060002090601f01602090048101928262000639576000855562000685565b82601f106200065457805160ff191683800117855562000685565b8280016001018555821562000685579182015b828111156200068457825182559160200191906001019062000667565b5b50905062000694919062000698565b5090565b5b80821115620006b357600081600090555060010162000699565b5090565b6000620006c660258362000809565b9150620006d38262000b28565b604082019050919050565b6000620006ed60278362000809565b9150620006fa8262000b77565b604082019050919050565b60006200071460108362000809565b9150620007218262000bc6565b602082019050919050565b60006200073b601f8362000809565b9150620007488262000bef565b602082019050919050565b6200075e8162000a70565b82525050565b600060208201905081810360008301526200077f81620006b7565b9050919050565b60006020820190508181036000830152620007a181620006de565b9050919050565b60006020820190508181036000830152620007c38162000705565b9050919050565b60006020820190508181036000830152620007e5816200072c565b9050919050565b600060208201905062000803600083018462000753565b92915050565b600082825260208201905092915050565b6000620008278262000a70565b9150620008348362000a70565b9250827fffffffffffffffffffffffffffffffffffffffffffffffffffffffffffffffff038211156200086c576200086b62000abd565b5b828201905092915050565b6000808291508390505b6001851115620008c957808604811115620008a157620008a062000abd565b5b6001851615620008b15780820291505b8081029050620008c18562000b1b565b945062000881565b94509492505050565b6000620008df8262000a70565b9150620008ec8362000a7a565b92506200091b7fffffffffffffffffffffffffffffffffffffffffffffffffffffffffffffffff848462000923565b905092915050565b60008262000935576001905062000a08565b8162000945576000905062000a08565b81600181146200095e576002811462000969576200099f565b600191505062000a08565b60ff8411156200097e576200097d62000abd565b5b8360020a91508482111562000998576200099762000abd565b5b5062000a08565b5060208310610133831016604e8410600b8410161715620009d95782820a905083811115620009d357620009d262000abd565b5b62000a08565b620009e8848484600162000877565b9250905081840481111562000a025762000a0162000abd565b5b81810290505b9392505050565b600062000a1c8262000a70565b915062000a298362000a70565b9250817fffffffffffffffffffffffffffffffffffffffffffffffffffffffffffffffff048311821515161562000a655762000a6462000abd565b5b828202905092915050565b6000819050919050565b600060ff82169050919050565b6000600282049050600182168062000aa057607f821691505b6020821081141562000ab75762000ab662000aec565b5b50919050565b7f4e487b7100000000000000000000000000000000000000000000000000000000600052601160045260246000fd5b7f4e487b7100000000000000000000000000000000000000000000000000000000600052602260045260246000fd5b60008160011c9050919050565b7f476f6c643a206163636f756e742073656e64657220776173206f6e20626c616360008201527f6b6c697374000000000000000000000000000000000000000000000000000000602082015250565b7f476f6c643a206163636f756e7420726563656976657220776173206f6e20626c60008201527f61636b6c69737400000000000000000000000000000000000000000000000000602082015250565b7f5061757361626c653a2070617573656400000000000000000000000000000000600082015250565b7f45524332303a206d696e7420746f20746865207a65726f206164647265737300600082015250565b6129e58062000c286000396000f3fe608060405234801561001057600080fd5b50600436106101585760003560e01c8063537df3b6116100c3578063a217fddf1161007c578063a217fddf146103c7578063a457c2d7146103e5578063a9059cbb14610415578063d547741f14610445578063dd62ed3e14610461578063e63ab1e91461049157610158565b8063537df3b6146103055780635c975abb1461032157806370a082311461033f5780638456cb591461036f57806391d148541461037957806395d89b41146103a957610158565b80632f2ff15d116101155780632f2ff15d14610259578063313ce5671461027557806336568abe1461029357806339509351146102af5780633f4ba83a146102df57806344337ea1146102e957610158565b806301ffc9a71461015d57806306fdde031461018d578063095ea7b3146101ab57806318160ddd146101db57806323b872dd146101f9578063248a9ca314610229575b600080fd5b61017760048036038101906101729190611c38565b6104af565b6040516101849190611fe1565b60405180910390f35b610195610529565b6040516101a29190612017565b60405180910390f35b6101c560048036038101906101c09190611b97565b6105bb565b6040516101d29190611fe1565b60405180910390f35b6101e36105de565b6040516101f09190612239565b60405180910390f35b610213600480360381019061020e9190611b48565b6105e8565b6040516102209190611fe1565b60405180910390f35b610243600480360381019061023e9190611bd3565b610617565b6040516102509190611ffc565b60405180910390f35b610273600480360381019061026e9190611bfc565b610637565b005b61027d610658565b60405161028a9190612254565b60405180910390f35b6102ad60048036038101906102a89190611bfc565b610661565b005b6102c960048036038101906102c49190611b97565b6106e4565b6040516102d69190611fe1565b60405180910390f35b6102e761071b565b005b61030360048036038101906102fe9190611ae3565b610750565b005b61031f600480360381019061031a9190611ae3565b6108ec565b005b610329610a18565b6040516103369190611fe1565b60405180910390f35b61035960048036038101906103549190611ae3565b610a2f565b6040516103669190612239565b60405180910390f35b610377610a77565b005b610393600480360381019061038e9190611bfc565b610aac565b6040516103a09190611fe1565b60405180910390f35b6103b1610b17565b6040516103be9190612017565b60405180910390f35b6103cf610ba9565b6040516103dc9190611ffc565b60405180910390f35b6103ff60048036038101906103fa9190611b97565b610bb0565b60405161040c9190611fe1565b60405180910390f35b61042f600480360381019061042a9190611b97565b610c27565b60405161043c9190611fe1565b60405180910390f35b61045f600480360381019061045a9190611bfc565b610c4a565b005b61047b60048036038101906104769190611b0c565b610c6b565b6040516104889190612239565b60405180910390f35b610499610cf2565b6040516104a69190611ffc565b60405180910390f35b60007f7965db0b000000000000000000000000000000000000000000000000000000007bffffffffffffffffffffffffffffffffffffffffffffffffffffffff1916827bffffffffffffffffffffffffffffffffffffffffffffffffffffffff19161480610522575061052182610d1b565b5b9050919050565b6060600380546105389061242e565b80601f01602080910402602001604051908101604052809291908181526020018280546105649061242e565b80156105b15780601f10610586576101008083540402835291602001916105b1565b820191906000526020600020905b81548152906001019060200180831161059457829003601f168201915b5050505050905090565b6000806105c6610d85565b90506105d3818585610d8d565b600191505092915050565b6000600254905090565b6000806105f3610d85565b9050610600858285610f58565b61060b858585610fe4565b60019150509392505050565b600060066000838152602001908152602001600020600101549050919050565b61064082610617565b61064981611265565b6106538383611279565b505050565b60006012905090565b610669610d85565b73ffffffffffffffffffffffffffffffffffffffff168173ffffffffffffffffffffffffffffffffffffffff16146106d6576040517f08c379a00000000000000000000000000000000000000000000000000000000081526004016106cd90612219565b60405180910390fd5b6106e0828261135a565b5050565b6000806106ef610d85565b90506107108185856107018589610c6b565b61070b9190612296565b610d8d565b600191505092915050565b7f65d7a28e3265b37a6474929f336521b332c1681b933f6cb9f3376673440d862a61074581611265565b61074d61143c565b50565b6000801b61075d81611265565b3373ffffffffffffffffffffffffffffffffffffffff168273ffffffffffffffffffffffffffffffffffffffff1614156107cc576040517f08c379a00000000000000000000000000000000000000000000000000000000081526004016107c390612119565b60405180910390fd5b600760008373ffffffffffffffffffffffffffffffffffffffff1673ffffffffffffffffffffffffffffffffffffffff16815260200190815260200160002060009054906101000a900460ff1615610859576040517f08c379a000000000000000000000000000000000000000000000000000000000815260040161085090612039565b60405180910390fd5b6001600760008473ffffffffffffffffffffffffffffffffffffffff1673ffffffffffffffffffffffffffffffffffffffff16815260200190815260200160002060006101000a81548160ff0219169083151502179055507f44d5fe68b00f68950fb9c1ff0a61ef7f747b1a36359a7e3a7f3324db4b878967826040516108e09190611fc6565b60405180910390a15050565b6000801b6108f981611265565b600760008373ffffffffffffffffffffffffffffffffffffffff1673ffffffffffffffffffffffffffffffffffffffff16815260200190815260200160002060009054906101000a900460ff16610985576040517f08c379a000000000000000000000000000000000000000000000000000000000815260040161097c90612199565b60405180910390fd5b6000600760008473ffffffffffffffffffffffffffffffffffffffff1673ffffffffffffffffffffffffffffffffffffffff16815260200190815260200160002060006101000a81548160ff0219169083151502179055507f1747ca720b1a174a464b6513ace29b1d3190b5f632b9f34147017c81425bfde882604051610a0c9190611fc6565b60405180910390a15050565b6000600560009054906101000a900460ff16905090565b60008060008373ffffffffffffffffffffffffffffffffffffffff1673ffffffffffffffffffffffffffffffffffffffff168152602001908152602001600020549050919050565b7f65d7a28e3265b37a6474929f336521b332c1681b933f6cb9f3376673440d862a610aa181611265565b610aa96114de565b50565b60006006600084815260200190815260200160002060000160008373ffffffffffffffffffffffffffffffffffffffff1673ffffffffffffffffffffffffffffffffffffffff16815260200190815260200160002060009054906101000a900460ff16905092915050565b606060048054610b269061242e565b80601f0160208091040260200160405190810160405280929190818152602001828054610b529061242e565b8015610b9f5780601f10610b7457610100808354040283529160200191610b9f565b820191906000526020600020905b815481529060010190602001808311610b8257829003601f168201915b5050505050905090565b6000801b81565b600080610bbb610d85565b90506000610bc98286610c6b565b905083811015610c0e576040517f08c379a0000000000000000000000000000000000000000000000000000000008152600401610c05906121f9565b60405180910390fd5b610c1b8286868403610d8d565b60019250505092915050565b600080610c32610d85565b9050610c3f818585610fe4565b600191505092915050565b610c5382610617565b610c5c81611265565b610c66838361135a565b505050565b6000600160008473ffffffffffffffffffffffffffffffffffffffff1673ffffffffffffffffffffffffffffffffffffffff16815260200190815260200160002060008373ffffffffffffffffffffffffffffffffffffffff1673ffffffffffffffffffffffffffffffffffffffff16815260200190815260200160002054905092915050565b7f65d7a28e3265b37a6474929f336521b332c1681b933f6cb9f3376673440d862a81565b505050565b60007f01ffc9a7000000000000000000000000000000000000000000000000000000007bffffffffffffffffffffffffffffffffffffffffffffffffffffffff1916827bffffffffffffffffffffffffffffffffffffffffffffffffffffffff1916149050919050565b600033905090565b600073ffffffffffffffffffffffffffffffffffffffff168373ffffffffffffffffffffffffffffffffffffffff161415610dfd576040517f08c379a0000000000000000000000000000000000000000000000000000000008152600401610df4906121d9565b60405180910390fd5b600073ffffffffffffffffffffffffffffffffffffffff168273ffffffffffffffffffffffffffffffffffffffff161415610e6d576040517f08c379a0000000000000000000000000000000000000000000000000000000008152600401610e64906120f9565b60405180910390fd5b80600160008573ffffffffffffffffffffffffffffffffffffffff1673ffffffffffffffffffffffffffffffffffffffff16815260200190815260200160002060008473ffffffffffffffffffffffffffffffffffffffff1673ffffffffffffffffffffffffffffffffffffffff168152602001908152602001600020819055508173ffffffffffffffffffffffffffffffffffffffff168373ffffffffffffffffffffffffffffffffffffffff167f8c5be1e5ebec7d5bd14f71427d1e84f3dd0314c0f7b2291e5b200ac8c7c3b92583604051610f4b9190612239565b60405180910390a3505050565b6000610f648484610c6b565b90507fffffffffffffffffffffffffffffffffffffffffffffffffffffffffffffffff8114610fde5781811015610fd0576040517f08c379a0000000000000000000000000000000000000000000000000000000008152600401610fc790612139565b60405180910390fd5b610fdd8484848403610d8d565b5b50505050565b600073ffffffffffffffffffffffffffffffffffffffff168373ffffffffffffffffffffffffffffffffffffffff161415611054576040517f08c379a000000000000000000000000000000000000000000000000000000000815260040161104b906121b9565b60405180910390fd5b600073ffffffffffffffffffffffffffffffffffffffff168273ffffffffffffffffffffffffffffffffffffffff1614156110c4576040517f08c379a00000000000000000000000000000000000000000000000000000000081526004016110bb90612099565b60405180910390fd5b6110cf838383611581565b60008060008573ffffffffffffffffffffffffffffffffffffffff1673ffffffffffffffffffffffffffffffffffffffff16815260200190815260200160002054905081811015611155576040517f08c379a000000000000000000000000000000000000000000000000000000000815260040161114c90612159565b60405180910390fd5b8181036000808673ffffffffffffffffffffffffffffffffffffffff1673ffffffffffffffffffffffffffffffffffffffff16815260200190815260200160002081905550816000808573ffffffffffffffffffffffffffffffffffffffff1673ffffffffffffffffffffffffffffffffffffffff16815260200190815260200160002060008282546111e89190612296565b925050819055508273ffffffffffffffffffffffffffffffffffffffff168473ffffffffffffffffffffffffffffffffffffffff167fddf252ad1be2c89b69c2b068fc378daa952ba7f163c4a11628f55a4df523b3ef8460405161124c9190612239565b60405180910390a361125f8484846116f3565b50505050565b61127681611271610d85565b6116f8565b50565b6112838282610aac565b6113565760016006600084815260200190815260200160002060000160008373ffffffffffffffffffffffffffffffffffffffff1673ffffffffffffffffffffffffffffffffffffffff16815260200190815260200160002060006101000a81548160ff0219169083151502179055506112fb610d85565b73ffffffffffffffffffffffffffffffffffffffff168173ffffffffffffffffffffffffffffffffffffffff16837f2f8788117e7eff1d82e926ec794901d17c78024a50270940304540a733656f0d60405160405180910390a45b5050565b6113648282610aac565b156114385760006006600084815260200190815260200160002060000160008373ffffffffffffffffffffffffffffffffffffffff1673ffffffffffffffffffffffffffffffffffffffff16815260200190815260200160002060006101000a81548160ff0219169083151502179055506113dd610d85565b73ffffffffffffffffffffffffffffffffffffffff168173ffffffffffffffffffffffffffffffffffffffff16837ff6391f5c32d9c69d2a47ea670b442974b53935d1edc7fd64eb21e047a839171b60405160405180910390a45b5050565b611444610a18565b611483576040517f08c379a000000000000000000000000000000000000000000000000000000000815260040161147a906120d9565b60405180910390fd5b6000600560006101000a81548160ff0219169083151502179055507f5db9ee0a495bf2e6ff9c91a7834c1ba4fdd244a5e8aa4e537bd38aeae4b073aa6114c7610d85565b6040516114d49190611fc6565b60405180910390a1565b6114e6610a18565b15611526576040517f08c379a000000000000000000000000000000000000000000000000000000000815260040161151d90612179565b60405180910390fd5b6001600560006101000a81548160ff0219169083151502179055507f62e78cea01bee320cd4e420270b5ea74000d11b0c9f74754ebdbfc544b05a25861156a610d85565b6040516115779190611fc6565b60405180910390a1565b611589610a18565b156115c9576040517f08c379a00000000000000000000000000000000000000000000000000000000081526004016115c090612179565b60405180910390fd5b600760008473ffffffffffffffffffffffffffffffffffffffff1673ffffffffffffffffffffffffffffffffffffffff16815260200190815260200160002060009054906101000a900460ff1615611656576040517f08c379a000000000000000000000000000000000000000000000000000000000815260040161164d90612059565b60405180910390fd5b600760008373ffffffffffffffffffffffffffffffffffffffff1673ffffffffffffffffffffffffffffffffffffffff16815260200190815260200160002060009054906101000a900460ff16156116e3576040517f08c379a00000000000000000000000000000000000000000000000000000000081526004016116da906120b9565b60405180910390fd5b6116ee838383610d16565b505050565b505050565b6117028282610aac565b611791576117278173ffffffffffffffffffffffffffffffffffffffff166014611795565b6117358360001c6020611795565b604051602001611746929190611f8c565b6040516020818303038152906040526040517f08c379a00000000000000000000000000000000000000000000000000000000081526004016117889190612017565b60405180910390fd5b5050565b6060600060028360026117a891906122ec565b6117b29190612296565b67ffffffffffffffff8111156117f1577f4e487b7100000000000000000000000000000000000000000000000000000000600052604160045260246000fd5b6040519080825280601f01601f1916602001820160405280156118235781602001600182028036833780820191505090505b5090507f300000000000000000000000000000000000000000000000000000000000000081600081518110611881577f4e487b7100000000000000000000000000000000000000000000000000000000600052603260045260246000fd5b60200101907effffffffffffffffffffffffffffffffffffffffffffffffffffffffffffff1916908160001a9053507f78000000000000000000000000000000000000000000000000000000000000008160018151811061190b577f4e487b7100000000000000000000000000000000000000000000000000000000600052603260045260246000fd5b60200101907effffffffffffffffffffffffffffffffffffffffffffffffffffffffffffff1916908160001a9053506000600184600261194b91906122ec565b6119559190612296565b90505b6001811115611a41577f3031323334353637383961626364656600000000000000000000000000000000600f8616601081106119bd577f4e487b7100000000000000000000000000000000000000000000000000000000600052603260045260246000fd5b1a60f81b8282815181106119fa577f4e487b7100000000000000000000000000000000000000000000000000000000600052603260045260246000fd5b60200101907effffffffffffffffffffffffffffffffffffffffffffffffffffffffffffff1916908160001a905350600485901c945080611a3a90612404565b9050611958565b5060008414611a85576040517f08c379a0000000000000000000000000000000000000000000000000000000008152600401611a7c90612079565b60405180910390fd5b8091505092915050565b600081359050611a9e81612953565b92915050565b600081359050611ab38161296a565b92915050565b600081359050611ac881612981565b92915050565b600081359050611add81612998565b92915050565b600060208284031215611af557600080fd5b6000611b0384828501611a8f565b91505092915050565b60008060408385031215611b1f57600080fd5b6000611b2d85828601611a8f565b9250506020611b3e85828601611a8f565b9150509250929050565b600080600060608486031215611b5d57600080fd5b6000611b6b86828701611a8f565b9350506020611b7c86828701611a8f565b9250506040611b8d86828701611ace565b9150509250925092565b60008060408385031215611baa57600080fd5b6000611bb885828601611a8f565b9250506020611bc985828601611ace565b9150509250929050565b600060208284031215611be557600080fd5b6000611bf384828501611aa4565b91505092915050565b60008060408385031215611c0f57600080fd5b6000611c1d85828601611aa4565b9250506020611c2e85828601611a8f565b9150509250929050565b600060208284031215611c4a57600080fd5b6000611c5884828501611ab9565b91505092915050565b611c6a81612346565b82525050565b611c7981612358565b82525050565b611c8881612364565b82525050565b6000611c998261226f565b611ca3818561227a565b9350611cb38185602086016123d1565b611cbc816124be565b840191505092915050565b6000611cd28261226f565b611cdc818561228b565b9350611cec8185602086016123d1565b80840191505092915050565b6000611d05601e8361227a565b9150611d10826124cf565b602082019050919050565b6000611d2860258361227a565b9150611d33826124f8565b604082019050919050565b6000611d4b60208361227a565b9150611d5682612547565b602082019050919050565b6000611d6e60238361227a565b9150611d7982612570565b604082019050919050565b6000611d9160278361227a565b9150611d9c826125bf565b604082019050919050565b6000611db460148361227a565b9150611dbf8261260e565b602082019050919050565b6000611dd760228361227a565b9150611de282612637565b604082019050919050565b6000611dfa60268361227a565b9150611e0582612686565b604082019050919050565b6000611e1d601d8361227a565b9150611e28826126d5565b602082019050919050565b6000611e4060268361227a565b9150611e4b826126fe565b604082019050919050565b6000611e6360108361227a565b9150611e6e8261274d565b602082019050919050565b6000611e8660228361227a565b9150611e9182612776565b604082019050919050565b6000611ea960258361227a565b9150611eb4826127c5565b604082019050919050565b6000611ecc60248361227a565b9150611ed782612814565b604082019050919050565b6000611eef60178361228b565b9150611efa82612863565b601782019050919050565b6000611f1260258361227a565b9150611f1d8261288c565b604082019050919050565b6000611f3560118361228b565b9150611f40826128db565b601182019050919050565b6000611f58602f8361227a565b9150611f6382612904565b604082019050919050565b611f77816123ba565b82525050565b611f86816123c4565b82525050565b6000611f9782611ee2565b9150611fa38285611cc7565b9150611fae82611f28565b9150611fba8284611cc7565b91508190509392505050565b6000602082019050611fdb6000830184611c61565b92915050565b6000602082019050611ff66000830184611c70565b92915050565b60006020820190506120116000830184611c7f565b92915050565b600060208201905081810360008301526120318184611c8e565b905092915050565b6000602082019050818103600083015261205281611cf8565b9050919050565b6000602082019050818103600083015261207281611d1b565b9050919050565b6000602082019050818103600083015261209281611d3e565b9050919050565b600060208201905081810360008301526120b281611d61565b9050919050565b600060208201905081810360008301526120d281611d84565b9050919050565b600060208201905081810360008301526120f281611da7565b9050919050565b6000602082019050818103600083015261211281611dca565b9050919050565b6000602082019050818103600083015261213281611ded565b9050919050565b6000602082019050818103600083015261215281611e10565b9050919050565b6000602082019050818103600083015261217281611e33565b9050919050565b6000602082019050818103600083015261219281611e56565b9050919050565b600060208201905081810360008301526121b281611e79565b9050919050565b600060208201905081810360008301526121d281611e9c565b9050919050565b600060208201905081810360008301526121f281611ebf565b9050919050565b6000602082019050818103600083015261221281611f05565b9050919050565b6000602082019050818103600083015261223281611f4b565b9050919050565b600060208201905061224e6000830184611f6e565b92915050565b60006020820190506122696000830184611f7d565b92915050565b600081519050919050565b600082825260208201905092915050565b600081905092915050565b60006122a1826123ba565b91506122ac836123ba565b9250827fffffffffffffffffffffffffffffffffffffffffffffffffffffffffffffffff038211156122e1576122e0612460565b5b828201905092915050565b60006122f7826123ba565b9150612302836123ba565b9250817fffffffffffffffffffffffffffffffffffffffffffffffffffffffffffffffff048311821515161561233b5761233a612460565b5b828202905092915050565b60006123518261239a565b9050919050565b60008115159050919050565b6000819050919050565b60007fffffffff0000000000000000000000000000000000000000000000000000000082169050919050565b600073ffffffffffffffffffffffffffffffffffffffff82169050919050565b6000819050919050565b600060ff82169050919050565b60005b838110156123ef5780820151818401526020810190506123d4565b838111156123fe576000848401525b50505050565b600061240f826123ba565b9150600082141561242357612422612460565b5b600182039050919050565b6000600282049050600182168061244657607f821691505b6020821081141561245a5761245961248f565b5b50919050565b7f4e487b7100000000000000000000000000000000000000000000000000000000600052601160045260246000fd5b7f4e487b7100000000000000000000000000000000000000000000000000000000600052602260045260246000fd5b6000601f19601f8301169050919050565b7f476f6c643a206163636f756e7420776173206f6e20626c61636b6c6973740000600082015250565b7f476f6c643a206163636f756e742073656e64657220776173206f6e20626c616360008201527f6b6c697374000000000000000000000000000000000000000000000000000000602082015250565b7f537472696e67733a20686578206c656e67746820696e73756666696369656e74600082015250565b7f45524332303a207472616e7366657220746f20746865207a65726f206164647260008201527f6573730000000000000000000000000000000000000000000000000000000000602082015250565b7f476f6c643a206163636f756e7420726563656976657220776173206f6e20626c60008201527f61636b6c69737400000000000000000000000000000000000000000000000000602082015250565b7f5061757361626c653a206e6f7420706175736564000000000000000000000000600082015250565b7f45524332303a20617070726f766520746f20746865207a65726f20616464726560008201527f7373000000000000000000000000000000000000000000000000000000000000602082015250565b7f476f6c643a206d757374206e6f74206164642073656e64657220746f20626c6160008201527f636b6c6973740000000000000000000000000000000000000000000000000000602082015250565b7f45524332303a20696e73756666696369656e7420616c6c6f77616e6365000000600082015250565b7f45524332303a207472616e7366657220616d6f756e742065786365656473206260008201527f616c616e63650000000000000000000000000000000000000000000000000000602082015250565b7f5061757361626c653a2070617573656400000000000000000000000000000000600082015250565b7f476f6c643a206163636f756e7420776173206e6f74206f6e20626c61636b6c6960008201527f7374000000000000000000000000000000000000000000000000000000000000602082015250565b7f45524332303a207472616e736665722066726f6d20746865207a65726f20616460008201527f6472657373000000000000000000000000000000000000000000000000000000602082015250565b7f45524332303a20617070726f76652066726f6d20746865207a65726f2061646460008201527f7265737300000000000000000000000000000000000000000000000000000000602082015250565b7f416363657373436f6e74726f6c3a206163636f756e7420000000000000000000600082015250565b7f45524332303a2064656372656173656420616c6c6f77616e63652062656c6f7760008201527f207a65726f000000000000000000000000000000000000000000000000000000602082015250565b7f206973206d697373696e6720726f6c6520000000000000000000000000000000600082015250565b7f416363657373436f6e74726f6c3a2063616e206f6e6c792072656e6f756e636560008201527f20726f6c657320666f722073656c660000000000000000000000000000000000602082015250565b61295c81612346565b811461296757600080fd5b50565b61297381612364565b811461297e57600080fd5b50565b61298a8161236e565b811461299557600080fd5b50565b6129a1816123ba565b81146129ac57600080fd5b5056fea26469706673582212207d6121f01f23225eb4fdcc087b373682317041a9180943d831e215d6f29b7b9664736f6c63430008040033",
  "linkReferences": {},
  "deployedLinkReferences": {}
}