{
  "_format": "hh-sol-artifact-1",
  "contractName": "PettyGachaWaitingTime",
  "sourceName": "contracts/tokenNFT/PettyGachaWaitingTime.sol",
  "abi": [
    {
      "inputs": [
        {
          "internalType": "address",
          "name": "goldAddress_",
          "type": "address"
        }
      ],
      "stateMutability": "nonpayable",
      "type": "constructor"
    },
    {
      "anonymous": false,
      "inputs": [
        {
          "indexed": true,
          "internalType": "address",
          "name": "owner",
          "type": "address"
        },
        {
          "indexed": true,
          "internalType": "address",
          "name": "approved",
          "type": "address"
        },
        {
          "indexed": true,
          "internalType": "uint256",
          "name": "tokenId",
          "type": "uint256"
        }
      ],
      "name": "Approval",
      "type": "event"
    },
    {
      "anonymous": false,
      "inputs": [
        {
          "indexed": true,
          "internalType": "address",
          "name": "owner",
          "type": "address"
        },
        {
          "indexed": true,
          "internalType": "address",
          "name": "operator",
          "type": "address"
        },
        {
          "indexed": false,
          "internalType": "bool",
          "name": "approved",
          "type": "bool"
        }
      ],
      "name": "ApprovalForAll",
      "type": "event"
    },
    {
      "anonymous": false,
      "inputs": [
        {
          "indexed": true,
          "internalType": "address",
          "name": "_caller",
          "type": "address"
        },
        {
          "indexed": false,
          "internalType": "uint256",
          "name": "newTokenId_",
          "type": "uint256"
        }
      ],
      "name": "ClaimBreedPetties",
      "type": "event"
    },
    {
      "anonymous": false,
      "inputs": [
        {
          "indexed": true,
          "internalType": "address",
          "name": "_caller",
          "type": "address"
        },
        {
          "indexed": false,
          "internalType": "uint8",
          "name": "_gachaId",
          "type": "uint8"
        },
        {
          "indexed": true,
          "internalType": "uint256",
          "name": "_price",
          "type": "uint256"
        }
      ],
      "name": "OpenGacha",
      "type": "event"
    },
    {
      "anonymous": false,
      "inputs": [
        {
          "indexed": true,
          "internalType": "address",
          "name": "previousOwner",
          "type": "address"
        },
        {
          "indexed": true,
          "internalType": "address",
          "name": "newOwner",
          "type": "address"
        }
      ],
      "name": "OwnershipTransferred",
      "type": "event"
    },
    {
      "anonymous": false,
      "inputs": [
        {
          "indexed": true,
          "internalType": "address",
          "name": "_caller",
          "type": "address"
        },
        {
          "indexed": false,
          "internalType": "uint256",
          "name": "tokeId1",
          "type": "uint256"
        },
        {
          "indexed": false,
          "internalType": "uint256",
          "name": "tokenId2",
          "type": "uint256"
        },
        {
          "indexed": false,
          "internalType": "uint256",
          "name": "newTokenId_",
          "type": "uint256"
        },
        {
          "indexed": false,
          "internalType": "uint256",
          "name": "timeToClaim",
          "type": "uint256"
        }
      ],
      "name": "RequestBreedPetties",
      "type": "event"
    },
    {
      "anonymous": false,
      "inputs": [
        {
          "indexed": true,
          "internalType": "address",
          "name": "from",
          "type": "address"
        },
        {
          "indexed": true,
          "internalType": "address",
          "name": "to",
          "type": "address"
        },
        {
          "indexed": true,
          "internalType": "uint256",
          "name": "tokenId",
          "type": "uint256"
        }
      ],
      "name": "Transfer",
      "type": "event"
    },
    {
      "inputs": [
        {
          "internalType": "uint256",
          "name": "",
          "type": "uint256"
        }
      ],
      "name": "_PettyWaitingTime",
      "outputs": [
        {
          "internalType": "uint256",
          "name": "startingTime",
          "type": "uint256"
        },
        {
          "internalType": "uint256",
          "name": "endingTime",
          "type": "uint256"
        },
        {
          "internalType": "bool",
          "name": "isClaimed",
          "type": "bool"
        },
        {
          "internalType": "uint8",
          "name": "rank",
          "type": "uint8"
        }
      ],
      "stateMutability": "view",
      "type": "function"
    },
    {
      "inputs": [
        {
          "internalType": "uint256",
          "name": "",
          "type": "uint256"
        }
      ],
      "name": "_RequestBreedPettiesForAddress",
      "outputs": [
        {
          "internalType": "address",
          "name": "",
          "type": "address"
        }
      ],
      "stateMutability": "view",
      "type": "function"
    },
    {
      "inputs": [
        {
          "internalType": "uint256",
          "name": "gachaId_",
          "type": "uint256"
        }
      ],
      "name": "_generateRandomRank",
      "outputs": [
        {
          "internalType": "uint8",
          "name": "",
          "type": "uint8"
        }
      ],
      "stateMutability": "view",
      "type": "function"
    },
    {
      "inputs": [
        {
          "internalType": "uint256",
          "name": "",
          "type": "uint256"
        }
      ],
      "name": "_idToGacha",
      "outputs": [
        {
          "internalType": "uint256",
          "name": "price",
          "type": "uint256"
        }
      ],
      "stateMutability": "view",
      "type": "function"
    },
    {
      "inputs": [
        {
          "internalType": "uint256",
          "name": "",
          "type": "uint256"
        }
      ],
      "name": "_tokenIdToPetty",
      "outputs": [
        {
          "internalType": "uint8",
          "name": "rank",
          "type": "uint8"
        },
        {
          "internalType": "uint8",
          "name": "stat",
          "type": "uint8"
        }
      ],
      "stateMutability": "view",
      "type": "function"
    },
    {
      "inputs": [
        {
          "internalType": "uint256",
          "name": "",
          "type": "uint256"
        }
      ],
      "name": "_waitingTimeForRank",
      "outputs": [
        {
          "internalType": "uint256",
          "name": "",
          "type": "uint256"
        }
      ],
      "stateMutability": "view",
      "type": "function"
    },
    {
      "inputs": [
        {
          "internalType": "address",
          "name": "to",
          "type": "address"
        },
        {
          "internalType": "uint256",
          "name": "tokenId",
          "type": "uint256"
        }
      ],
      "name": "approve",
      "outputs": [],
      "stateMutability": "nonpayable",
      "type": "function"
    },
    {
      "inputs": [
        {
          "internalType": "address",
          "name": "owner",
          "type": "address"
        }
      ],
      "name": "balanceOf",
      "outputs": [
        {
          "internalType": "uint256",
          "name": "",
          "type": "uint256"
        }
      ],
      "stateMutability": "view",
      "type": "function"
    },
    {
      "inputs": [
        {
          "internalType": "uint256",
          "name": "tokenId_",
          "type": "uint256"
        }
      ],
      "name": "claimBreedPetties",
      "outputs": [],
      "stateMutability": "nonpayable",
      "type": "function"
    },
    {
      "inputs": [
        {
          "internalType": "uint256",
          "name": "tokenId",
          "type": "uint256"
        }
      ],
      "name": "getApproved",
      "outputs": [
        {
          "internalType": "address",
          "name": "",
          "type": "address"
        }
      ],
      "stateMutability": "view",
      "type": "function"
    },
    {
      "inputs": [],
      "name": "gold",
      "outputs": [
        {
          "internalType": "contract IERC20",
          "name": "",
          "type": "address"
        }
      ],
      "stateMutability": "view",
      "type": "function"
    },
    {
      "inputs": [
        {
          "internalType": "address",
          "name": "owner",
          "type": "address"
        },
        {
          "internalType": "address",
          "name": "operator",
          "type": "address"
        }
      ],
      "name": "isApprovedForAll",
      "outputs": [
        {
          "internalType": "bool",
          "name": "",
          "type": "bool"
        }
      ],
      "stateMutability": "view",
      "type": "function"
    },
    {
      "inputs": [],
      "name": "name",
      "outputs": [
        {
          "internalType": "string",
          "name": "",
          "type": "string"
        }
      ],
      "stateMutability": "view",
      "type": "function"
    },
    {
      "inputs": [
        {
          "internalType": "uint8",
          "name": "gachaId_",
          "type": "uint8"
        },
        {
          "internalType": "uint256",
          "name": "price_",
          "type": "uint256"
        }
      ],
      "name": "openGacha",
      "outputs": [
        {
          "internalType": "uint256",
          "name": "",
          "type": "uint256"
        }
      ],
      "stateMutability": "nonpayable",
      "type": "function"
    },
    {
      "inputs": [],
      "name": "owner",
      "outputs": [
        {
          "internalType": "address",
          "name": "",
          "type": "address"
        }
      ],
      "stateMutability": "view",
      "type": "function"
    },
    {
      "inputs": [
        {
          "internalType": "uint256",
          "name": "tokenId",
          "type": "uint256"
        }
      ],
      "name": "ownerOf",
      "outputs": [
        {
          "internalType": "address",
          "name": "",
          "type": "address"
        }
      ],
      "stateMutability": "view",
      "type": "function"
    },
    {
      "inputs": [
        {
          "internalType": "uint256",
          "name": "",
          "type": "uint256"
        }
      ],
      "name": "ranks",
      "outputs": [
        {
          "internalType": "uint8",
          "name": "",
          "type": "uint8"
        }
      ],
      "stateMutability": "view",
      "type": "function"
    },
    {
      "inputs": [],
      "name": "renounceOwnership",
      "outputs": [],
      "stateMutability": "nonpayable",
      "type": "function"
    },
    {
      "inputs": [
        {
          "internalType": "uint256",
          "name": "tokenId1_",
          "type": "uint256"
        },
        {
          "internalType": "uint256",
          "name": "tokenId2_",
          "type": "uint256"
        }
      ],
      "name": "requestBreedPetties",
      "outputs": [
        {
          "internalType": "uint256",
          "name": "",
          "type": "uint256"
        },
        {
          "internalType": "uint256",
          "name": "",
          "type": "uint256"
        }
      ],
      "stateMutability": "nonpayable",
      "type": "function"
    },
    {
      "inputs": [
        {
          "internalType": "address",
          "name": "from",
          "type": "address"
        },
        {
          "internalType": "address",
          "name": "to",
          "type": "address"
        },
        {
          "internalType": "uint256",
          "name": "tokenId",
          "type": "uint256"
        }
      ],
      "name": "safeTransferFrom",
      "outputs": [],
      "stateMutability": "nonpayable",
      "type": "function"
    },
    {
      "inputs": [
        {
          "internalType": "address",
          "name": "from",
          "type": "address"
        },
        {
          "internalType": "address",
          "name": "to",
          "type": "address"
        },
        {
          "internalType": "uint256",
          "name": "tokenId",
          "type": "uint256"
        },
        {
          "internalType": "bytes",
          "name": "_data",
          "type": "bytes"
        }
      ],
      "name": "safeTransferFrom",
      "outputs": [],
      "stateMutability": "nonpayable",
      "type": "function"
    },
    {
      "inputs": [
        {
          "internalType": "address",
          "name": "operator",
          "type": "address"
        },
        {
          "internalType": "bool",
          "name": "approved",
          "type": "bool"
        }
      ],
      "name": "setApprovalForAll",
      "outputs": [],
      "stateMutability": "nonpayable",
      "type": "function"
    },
    {
      "inputs": [
        {
          "internalType": "bytes4",
          "name": "interfaceId",
          "type": "bytes4"
        }
      ],
      "name": "supportsInterface",
      "outputs": [
        {
          "internalType": "bool",
          "name": "",
          "type": "bool"
        }
      ],
      "stateMutability": "view",
      "type": "function"
    },
    {
      "inputs": [],
      "name": "symbol",
      "outputs": [
        {
          "internalType": "string",
          "name": "",
          "type": "string"
        }
      ],
      "stateMutability": "view",
      "type": "function"
    },
    {
      "inputs": [
        {
          "internalType": "uint256",
          "name": "tokenId",
          "type": "uint256"
        }
      ],
      "name": "tokenURI",
      "outputs": [
        {
          "internalType": "string",
          "name": "",
          "type": "string"
        }
      ],
      "stateMutability": "view",
      "type": "function"
    },
    {
      "inputs": [
        {
          "internalType": "address",
          "name": "from",
          "type": "address"
        },
        {
          "internalType": "address",
          "name": "to",
          "type": "address"
        },
        {
          "internalType": "uint256",
          "name": "tokenId",
          "type": "uint256"
        }
      ],
      "name": "transferFrom",
      "outputs": [],
      "stateMutability": "nonpayable",
      "type": "function"
    },
    {
      "inputs": [
        {
          "internalType": "address",
          "name": "newOwner",
          "type": "address"
        }
      ],
      "name": "transferOwnership",
      "outputs": [],
      "stateMutability": "nonpayable",
      "type": "function"
    }
  ],
  "bytecode": "0x60a06040526040518060600160405280600160ff168152602001600260ff168152602001600360ff16815250600a9060036200003d929190620004b6565b503480156200004b57600080fd5b50604051620049f5380380620049f583398181016040528101906200007191906200061e565b6040518060400160405280600581526020017f50657474790000000000000000000000000000000000000000000000000000008152506040518060400160405280600381526020017f50455400000000000000000000000000000000000000000000000000000000008152508160009080519060200190620000f592919062000557565b5080600190805190602001906200010e92919062000557565b5050506200013162000125620003c460201b60201c565b620003cc60201b60201c565b8073ffffffffffffffffffffffffffffffffffffffff1660808173ffffffffffffffffffffffffffffffffffffffff1660601b815250506200017f60086200049260201b62001af61760201c565b604051806040016040528068056bc75e2d6310000081526020016040518060600160405280603c60ff168152602001602860ff168152602001600060ff16815250815250600b6000620001de6008620004a860201b62001b0c1760201c565b8152602001908152602001600020600082015181600001556020820151816001019060036200020f929190620004b6565b509050506200022a60086200049260201b62001af61760201c565b6040518060400160405280680ad78ebc5ac620000081526020016040518060600160405280601e60ff168152602001603260ff168152602001601460ff16815250815250600b6000620002896008620004a860201b62001b0c1760201c565b815260200190815260200160002060008201518160000155602082015181600101906003620002ba929190620004b6565b50905050620002d560086200049260201b62001af61760201c565b6040518060400160405280681043561a882930000081526020016040518060600160405280600a60ff168152602001602860ff168152602001603260ff16815250815250600b6000620003346008620004a860201b62001b0c1760201c565b81526020019081526020016000206000820151816000015560208201518160010190600362000365929190620004b6565b5090505062015180600d6000600181526020019081526020016000208190555062015180600d600060028152602001908152602001600020819055506203f480600d6000600381526020019081526020016000208190555050620006fd565b600033905090565b6000600660009054906101000a900473ffffffffffffffffffffffffffffffffffffffff16905081600660006101000a81548173ffffffffffffffffffffffffffffffffffffffff021916908373ffffffffffffffffffffffffffffffffffffffff1602179055508173ffffffffffffffffffffffffffffffffffffffff168173ffffffffffffffffffffffffffffffffffffffff167f8be0079c531659141344cd1fd0a4f28419497f9722a3daafe3b4186f6b6457e060405160405180910390a35050565b6001816000016000828254019250508190555050565b600081600001549050919050565b826003601f01602090048101928215620005445791602002820160005b838211156200051357835183826101000a81548160ff021916908360ff1602179055509260200192600101602081600001049283019260010302620004d3565b8015620005425782816101000a81549060ff021916905560010160208160000104928301926001030262000513565b505b509050620005539190620005e8565b5090565b82805462000565906200067e565b90600052602060002090601f016020900481019282620005895760008555620005d5565b82601f10620005a457805160ff1916838001178555620005d5565b82800160010185558215620005d5579182015b82811115620005d4578251825591602001919060010190620005b7565b5b509050620005e49190620005e8565b5090565b5b8082111562000603576000816000905550600101620005e9565b5090565b6000815190506200061881620006e3565b92915050565b6000602082840312156200063157600080fd5b6000620006418482850162000607565b91505092915050565b600062000657826200065e565b9050919050565b600073ffffffffffffffffffffffffffffffffffffffff82169050919050565b600060028204905060018216806200069757607f821691505b60208210811415620006ae57620006ad620006b4565b5b50919050565b7f4e487b7100000000000000000000000000000000000000000000000000000000600052602260045260246000fd5b620006ee816200064a565b8114620006fa57600080fd5b50565b60805160601c6142d262000723600039600081816110900152611ad401526142d26000f3fe608060405234801561001057600080fd5b50600436106101a95760003560e01c806390a10d9e116100f9578063df927bbe11610097578063eb793eaa11610071578063eb793eaa1461052f578063f2fde38b1461055f578063f9c9949b1461057b578063fbec6f21146105ab576101a9565b8063df927bbe1461049e578063e0489e34146104ce578063e985e9c5146104ff576101a9565b8063a8666104116100d3578063a8666104146103ee578063aa0ffb3414610421578063b88d4fde14610452578063c87b56dd1461046e576101a9565b806390a10d9e1461038457806395d89b41146103b4578063a22cb465146103d2576101a9565b806342842e0e1161016657806370a082311161014057806370a08231146102fc578063715018a61461032c5780638da5cb5b146103365780638f40bf7f14610354576101a9565b806342842e0e1461029457806353866218146102b05780636352211e146102cc576101a9565b806301ffc9a7146101ae57806306fdde03146101de578063081812fc146101fc578063095ea7b31461022c57806318ff30a91461024857806323b872dd14610278575b600080fd5b6101c860048036038101906101c39190612bcf565b6105c9565b6040516101d59190613248565b60405180910390f35b6101e66106ab565b6040516101f3919061327e565b60405180910390f35b61021660048036038101906102119190612c21565b61073d565b60405161022391906131aa565b60405180910390f35b61024660048036038101906102419190612b6a565b6107c2565b005b610262600480360381019061025d9190612c21565b6108da565b60405161026f9190613649565b60405180910390f35b610292600480360381019061028d9190612a64565b610ab8565b005b6102ae60048036038101906102a99190612a64565b610b18565b005b6102ca60048036038101906102c59190612c21565b610b38565b005b6102e660048036038101906102e19190612c21565b610da2565b6040516102f391906131aa565b60405180910390f35b610316600480360381019061031191906129ff565b610e54565b60405161032391906135c0565b60405180910390f35b610334610f0c565b005b61033e610f94565b60405161034b91906131aa565b60405180910390f35b61036e60048036038101906103699190612c21565b610fbe565b60405161037b91906135c0565b60405180910390f35b61039e60048036038101906103999190612c86565b610fd6565b6040516103ab91906135c0565b60405180910390f35b6103bc6111fd565b6040516103c9919061327e565b60405180910390f35b6103ec60048036038101906103e79190612b2e565b61128f565b005b61040860048036038101906104039190612c21565b6112a5565b6040516104189493929190613604565b60405180910390f35b61043b60048036038101906104369190612c4a565b6112ef565b6040516104499291906135db565b60405180910390f35b61046c60048036038101906104679190612ab3565b611784565b005b61048860048036038101906104839190612c21565b6117e6565b604051610495919061327e565b60405180910390f35b6104b860048036038101906104b39190612c21565b61188d565b6040516104c59190613649565b60405180910390f35b6104e860048036038101906104e39190612c21565b6118b7565b6040516104f6929190613664565b60405180910390f35b61051960048036038101906105149190612a28565b6118f5565b6040516105269190613248565b60405180910390f35b61054960048036038101906105449190612c21565b611989565b60405161055691906131aa565b60405180910390f35b610579600480360381019061057491906129ff565b6119bc565b005b61059560048036038101906105909190612c21565b611ab4565b6040516105a291906135c0565b60405180910390f35b6105b3611ad2565b6040516105c09190613263565b60405180910390f35b60007f80ac58cd000000000000000000000000000000000000000000000000000000007bffffffffffffffffffffffffffffffffffffffffffffffffffffffff1916827bffffffffffffffffffffffffffffffffffffffffffffffffffffffff1916148061069457507f5b5e139f000000000000000000000000000000000000000000000000000000007bffffffffffffffffffffffffffffffffffffffffffffffffffffffff1916827bffffffffffffffffffffffffffffffffffffffffffffffffffffffff1916145b806106a457506106a382611b1a565b5b9050919050565b6060600080546106ba906138ff565b80601f01602080910402602001604051908101604052809291908181526020018280546106e6906138ff565b80156107335780601f1061070857610100808354040283529160200191610733565b820191906000526020600020905b81548152906001019060200180831161071657829003601f168201915b5050505050905090565b600061074882611b84565b610787576040517f08c379a000000000000000000000000000000000000000000000000000000000815260040161077e906134c0565b60405180910390fd5b6004600083815260200190815260200160002060009054906101000a900473ffffffffffffffffffffffffffffffffffffffff169050919050565b60006107cd82610da2565b90508073ffffffffffffffffffffffffffffffffffffffff168373ffffffffffffffffffffffffffffffffffffffff16141561083e576040517f08c379a000000000000000000000000000000000000000000000000000000000815260040161083590613540565b60405180910390fd5b8073ffffffffffffffffffffffffffffffffffffffff1661085d611bf0565b73ffffffffffffffffffffffffffffffffffffffff16148061088c575061088b81610886611bf0565b6118f5565b5b6108cb576040517f08c379a00000000000000000000000000000000000000000000000000000000081526004016108c290613400565b60405180910390fd5b6108d58383611bf8565b505050565b60008060644244336040516020016108f49392919061316d565b6040516020818303038152906040528051906020012060001c61091791906139d9565b90506000600b600085815260200190815260200160002060405180604001604052908160008201548152602001600182016003806020026040519081016040528092919082600380156109a5576020028201916000905b82829054906101000a900460ff1660ff168152602001906001019060208260000104928301926001038202915080841161096e5790505b505050505081525050905080602001516000600381106109ee577f4e487b7100000000000000000000000000000000000000000000000000000000600052603260045260246000fd5b602002015160ff16821015610a0857600192505050610ab3565b8060200151600160038110610a46577f4e487b7100000000000000000000000000000000000000000000000000000000600052603260045260246000fd5b60200201518160200151600060038110610a89577f4e487b7100000000000000000000000000000000000000000000000000000000600052603260045260246000fd5b6020020151610a98919061377c565b60ff168210610aac57600392505050610ab3565b6002925050505b919050565b610ac9610ac3611bf0565b82611cb1565b610b08576040517f08c379a0000000000000000000000000000000000000000000000000000000008152600401610aff90613560565b60405180910390fd5b610b13838383611d8f565b505050565b610b3383838360405180602001604052806000815250611784565b505050565b600e6000828152602001908152602001600020600101544211610b90576040517f08c379a0000000000000000000000000000000000000000000000000000000008152600401610b87906133a0565b60405180910390fd5b60001515600e600083815260200190815260200160002060020160009054906101000a900460ff16151514610bfa576040517f08c379a0000000000000000000000000000000000000000000000000000000008152600401610bf190613480565b60405180910390fd5b610c02611bf0565b73ffffffffffffffffffffffffffffffffffffffff16600f600083815260200190815260200160002060009054906101000a900473ffffffffffffffffffffffffffffffffffffffff1673ffffffffffffffffffffffffffffffffffffffff1614610ca2576040517f08c379a0000000000000000000000000000000000000000000000000000000008152600401610c9990613460565b60405180910390fd5b610cb3610cad611bf0565b82611ff6565b6040518060400160405280600e600084815260200190815260200160002060020160019054906101000a900460ff1660ff168152602001600060ff16815250600c600083815260200190815260200160002060008201518160000160006101000a81548160ff021916908360ff16021790555060208201518160000160016101000a81548160ff021916908360ff160217905550905050610d52611bf0565b73ffffffffffffffffffffffffffffffffffffffff167fffaa275f4a6fecef6da006ca3835409ed5e2a7120a039e4467bd4cd0803b50dc82604051610d9791906135c0565b60405180910390a250565b6000806002600084815260200190815260200160002060009054906101000a900473ffffffffffffffffffffffffffffffffffffffff169050600073ffffffffffffffffffffffffffffffffffffffff168173ffffffffffffffffffffffffffffffffffffffff161415610e4b576040517f08c379a0000000000000000000000000000000000000000000000000000000008152600401610e4290613440565b60405180910390fd5b80915050919050565b60008073ffffffffffffffffffffffffffffffffffffffff168273ffffffffffffffffffffffffffffffffffffffff161415610ec5576040517f08c379a0000000000000000000000000000000000000000000000000000000008152600401610ebc90613420565b60405180910390fd5b600360008373ffffffffffffffffffffffffffffffffffffffff1673ffffffffffffffffffffffffffffffffffffffff168152602001908152602001600020549050919050565b610f14611bf0565b73ffffffffffffffffffffffffffffffffffffffff16610f32610f94565b73ffffffffffffffffffffffffffffffffffffffff1614610f88576040517f08c379a0000000000000000000000000000000000000000000000000000000008152600401610f7f906134e0565b60405180910390fd5b610f9260006121d0565b565b6000600660009054906101000a900473ffffffffffffffffffffffffffffffffffffffff16905090565b600d6020528060005260406000206000915090505481565b600080600b60008560ff1681526020019081526020016000206000015411611033576040517f08c379a000000000000000000000000000000000000000000000000000000000815260040161102a90613520565b60405180910390fd5b600b60008460ff16815260200190815260200160002060000154821461108e576040517f08c379a000000000000000000000000000000000000000000000000000000000815260040161108590613340565b60405180910390fd5b7f000000000000000000000000000000000000000000000000000000000000000073ffffffffffffffffffffffffffffffffffffffff166323b872dd6110d2611bf0565b30856040518463ffffffff1660e01b81526004016110f2939291906131c5565b602060405180830381600087803b15801561110c57600080fd5b505af1158015611120573d6000803e3d6000fd5b505050506040513d601f19601f820116820180604052508101906111449190612ba6565b5061114f6007611af6565b600061115b6007611b0c565b9050600061116b8560ff166108da565b905061117e611178611bf0565b83611ff6565b60405180604001604052808260ff168152602001600060ff16815250600c600084815260200190815260200160002060008201518160000160006101000a81548160ff021916908360ff16021790555060208201518160000160016101000a81548160ff021916908360ff160217905550905050819250505092915050565b60606001805461120c906138ff565b80601f0160208091040260200160405190810160405280929190818152602001828054611238906138ff565b80156112855780601f1061125a57610100808354040283529160200191611285565b820191906000526020600020905b81548152906001019060200180831161126857829003601f168201915b5050505050905090565b6112a161129a611bf0565b8383612296565b5050565b600e6020528060005260406000206000915090508060000154908060010154908060020160009054906101000a900460ff16908060020160019054906101000a900460ff16905084565b6000806112fa611bf0565b73ffffffffffffffffffffffffffffffffffffffff1661131985610da2565b73ffffffffffffffffffffffffffffffffffffffff16148015611376575061133f611bf0565b73ffffffffffffffffffffffffffffffffffffffff1661135e84610da2565b73ffffffffffffffffffffffffffffffffffffffff16145b6113b5576040517f08c379a00000000000000000000000000000000000000000000000000000000081526004016113ac906133c0565b60405180910390fd5b3073ffffffffffffffffffffffffffffffffffffffff166113d58561073d565b73ffffffffffffffffffffffffffffffffffffffff1614801561142b57503073ffffffffffffffffffffffffffffffffffffffff166114138461073d565b73ffffffffffffffffffffffffffffffffffffffff16145b80611443575061144261143c611bf0565b306118f5565b5b611482576040517f08c379a000000000000000000000000000000000000000000000000000000000815260040161147990613580565b60405180910390fd5b600c600084815260200190815260200160002060000160009054906101000a900460ff1660ff16600c600086815260200190815260200160002060000160009054906101000a900460ff1660ff1614611510576040517f08c379a000000000000000000000000000000000000000000000000000000000815260040161150790613320565b60405180910390fd5b6003600c600086815260200190815260200160002060000160009054906101000a900460ff1660ff1610611579576040517f08c379a0000000000000000000000000000000000000000000000000000000008152600401611570906135a0565b60405180910390fd5b60006001600c600087815260200190815260200160002060000160009054906101000a900460ff166115ab919061377c565b90506115b685612403565b6115bf84612403565b600c6000868152602001908152602001600020600080820160006101000a81549060ff02191690556000820160016101000a81549060ff02191690555050600c6000858152602001908152602001600020600080820160006101000a81549060ff02191690556000820160016101000a81549060ff021916905550506116456007611af6565b60006116516007611b0c565b90506040518060800160405280428152602001600d60008560ff16815260200190815260200160002054426116869190613726565b81526020016000151581526020018360ff16815250600e6000838152602001908152602001600020600082015181600001556020820151816001015560408201518160020160006101000a81548160ff02191690831515021790555060608201518160020160016101000a81548160ff021916908360ff16021790555090505061170e611bf0565b600f600083815260200190815260200160002060006101000a81548173ffffffffffffffffffffffffffffffffffffffff021916908373ffffffffffffffffffffffffffffffffffffffff160217905550600d60008360ff16815260200190815260200160002054819350935050509250929050565b61179561178f611bf0565b83611cb1565b6117d4576040517f08c379a00000000000000000000000000000000000000000000000000000000081526004016117cb90613560565b60405180910390fd5b6117e084848484612520565b50505050565b60606117f182611b84565b611830576040517f08c379a000000000000000000000000000000000000000000000000000000000815260040161182790613500565b60405180910390fd5b600061183a61257c565b9050600081511161185a5760405180602001604052806000815250611885565b8061186484612593565b604051602001611875929190613149565b6040516020818303038152906040525b915050919050565b600a816003811061189d57600080fd5b60209182820401919006915054906101000a900460ff1681565b600c6020528060005260406000206000915090508060000160009054906101000a900460ff16908060000160019054906101000a900460ff16905082565b6000600560008473ffffffffffffffffffffffffffffffffffffffff1673ffffffffffffffffffffffffffffffffffffffff16815260200190815260200160002060008373ffffffffffffffffffffffffffffffffffffffff1673ffffffffffffffffffffffffffffffffffffffff16815260200190815260200160002060009054906101000a900460ff16905092915050565b600f6020528060005260406000206000915054906101000a900473ffffffffffffffffffffffffffffffffffffffff1681565b6119c4611bf0565b73ffffffffffffffffffffffffffffffffffffffff166119e2610f94565b73ffffffffffffffffffffffffffffffffffffffff1614611a38576040517f08c379a0000000000000000000000000000000000000000000000000000000008152600401611a2f906134e0565b60405180910390fd5b600073ffffffffffffffffffffffffffffffffffffffff168173ffffffffffffffffffffffffffffffffffffffff161415611aa8576040517f08c379a0000000000000000000000000000000000000000000000000000000008152600401611a9f906132c0565b60405180910390fd5b611ab1816121d0565b50565b600b6020528060005260406000206000915090508060000154905081565b7f000000000000000000000000000000000000000000000000000000000000000081565b6001816000016000828254019250508190555050565b600081600001549050919050565b60007f01ffc9a7000000000000000000000000000000000000000000000000000000007bffffffffffffffffffffffffffffffffffffffffffffffffffffffff1916827bffffffffffffffffffffffffffffffffffffffffffffffffffffffff1916149050919050565b60008073ffffffffffffffffffffffffffffffffffffffff166002600084815260200190815260200160002060009054906101000a900473ffffffffffffffffffffffffffffffffffffffff1673ffffffffffffffffffffffffffffffffffffffff1614159050919050565b600033905090565b816004600083815260200190815260200160002060006101000a81548173ffffffffffffffffffffffffffffffffffffffff021916908373ffffffffffffffffffffffffffffffffffffffff160217905550808273ffffffffffffffffffffffffffffffffffffffff16611c6b83610da2565b73ffffffffffffffffffffffffffffffffffffffff167f8c5be1e5ebec7d5bd14f71427d1e84f3dd0314c0f7b2291e5b200ac8c7c3b92560405160405180910390a45050565b6000611cbc82611b84565b611cfb576040517f08c379a0000000000000000000000000000000000000000000000000000000008152600401611cf2906133e0565b60405180910390fd5b6000611d0683610da2565b90508073ffffffffffffffffffffffffffffffffffffffff168473ffffffffffffffffffffffffffffffffffffffff161480611d7557508373ffffffffffffffffffffffffffffffffffffffff16611d5d8461073d565b73ffffffffffffffffffffffffffffffffffffffff16145b80611d865750611d8581856118f5565b5b91505092915050565b8273ffffffffffffffffffffffffffffffffffffffff16611daf82610da2565b73ffffffffffffffffffffffffffffffffffffffff1614611e05576040517f08c379a0000000000000000000000000000000000000000000000000000000008152600401611dfc906132e0565b60405180910390fd5b600073ffffffffffffffffffffffffffffffffffffffff168273ffffffffffffffffffffffffffffffffffffffff161415611e75576040517f08c379a0000000000000000000000000000000000000000000000000000000008152600401611e6c90613360565b60405180910390fd5b611e80838383612740565b611e8b600082611bf8565b6001600360008573ffffffffffffffffffffffffffffffffffffffff1673ffffffffffffffffffffffffffffffffffffffff1681526020019081526020016000206000828254611edb91906137e4565b925050819055506001600360008473ffffffffffffffffffffffffffffffffffffffff1673ffffffffffffffffffffffffffffffffffffffff1681526020019081526020016000206000828254611f329190613726565b92505081905550816002600083815260200190815260200160002060006101000a81548173ffffffffffffffffffffffffffffffffffffffff021916908373ffffffffffffffffffffffffffffffffffffffff160217905550808273ffffffffffffffffffffffffffffffffffffffff168473ffffffffffffffffffffffffffffffffffffffff167fddf252ad1be2c89b69c2b068fc378daa952ba7f163c4a11628f55a4df523b3ef60405160405180910390a4611ff1838383612745565b505050565b600073ffffffffffffffffffffffffffffffffffffffff168273ffffffffffffffffffffffffffffffffffffffff161415612066576040517f08c379a000000000000000000000000000000000000000000000000000000000815260040161205d906134a0565b60405180910390fd5b61206f81611b84565b156120af576040517f08c379a00000000000000000000000000000000000000000000000000000000081526004016120a690613300565b60405180910390fd5b6120bb60008383612740565b6001600360008473ffffffffffffffffffffffffffffffffffffffff1673ffffffffffffffffffffffffffffffffffffffff168152602001908152602001600020600082825461210b9190613726565b92505081905550816002600083815260200190815260200160002060006101000a81548173ffffffffffffffffffffffffffffffffffffffff021916908373ffffffffffffffffffffffffffffffffffffffff160217905550808273ffffffffffffffffffffffffffffffffffffffff16600073ffffffffffffffffffffffffffffffffffffffff167fddf252ad1be2c89b69c2b068fc378daa952ba7f163c4a11628f55a4df523b3ef60405160405180910390a46121cc60008383612745565b5050565b6000600660009054906101000a900473ffffffffffffffffffffffffffffffffffffffff16905081600660006101000a81548173ffffffffffffffffffffffffffffffffffffffff021916908373ffffffffffffffffffffffffffffffffffffffff1602179055508173ffffffffffffffffffffffffffffffffffffffff168173ffffffffffffffffffffffffffffffffffffffff167f8be0079c531659141344cd1fd0a4f28419497f9722a3daafe3b4186f6b6457e060405160405180910390a35050565b8173ffffffffffffffffffffffffffffffffffffffff168373ffffffffffffffffffffffffffffffffffffffff161415612305576040517f08c379a00000000000000000000000000000000000000000000000000000000081526004016122fc90613380565b60405180910390fd5b80600560008573ffffffffffffffffffffffffffffffffffffffff1673ffffffffffffffffffffffffffffffffffffffff16815260200190815260200160002060008473ffffffffffffffffffffffffffffffffffffffff1673ffffffffffffffffffffffffffffffffffffffff16815260200190815260200160002060006101000a81548160ff0219169083151502179055508173ffffffffffffffffffffffffffffffffffffffff168373ffffffffffffffffffffffffffffffffffffffff167f17307eab39ab6107e8899845ad3d59bd9653f200f220920489ca2b5937696c31836040516123f69190613248565b60405180910390a3505050565b600061240e82610da2565b905061241c81600084612740565b612427600083611bf8565b6001600360008373ffffffffffffffffffffffffffffffffffffffff1673ffffffffffffffffffffffffffffffffffffffff168152602001908152602001600020600082825461247791906137e4565b925050819055506002600083815260200190815260200160002060006101000a81549073ffffffffffffffffffffffffffffffffffffffff021916905581600073ffffffffffffffffffffffffffffffffffffffff168273ffffffffffffffffffffffffffffffffffffffff167fddf252ad1be2c89b69c2b068fc378daa952ba7f163c4a11628f55a4df523b3ef60405160405180910390a461251c81600084612745565b5050565b61252b848484611d8f565b6125378484848461274a565b612576576040517f08c379a000000000000000000000000000000000000000000000000000000000815260040161256d906132a0565b60405180910390fd5b50505050565b606060405180602001604052806000815250905090565b606060008214156125db576040518060400160405280600181526020017f3000000000000000000000000000000000000000000000000000000000000000815250905061273b565b600082905060005b6000821461260d5780806125f690613962565b915050600a8261260691906137b3565b91506125e3565b60008167ffffffffffffffff81111561264f577f4e487b7100000000000000000000000000000000000000000000000000000000600052604160045260246000fd5b6040519080825280601f01601f1916602001820160405280156126815781602001600182028036833780820191505090505b5090505b600085146127345760018261269a91906137e4565b9150600a856126a991906139d9565b60306126b59190613726565b60f81b8183815181106126f1577f4e487b7100000000000000000000000000000000000000000000000000000000600052603260045260246000fd5b60200101907effffffffffffffffffffffffffffffffffffffffffffffffffffffffffffff1916908160001a905350600a8561272d91906137b3565b9450612685565b8093505050505b919050565b505050565b505050565b600061276b8473ffffffffffffffffffffffffffffffffffffffff166128e1565b156128d4578373ffffffffffffffffffffffffffffffffffffffff1663150b7a02612794611bf0565b8786866040518563ffffffff1660e01b81526004016127b694939291906131fc565b602060405180830381600087803b1580156127d057600080fd5b505af192505050801561280157506040513d601f19601f820116820180604052508101906127fe9190612bf8565b60015b612884573d8060008114612831576040519150601f19603f3d011682016040523d82523d6000602084013e612836565b606091505b5060008151141561287c576040517f08c379a0000000000000000000000000000000000000000000000000000000008152600401612873906132a0565b60405180910390fd5b805181602001fd5b63150b7a0260e01b7bffffffffffffffffffffffffffffffffffffffffffffffffffffffff1916817bffffffffffffffffffffffffffffffffffffffffffffffffffffffff1916149150506128d9565b600190505b949350505050565b6000808273ffffffffffffffffffffffffffffffffffffffff163b119050919050565b6000612917612912846136b2565b61368d565b90508281526020810184848401111561292f57600080fd5b61293a8482856138bd565b509392505050565b60008135905061295181614229565b92915050565b60008135905061296681614240565b92915050565b60008151905061297b81614240565b92915050565b60008135905061299081614257565b92915050565b6000815190506129a581614257565b92915050565b600082601f8301126129bc57600080fd5b81356129cc848260208601612904565b91505092915050565b6000813590506129e48161426e565b92915050565b6000813590506129f981614285565b92915050565b600060208284031215612a1157600080fd5b6000612a1f84828501612942565b91505092915050565b60008060408385031215612a3b57600080fd5b6000612a4985828601612942565b9250506020612a5a85828601612942565b9150509250929050565b600080600060608486031215612a7957600080fd5b6000612a8786828701612942565b9350506020612a9886828701612942565b9250506040612aa9868287016129d5565b9150509250925092565b60008060008060808587031215612ac957600080fd5b6000612ad787828801612942565b9450506020612ae887828801612942565b9350506040612af9878288016129d5565b925050606085013567ffffffffffffffff811115612b1657600080fd5b612b22878288016129ab565b91505092959194509250565b60008060408385031215612b4157600080fd5b6000612b4f85828601612942565b9250506020612b6085828601612957565b9150509250929050565b60008060408385031215612b7d57600080fd5b6000612b8b85828601612942565b9250506020612b9c858286016129d5565b9150509250929050565b600060208284031215612bb857600080fd5b6000612bc68482850161296c565b91505092915050565b600060208284031215612be157600080fd5b6000612bef84828501612981565b91505092915050565b600060208284031215612c0a57600080fd5b6000612c1884828501612996565b91505092915050565b600060208284031215612c3357600080fd5b6000612c41848285016129d5565b91505092915050565b60008060408385031215612c5d57600080fd5b6000612c6b858286016129d5565b9250506020612c7c858286016129d5565b9150509250929050565b60008060408385031215612c9957600080fd5b6000612ca7858286016129ea565b9250506020612cb8858286016129d5565b9150509250929050565b612ccb81613818565b82525050565b612ce2612cdd82613818565b6139ab565b82525050565b612cf18161382a565b82525050565b6000612d02826136e3565b612d0c81856136f9565b9350612d1c8185602086016138cc565b612d2581613ac6565b840191505092915050565b612d3981613899565b82525050565b6000612d4a826136ee565b612d54818561370a565b9350612d648185602086016138cc565b612d6d81613ac6565b840191505092915050565b6000612d83826136ee565b612d8d818561371b565b9350612d9d8185602086016138cc565b80840191505092915050565b6000612db660328361370a565b9150612dc182613ae4565b604082019050919050565b6000612dd960268361370a565b9150612de482613b33565b604082019050919050565b6000612dfc60258361370a565b9150612e0782613b82565b604082019050919050565b6000612e1f601c8361370a565b9150612e2a82613bd1565b602082019050919050565b6000612e42603b8361370a565b9150612e4d82613bfa565b604082019050919050565b6000612e6560268361370a565b9150612e7082613c49565b604082019050919050565b6000612e8860248361370a565b9150612e9382613c98565b604082019050919050565b6000612eab60198361370a565b9150612eb682613ce7565b602082019050919050565b6000612ece60268361370a565b9150612ed982613d10565b604082019050919050565b6000612ef160338361370a565b9150612efc82613d5f565b604082019050919050565b6000612f14602c8361370a565b9150612f1f82613dae565b604082019050919050565b6000612f3760388361370a565b9150612f4282613dfd565b604082019050919050565b6000612f5a602a8361370a565b9150612f6582613e4c565b604082019050919050565b6000612f7d60298361370a565b9150612f8882613e9b565b604082019050919050565b6000612fa0602c8361370a565b9150612fab82613eea565b604082019050919050565b6000612fc360358361370a565b9150612fce82613f39565b604082019050919050565b6000612fe660208361370a565b9150612ff182613f88565b602082019050919050565b6000613009602c8361370a565b915061301482613fb1565b604082019050919050565b600061302c60208361370a565b915061303782614000565b602082019050919050565b600061304f602f8361370a565b915061305a82614029565b604082019050919050565b600061307260248361370a565b915061307d82614078565b604082019050919050565b600061309560218361370a565b91506130a0826140c7565b604082019050919050565b60006130b860318361370a565b91506130c382614116565b604082019050919050565b60006130db604b8361370a565b91506130e682614165565b606082019050919050565b60006130fe60338361370a565b9150613109826141da565b604082019050919050565b61311d81613882565b82525050565b61313461312f82613882565b6139cf565b82525050565b6131438161388c565b82525050565b60006131558285612d78565b91506131618284612d78565b91508190509392505050565b60006131798286613123565b6020820191506131898285613123565b6020820191506131998284612cd1565b601482019150819050949350505050565b60006020820190506131bf6000830184612cc2565b92915050565b60006060820190506131da6000830186612cc2565b6131e76020830185612cc2565b6131f46040830184613114565b949350505050565b60006080820190506132116000830187612cc2565b61321e6020830186612cc2565b61322b6040830185613114565b818103606083015261323d8184612cf7565b905095945050505050565b600060208201905061325d6000830184612ce8565b92915050565b60006020820190506132786000830184612d30565b92915050565b600060208201905081810360008301526132988184612d3f565b905092915050565b600060208201905081810360008301526132b981612da9565b9050919050565b600060208201905081810360008301526132d981612dcc565b9050919050565b600060208201905081810360008301526132f981612def565b9050919050565b6000602082019050818103600083015261331981612e12565b9050919050565b6000602082019050818103600083015261333981612e35565b9050919050565b6000602082019050818103600083015261335981612e58565b9050919050565b6000602082019050818103600083015261337981612e7b565b9050919050565b6000602082019050818103600083015261339981612e9e565b9050919050565b600060208201905081810360008301526133b981612ec1565b9050919050565b600060208201905081810360008301526133d981612ee4565b9050919050565b600060208201905081810360008301526133f981612f07565b9050919050565b6000602082019050818103600083015261341981612f2a565b9050919050565b6000602082019050818103600083015261343981612f4d565b9050919050565b6000602082019050818103600083015261345981612f70565b9050919050565b6000602082019050818103600083015261347981612f93565b9050919050565b6000602082019050818103600083015261349981612fb6565b9050919050565b600060208201905081810360008301526134b981612fd9565b9050919050565b600060208201905081810360008301526134d981612ffc565b9050919050565b600060208201905081810360008301526134f98161301f565b9050919050565b6000602082019050818103600083015261351981613042565b9050919050565b6000602082019050818103600083015261353981613065565b9050919050565b6000602082019050818103600083015261355981613088565b9050919050565b60006020820190508181036000830152613579816130ab565b9050919050565b60006020820190508181036000830152613599816130ce565b9050919050565b600060208201905081810360008301526135b9816130f1565b9050919050565b60006020820190506135d56000830184613114565b92915050565b60006040820190506135f06000830185613114565b6135fd6020830184613114565b9392505050565b60006080820190506136196000830187613114565b6136266020830186613114565b6136336040830185612ce8565b613640606083018461313a565b95945050505050565b600060208201905061365e600083018461313a565b92915050565b6000604082019050613679600083018561313a565b613686602083018461313a565b9392505050565b60006136976136a8565b90506136a38282613931565b919050565b6000604051905090565b600067ffffffffffffffff8211156136cd576136cc613a97565b5b6136d682613ac6565b9050602081019050919050565b600081519050919050565b600081519050919050565b600082825260208201905092915050565b600082825260208201905092915050565b600081905092915050565b600061373182613882565b915061373c83613882565b9250827fffffffffffffffffffffffffffffffffffffffffffffffffffffffffffffffff0382111561377157613770613a0a565b5b828201905092915050565b60006137878261388c565b91506137928361388c565b92508260ff038211156137a8576137a7613a0a565b5b828201905092915050565b60006137be82613882565b91506137c983613882565b9250826137d9576137d8613a39565b5b828204905092915050565b60006137ef82613882565b91506137fa83613882565b92508282101561380d5761380c613a0a565b5b828203905092915050565b600061382382613862565b9050919050565b60008115159050919050565b60007fffffffff0000000000000000000000000000000000000000000000000000000082169050919050565b600073ffffffffffffffffffffffffffffffffffffffff82169050919050565b6000819050919050565b600060ff82169050919050565b60006138a4826138ab565b9050919050565b60006138b682613862565b9050919050565b82818337600083830152505050565b60005b838110156138ea5780820151818401526020810190506138cf565b838111156138f9576000848401525b50505050565b6000600282049050600182168061391757607f821691505b6020821081141561392b5761392a613a68565b5b50919050565b61393a82613ac6565b810181811067ffffffffffffffff8211171561395957613958613a97565b5b80604052505050565b600061396d82613882565b91507fffffffffffffffffffffffffffffffffffffffffffffffffffffffffffffffff8214156139a05761399f613a0a565b5b600182019050919050565b60006139b6826139bd565b9050919050565b60006139c882613ad7565b9050919050565b6000819050919050565b60006139e482613882565b91506139ef83613882565b9250826139ff576139fe613a39565b5b828206905092915050565b7f4e487b7100000000000000000000000000000000000000000000000000000000600052601160045260246000fd5b7f4e487b7100000000000000000000000000000000000000000000000000000000600052601260045260246000fd5b7f4e487b7100000000000000000000000000000000000000000000000000000000600052602260045260246000fd5b7f4e487b7100000000000000000000000000000000000000000000000000000000600052604160045260246000fd5b6000601f19601f8301169050919050565b60008160601b9050919050565b7f4552433732313a207472616e7366657220746f206e6f6e20455243373231526560008201527f63656976657220696d706c656d656e7465720000000000000000000000000000602082015250565b7f4f776e61626c653a206e6577206f776e657220697320746865207a65726f206160008201527f6464726573730000000000000000000000000000000000000000000000000000602082015250565b7f4552433732313a207472616e736665722066726f6d20696e636f72726563742060008201527f6f776e6572000000000000000000000000000000000000000000000000000000602082015250565b7f4552433732313a20746f6b656e20616c7265616479206d696e74656400000000600082015250565b7f5065747479476163686157616974696e6754696d653a2074776f20706574746960008201527f657320617265206e6f7420696e207468652073616d652072616e6b0000000000602082015250565b7f5065747479476163686157616974696e6754696d653a207072696365206e6f7460008201527f206d617463680000000000000000000000000000000000000000000000000000602082015250565b7f4552433732313a207472616e7366657220746f20746865207a65726f2061646460008201527f7265737300000000000000000000000000000000000000000000000000000000602082015250565b7f4552433732313a20617070726f766520746f2063616c6c657200000000000000600082015250565b7f5065747479476163686157616974696e6754696d653a204e6f7420656e6f756760008201527f682074696d650000000000000000000000000000000000000000000000000000602082015250565b7f5065747479476163686157616974696e6754696d653a2073656e64657220697360008201527f206e6f74206f776e6572206f6620746f6b656e00000000000000000000000000602082015250565b7f4552433732313a206f70657261746f7220717565727920666f72206e6f6e657860008201527f697374656e7420746f6b656e0000000000000000000000000000000000000000602082015250565b7f4552433732313a20617070726f76652063616c6c6572206973206e6f74206f7760008201527f6e6572206e6f7220617070726f76656420666f7220616c6c0000000000000000602082015250565b7f4552433732313a2062616c616e636520717565727920666f7220746865207a6560008201527f726f206164647265737300000000000000000000000000000000000000000000602082015250565b7f4552433732313a206f776e657220717565727920666f72206e6f6e657869737460008201527f656e7420746f6b656e0000000000000000000000000000000000000000000000602082015250565b7f5065747479476163686157616974696e6754696d653a20596f7520617265206e60008201527f6f7420746865206f776e65720000000000000000000000000000000000000000602082015250565b7f5065747479476163686157616974696e6754696d653a2054686973207065747460008201527f7920697320616c64726561647920636c61696d65640000000000000000000000602082015250565b7f4552433732313a206d696e7420746f20746865207a65726f2061646472657373600082015250565b7f4552433732313a20617070726f76656420717565727920666f72206e6f6e657860008201527f697374656e7420746f6b656e0000000000000000000000000000000000000000602082015250565b7f4f776e61626c653a2063616c6c6572206973206e6f7420746865206f776e6572600082015250565b7f4552433732314d657461646174613a2055524920717565727920666f72206e6f60008201527f6e6578697374656e7420746f6b656e0000000000000000000000000000000000602082015250565b7f5065747479476163686157616974696e6754696d653a20696e76616c6964206760008201527f6163686100000000000000000000000000000000000000000000000000000000602082015250565b7f4552433732313a20617070726f76616c20746f2063757272656e74206f776e6560008201527f7200000000000000000000000000000000000000000000000000000000000000602082015250565b7f4552433732313a207472616e736665722063616c6c6572206973206e6f74206f60008201527f776e6572206e6f7220617070726f766564000000000000000000000000000000602082015250565b7f5065747479476163686157616974696e6754696d653a205468697320636f6e7460008201527f72616374206973206e6f7420617574686f72697a656420746f206d616e61676560208201527f207468697320746f6b656e000000000000000000000000000000000000000000604082015250565b7f5065747479476163686157616974696e6754696d653a2070657474792069732060008201527f696e2074686520686967686573742072616e6b00000000000000000000000000602082015250565b61423281613818565b811461423d57600080fd5b50565b6142498161382a565b811461425457600080fd5b50565b61426081613836565b811461426b57600080fd5b50565b61427781613882565b811461428257600080fd5b50565b61428e8161388c565b811461429957600080fd5b5056fea26469706673582212203bbebeaba7b82de8014a9687f3e3554554d484e5127798bc85bdaf34cd09e85864736f6c63430008040033",
  "linkReferences": {},
  "deployedLinkReferences": {}
}