{
  "_format": "hh-sol-artifact-1",
  "contractName": "PettyGacha",
  "sourceName": "contracts/tokenNFT/PettyGacha.sol",
  "abi": [
    {
      "inputs": [
        {
          "internalType": "address",
          "name": "goldAddress_",
          "type": "address"
        }
      ],
      "stateMutability": "nonpayable",
      "type": "constructor"
    },
    {
      "anonymous": false,
      "inputs": [
        {
          "indexed": true,
          "internalType": "address",
          "name": "owner",
          "type": "address"
        },
        {
          "indexed": true,
          "internalType": "address",
          "name": "approved",
          "type": "address"
        },
        {
          "indexed": true,
          "internalType": "uint256",
          "name": "tokenId",
          "type": "uint256"
        }
      ],
      "name": "Approval",
      "type": "event"
    },
    {
      "anonymous": false,
      "inputs": [
        {
          "indexed": true,
          "internalType": "address",
          "name": "owner",
          "type": "address"
        },
        {
          "indexed": true,
          "internalType": "address",
          "name": "operator",
          "type": "address"
        },
        {
          "indexed": false,
          "internalType": "bool",
          "name": "approved",
          "type": "bool"
        }
      ],
      "name": "ApprovalForAll",
      "type": "event"
    },
    {
      "anonymous": false,
      "inputs": [
        {
          "indexed": true,
          "internalType": "address",
          "name": "previousOwner",
          "type": "address"
        },
        {
          "indexed": true,
          "internalType": "address",
          "name": "newOwner",
          "type": "address"
        }
      ],
      "name": "OwnershipTransferred",
      "type": "event"
    },
    {
      "anonymous": false,
      "inputs": [
        {
          "indexed": true,
          "internalType": "address",
          "name": "from",
          "type": "address"
        },
        {
          "indexed": true,
          "internalType": "address",
          "name": "to",
          "type": "address"
        },
        {
          "indexed": true,
          "internalType": "uint256",
          "name": "tokenId",
          "type": "uint256"
        }
      ],
      "name": "Transfer",
      "type": "event"
    },
    {
      "inputs": [
        {
          "internalType": "uint256",
          "name": "gachaId_",
          "type": "uint256"
        }
      ],
      "name": "_generateRandomRank",
      "outputs": [
        {
          "internalType": "uint8",
          "name": "",
          "type": "uint8"
        }
      ],
      "stateMutability": "view",
      "type": "function"
    },
    {
      "inputs": [
        {
          "internalType": "uint256",
          "name": "",
          "type": "uint256"
        }
      ],
      "name": "_idToGacha",
      "outputs": [
        {
          "internalType": "uint256",
          "name": "price",
          "type": "uint256"
        }
      ],
      "stateMutability": "view",
      "type": "function"
    },
    {
      "inputs": [
        {
          "internalType": "uint256",
          "name": "",
          "type": "uint256"
        }
      ],
      "name": "_tokenIdToPetty",
      "outputs": [
        {
          "internalType": "uint8",
          "name": "rank",
          "type": "uint8"
        },
        {
          "internalType": "uint8",
          "name": "stat",
          "type": "uint8"
        }
      ],
      "stateMutability": "view",
      "type": "function"
    },
    {
      "inputs": [
        {
          "internalType": "address",
          "name": "to",
          "type": "address"
        },
        {
          "internalType": "uint256",
          "name": "tokenId",
          "type": "uint256"
        }
      ],
      "name": "approve",
      "outputs": [],
      "stateMutability": "nonpayable",
      "type": "function"
    },
    {
      "inputs": [
        {
          "internalType": "address",
          "name": "owner",
          "type": "address"
        }
      ],
      "name": "balanceOf",
      "outputs": [
        {
          "internalType": "uint256",
          "name": "",
          "type": "uint256"
        }
      ],
      "stateMutability": "view",
      "type": "function"
    },
    {
      "inputs": [
        {
          "internalType": "uint256",
          "name": "tokenId1_",
          "type": "uint256"
        },
        {
          "internalType": "uint256",
          "name": "tokenId2_",
          "type": "uint256"
        }
      ],
      "name": "breedPetties",
      "outputs": [],
      "stateMutability": "nonpayable",
      "type": "function"
    },
    {
      "inputs": [
        {
          "internalType": "uint256",
          "name": "tokenId",
          "type": "uint256"
        }
      ],
      "name": "getApproved",
      "outputs": [
        {
          "internalType": "address",
          "name": "",
          "type": "address"
        }
      ],
      "stateMutability": "view",
      "type": "function"
    },
    {
      "inputs": [],
      "name": "gold",
      "outputs": [
        {
          "internalType": "contract IERC20",
          "name": "",
          "type": "address"
        }
      ],
      "stateMutability": "view",
      "type": "function"
    },
    {
      "inputs": [
        {
          "internalType": "address",
          "name": "owner",
          "type": "address"
        },
        {
          "internalType": "address",
          "name": "operator",
          "type": "address"
        }
      ],
      "name": "isApprovedForAll",
      "outputs": [
        {
          "internalType": "bool",
          "name": "",
          "type": "bool"
        }
      ],
      "stateMutability": "view",
      "type": "function"
    },
    {
      "inputs": [],
      "name": "name",
      "outputs": [
        {
          "internalType": "string",
          "name": "",
          "type": "string"
        }
      ],
      "stateMutability": "view",
      "type": "function"
    },
    {
      "inputs": [
        {
          "internalType": "uint8",
          "name": "gachaId_",
          "type": "uint8"
        },
        {
          "internalType": "uint256",
          "name": "price_",
          "type": "uint256"
        }
      ],
      "name": "openGacha",
      "outputs": [
        {
          "internalType": "uint256",
          "name": "",
          "type": "uint256"
        }
      ],
      "stateMutability": "nonpayable",
      "type": "function"
    },
    {
      "inputs": [],
      "name": "owner",
      "outputs": [
        {
          "internalType": "address",
          "name": "",
          "type": "address"
        }
      ],
      "stateMutability": "view",
      "type": "function"
    },
    {
      "inputs": [
        {
          "internalType": "uint256",
          "name": "tokenId",
          "type": "uint256"
        }
      ],
      "name": "ownerOf",
      "outputs": [
        {
          "internalType": "address",
          "name": "",
          "type": "address"
        }
      ],
      "stateMutability": "view",
      "type": "function"
    },
    {
      "inputs": [
        {
          "internalType": "uint256",
          "name": "",
          "type": "uint256"
        }
      ],
      "name": "ranks",
      "outputs": [
        {
          "internalType": "uint8",
          "name": "",
          "type": "uint8"
        }
      ],
      "stateMutability": "view",
      "type": "function"
    },
    {
      "inputs": [],
      "name": "renounceOwnership",
      "outputs": [],
      "stateMutability": "nonpayable",
      "type": "function"
    },
    {
      "inputs": [
        {
          "internalType": "address",
          "name": "from",
          "type": "address"
        },
        {
          "internalType": "address",
          "name": "to",
          "type": "address"
        },
        {
          "internalType": "uint256",
          "name": "tokenId",
          "type": "uint256"
        }
      ],
      "name": "safeTransferFrom",
      "outputs": [],
      "stateMutability": "nonpayable",
      "type": "function"
    },
    {
      "inputs": [
        {
          "internalType": "address",
          "name": "from",
          "type": "address"
        },
        {
          "internalType": "address",
          "name": "to",
          "type": "address"
        },
        {
          "internalType": "uint256",
          "name": "tokenId",
          "type": "uint256"
        },
        {
          "internalType": "bytes",
          "name": "_data",
          "type": "bytes"
        }
      ],
      "name": "safeTransferFrom",
      "outputs": [],
      "stateMutability": "nonpayable",
      "type": "function"
    },
    {
      "inputs": [
        {
          "internalType": "address",
          "name": "operator",
          "type": "address"
        },
        {
          "internalType": "bool",
          "name": "approved",
          "type": "bool"
        }
      ],
      "name": "setApprovalForAll",
      "outputs": [],
      "stateMutability": "nonpayable",
      "type": "function"
    },
    {
      "inputs": [
        {
          "internalType": "bytes4",
          "name": "interfaceId",
          "type": "bytes4"
        }
      ],
      "name": "supportsInterface",
      "outputs": [
        {
          "internalType": "bool",
          "name": "",
          "type": "bool"
        }
      ],
      "stateMutability": "view",
      "type": "function"
    },
    {
      "inputs": [],
      "name": "symbol",
      "outputs": [
        {
          "internalType": "string",
          "name": "",
          "type": "string"
        }
      ],
      "stateMutability": "view",
      "type": "function"
    },
    {
      "inputs": [
        {
          "internalType": "uint256",
          "name": "tokenId",
          "type": "uint256"
        }
      ],
      "name": "tokenURI",
      "outputs": [
        {
          "internalType": "string",
          "name": "",
          "type": "string"
        }
      ],
      "stateMutability": "view",
      "type": "function"
    },
    {
      "inputs": [
        {
          "internalType": "address",
          "name": "from",
          "type": "address"
        },
        {
          "internalType": "address",
          "name": "to",
          "type": "address"
        },
        {
          "internalType": "uint256",
          "name": "tokenId",
          "type": "uint256"
        }
      ],
      "name": "transferFrom",
      "outputs": [],
      "stateMutability": "nonpayable",
      "type": "function"
    },
    {
      "inputs": [
        {
          "internalType": "address",
          "name": "newOwner",
          "type": "address"
        }
      ],
      "name": "transferOwnership",
      "outputs": [],
      "stateMutability": "nonpayable",
      "type": "function"
    }
  ],
  "bytecode": "0x60a06040526040518060600160405280600160ff168152602001600260ff168152602001600360ff16815250600a9060036200003d92919062000462565b503480156200004b57600080fd5b5060405162004240380380620042408339818101604052810190620000719190620005ca565b6040518060400160405280600581526020017f50657474790000000000000000000000000000000000000000000000000000008152506040518060400160405280600381526020017f50455400000000000000000000000000000000000000000000000000000000008152508160009080519060200190620000f592919062000503565b5080600190805190602001906200010e92919062000503565b50505062000131620001256200037060201b60201c565b6200037860201b60201c565b8073ffffffffffffffffffffffffffffffffffffffff1660808173ffffffffffffffffffffffffffffffffffffffff1660601b815250506200017f60086200043e60201b6200162b1760201c565b604051806040016040528068056bc75e2d6310000081526020016040518060600160405280603c60ff168152602001602860ff168152602001600060ff16815250815250600b6000620001de60086200045460201b620016411760201c565b8152602001908152602001600020600082015181600001556020820151816001019060036200020f92919062000462565b509050506200022a60086200043e60201b6200162b1760201c565b6040518060400160405280680ad78ebc5ac620000081526020016040518060600160405280601e60ff168152602001603260ff168152602001601460ff16815250815250600b60006200028960086200045460201b620016411760201c565b815260200190815260200160002060008201518160000155602082015181600101906003620002ba92919062000462565b50905050620002d560086200043e60201b6200162b1760201c565b6040518060400160405280681043561a882930000081526020016040518060600160405280600a60ff168152602001602860ff168152602001603260ff16815250815250600b60006200033460086200045460201b620016411760201c565b8152602001908152602001600020600082015181600001556020820151816001019060036200036592919062000462565b5090505050620006a9565b600033905090565b6000600660009054906101000a900473ffffffffffffffffffffffffffffffffffffffff16905081600660006101000a81548173ffffffffffffffffffffffffffffffffffffffff021916908373ffffffffffffffffffffffffffffffffffffffff1602179055508173ffffffffffffffffffffffffffffffffffffffff168173ffffffffffffffffffffffffffffffffffffffff167f8be0079c531659141344cd1fd0a4f28419497f9722a3daafe3b4186f6b6457e060405160405180910390a35050565b6001816000016000828254019250508190555050565b600081600001549050919050565b826003601f01602090048101928215620004f05791602002820160005b83821115620004bf57835183826101000a81548160ff021916908360ff16021790555092602001926001016020816000010492830192600103026200047f565b8015620004ee5782816101000a81549060ff0219169055600101602081600001049283019260010302620004bf565b505b509050620004ff919062000594565b5090565b82805462000511906200062a565b90600052602060002090601f01602090048101928262000535576000855562000581565b82601f106200055057805160ff191683800117855562000581565b8280016001018555821562000581579182015b828111156200058057825182559160200191906001019062000563565b5b50905062000590919062000594565b5090565b5b80821115620005af57600081600090555060010162000595565b5090565b600081519050620005c4816200068f565b92915050565b600060208284031215620005dd57600080fd5b6000620005ed84828501620005b3565b91505092915050565b600062000603826200060a565b9050919050565b600073ffffffffffffffffffffffffffffffffffffffff82169050919050565b600060028204905060018216806200064357607f821691505b602082108114156200065a576200065962000660565b5b50919050565b7f4e487b7100000000000000000000000000000000000000000000000000000000600052602260045260246000fd5b6200069a81620005f6565b8114620006a657600080fd5b50565b60805160601c613b71620006cf600039600081816110da01526116090152613b716000f3fe608060405234801561001057600080fd5b506004361061014d5760003560e01c80638da5cb5b116100c3578063df927bbe1161007c578063df927bbe146103ae578063e0489e34146103de578063e985e9c51461040f578063f2fde38b1461043f578063f9c9949b1461045b578063fbec6f211461048b5761014d565b80638da5cb5b146102da57806390a10d9e146102f857806395d89b4114610328578063a22cb46514610346578063b88d4fde14610362578063c87b56dd1461037e5761014d565b806323b872dd1161011557806323b872dd1461021c5780633f10a6011461023857806342842e0e146102545780636352211e1461027057806370a08231146102a0578063715018a6146102d05761014d565b806301ffc9a71461015257806306fdde0314610182578063081812fc146101a0578063095ea7b3146101d057806318ff30a9146101ec575b600080fd5b61016c60048036038101906101679190612704565b6104a9565b6040516101799190612d14565b60405180910390f35b61018a61058b565b6040516101979190612d4a565b60405180910390f35b6101ba60048036038101906101b59190612756565b61061d565b6040516101c79190612c76565b60405180910390f35b6101ea60048036038101906101e5919061269f565b6106a2565b005b61020660048036038101906102019190612756565b6107ba565b6040516102139190613047565b60405180910390f35b61023660048036038101906102319190612599565b610998565b005b610252600480360381019061024d919061277f565b6109f8565b005b61026e60048036038101906102699190612599565b610de4565b005b61028a60048036038101906102859190612756565b610e04565b6040516102979190612c76565b60405180910390f35b6102ba60048036038101906102b59190612534565b610eb6565b6040516102c7919061302c565b60405180910390f35b6102d8610f6e565b005b6102e2610ff6565b6040516102ef9190612c76565b60405180910390f35b610312600480360381019061030d91906127bb565b611020565b60405161031f919061302c565b60405180910390f35b610330611244565b60405161033d9190612d4a565b60405180910390f35b610360600480360381019061035b9190612663565b6112d6565b005b61037c600480360381019061037791906125e8565b6112ec565b005b61039860048036038101906103939190612756565b61134e565b6040516103a59190612d4a565b60405180910390f35b6103c860048036038101906103c39190612756565b6113f5565b6040516103d59190613047565b60405180910390f35b6103f860048036038101906103f39190612756565b61141f565b604051610406929190613062565b60405180910390f35b6104296004803603810190610424919061255d565b61145d565b6040516104369190612d14565b60405180910390f35b61045960048036038101906104549190612534565b6114f1565b005b61047560048036038101906104709190612756565b6115e9565b604051610482919061302c565b60405180910390f35b610493611607565b6040516104a09190612d2f565b60405180910390f35b60007f80ac58cd000000000000000000000000000000000000000000000000000000007bffffffffffffffffffffffffffffffffffffffffffffffffffffffff1916827bffffffffffffffffffffffffffffffffffffffffffffffffffffffff1916148061057457507f5b5e139f000000000000000000000000000000000000000000000000000000007bffffffffffffffffffffffffffffffffffffffffffffffffffffffff1916827bffffffffffffffffffffffffffffffffffffffffffffffffffffffff1916145b8061058457506105838261164f565b5b9050919050565b60606000805461059a906132fd565b80601f01602080910402602001604051908101604052809291908181526020018280546105c6906132fd565b80156106135780601f106105e857610100808354040283529160200191610613565b820191906000526020600020905b8154815290600101906020018083116105f657829003601f168201915b5050505050905090565b6000610628826116b9565b610667576040517f08c379a000000000000000000000000000000000000000000000000000000000815260040161065e90612f4c565b60405180910390fd5b6004600083815260200190815260200160002060009054906101000a900473ffffffffffffffffffffffffffffffffffffffff169050919050565b60006106ad82610e04565b90508073ffffffffffffffffffffffffffffffffffffffff168373ffffffffffffffffffffffffffffffffffffffff16141561071e576040517f08c379a000000000000000000000000000000000000000000000000000000000815260040161071590612fcc565b60405180910390fd5b8073ffffffffffffffffffffffffffffffffffffffff1661073d611725565b73ffffffffffffffffffffffffffffffffffffffff16148061076c575061076b81610766611725565b61145d565b5b6107ab576040517f08c379a00000000000000000000000000000000000000000000000000000000081526004016107a290612eac565b60405180910390fd5b6107b5838361172d565b505050565b60008060644244336040516020016107d493929190612c39565b6040516020818303038152906040528051906020012060001c6107f791906133d7565b90506000600b60008581526020019081526020016000206040518060400160405290816000820154815260200160018201600380602002604051908101604052809291908260038015610885576020028201916000905b82829054906101000a900460ff1660ff168152602001906001019060208260000104928301926001038202915080841161084e5790505b505050505081525050905080602001516000600381106108ce577f4e487b7100000000000000000000000000000000000000000000000000000000600052603260045260246000fd5b602002015160ff168210156108e857600192505050610993565b8060200151600160038110610926577f4e487b7100000000000000000000000000000000000000000000000000000000600052603260045260246000fd5b60200201518160200151600060038110610969577f4e487b7100000000000000000000000000000000000000000000000000000000600052603260045260246000fd5b6020020151610978919061317a565b60ff16821061098c57600392505050610993565b6002925050505b919050565b6109a96109a3611725565b826117e6565b6109e8576040517f08c379a00000000000000000000000000000000000000000000000000000000081526004016109df90612fec565b60405180910390fd5b6109f38383836118c4565b505050565b610a00611725565b73ffffffffffffffffffffffffffffffffffffffff16610a1f83610e04565b73ffffffffffffffffffffffffffffffffffffffff16148015610a7c5750610a45611725565b73ffffffffffffffffffffffffffffffffffffffff16610a6482610e04565b73ffffffffffffffffffffffffffffffffffffffff16145b610abb576040517f08c379a0000000000000000000000000000000000000000000000000000000008152600401610ab290612e2c565b60405180910390fd5b3073ffffffffffffffffffffffffffffffffffffffff16610adb8361061d565b73ffffffffffffffffffffffffffffffffffffffff16148015610b3157503073ffffffffffffffffffffffffffffffffffffffff16610b198261061d565b73ffffffffffffffffffffffffffffffffffffffff16145b80610b495750610b48610b42611725565b3061145d565b5b610b88576040517f08c379a0000000000000000000000000000000000000000000000000000000008152600401610b7f90612d6c565b60405180910390fd5b600c600082815260200190815260200160002060000160009054906101000a900460ff1660ff16600c600084815260200190815260200160002060000160009054906101000a900460ff1660ff1614610c16576040517f08c379a0000000000000000000000000000000000000000000000000000000008152600401610c0d90612f0c565b60405180910390fd5b6003600c600084815260200190815260200160002060000160009054906101000a900460ff1660ff1610610c7f576040517f08c379a0000000000000000000000000000000000000000000000000000000008152600401610c769061300c565b60405180910390fd5b60006001600c600085815260200190815260200160002060000160009054906101000a900460ff16610cb1919061317a565b9050610cbc83611b2b565b610cc582611b2b565b600c6000848152602001908152602001600020600080820160006101000a81549060ff02191690556000820160016101000a81549060ff02191690555050600c6000838152602001908152602001600020600080820160006101000a81549060ff02191690556000820160016101000a81549060ff02191690555050610d4b600761162b565b6000610d576007611641565b9050610d6a610d64611725565b82611c48565b60405180604001604052808360ff168152602001600060ff16815250600c600083815260200190815260200160002060008201518160000160006101000a81548160ff021916908360ff16021790555060208201518160000160016101000a81548160ff021916908360ff16021790555090505050505050565b610dff838383604051806020016040528060008152506112ec565b505050565b6000806002600084815260200190815260200160002060009054906101000a900473ffffffffffffffffffffffffffffffffffffffff169050600073ffffffffffffffffffffffffffffffffffffffff168173ffffffffffffffffffffffffffffffffffffffff161415610ead576040517f08c379a0000000000000000000000000000000000000000000000000000000008152600401610ea490612eec565b60405180910390fd5b80915050919050565b60008073ffffffffffffffffffffffffffffffffffffffff168273ffffffffffffffffffffffffffffffffffffffff161415610f27576040517f08c379a0000000000000000000000000000000000000000000000000000000008152600401610f1e90612ecc565b60405180910390fd5b600360008373ffffffffffffffffffffffffffffffffffffffff1673ffffffffffffffffffffffffffffffffffffffff168152602001908152602001600020549050919050565b610f76611725565b73ffffffffffffffffffffffffffffffffffffffff16610f94610ff6565b73ffffffffffffffffffffffffffffffffffffffff1614610fea576040517f08c379a0000000000000000000000000000000000000000000000000000000008152600401610fe190612f8c565b60405180910390fd5b610ff46000611e22565b565b6000600660009054906101000a900473ffffffffffffffffffffffffffffffffffffffff16905090565b600080600b60008560ff168152602001908152602001600020600001541161107d576040517f08c379a000000000000000000000000000000000000000000000000000000000815260040161107490612e0c565b60405180910390fd5b600b60008460ff1681526020019081526020016000206000015482146110d8576040517f08c379a00000000000000000000000000000000000000000000000000000000081526004016110cf90612f6c565b60405180910390fd5b7f000000000000000000000000000000000000000000000000000000000000000073ffffffffffffffffffffffffffffffffffffffff166323b872dd61111c611725565b30856040518463ffffffff1660e01b815260040161113c93929190612c91565b602060405180830381600087803b15801561115657600080fd5b505af115801561116a573d6000803e3d6000fd5b505050506040513d601f19601f8201168201806040525081019061118e91906126db565b50611199600761162b565b60006111a56007611641565b905060006111b58560ff166107ba565b90506111c86111c2611725565b83611c48565b60405180604001604052808260ff168152602001600060ff16815250600c600084815260200190815260200160002060008201518160000160006101000a81548160ff021916908360ff16021790555060208201518160000160016101000a81548160ff021916908360ff160217905550905050505092915050565b606060018054611253906132fd565b80601f016020809104026020016040519081016040528092919081815260200182805461127f906132fd565b80156112cc5780601f106112a1576101008083540402835291602001916112cc565b820191906000526020600020905b8154815290600101906020018083116112af57829003601f168201915b5050505050905090565b6112e86112e1611725565b8383611ee8565b5050565b6112fd6112f7611725565b836117e6565b61133c576040517f08c379a000000000000000000000000000000000000000000000000000000000815260040161133390612fec565b60405180910390fd5b61134884848484612055565b50505050565b6060611359826116b9565b611398576040517f08c379a000000000000000000000000000000000000000000000000000000000815260040161138f90612fac565b60405180910390fd5b60006113a26120b1565b905060008151116113c257604051806020016040528060008152506113ed565b806113cc846120c8565b6040516020016113dd929190612c15565b6040516020818303038152906040525b915050919050565b600a816003811061140557600080fd5b60209182820401919006915054906101000a900460ff1681565b600c6020528060005260406000206000915090508060000160009054906101000a900460ff16908060000160019054906101000a900460ff16905082565b6000600560008473ffffffffffffffffffffffffffffffffffffffff1673ffffffffffffffffffffffffffffffffffffffff16815260200190815260200160002060008373ffffffffffffffffffffffffffffffffffffffff1673ffffffffffffffffffffffffffffffffffffffff16815260200190815260200160002060009054906101000a900460ff16905092915050565b6114f9611725565b73ffffffffffffffffffffffffffffffffffffffff16611517610ff6565b73ffffffffffffffffffffffffffffffffffffffff161461156d576040517f08c379a000000000000000000000000000000000000000000000000000000000815260040161156490612f8c565b60405180910390fd5b600073ffffffffffffffffffffffffffffffffffffffff168173ffffffffffffffffffffffffffffffffffffffff1614156115dd576040517f08c379a00000000000000000000000000000000000000000000000000000000081526004016115d490612dac565b60405180910390fd5b6115e681611e22565b50565b600b6020528060005260406000206000915090508060000154905081565b7f000000000000000000000000000000000000000000000000000000000000000081565b6001816000016000828254019250508190555050565b600081600001549050919050565b60007f01ffc9a7000000000000000000000000000000000000000000000000000000007bffffffffffffffffffffffffffffffffffffffffffffffffffffffff1916827bffffffffffffffffffffffffffffffffffffffffffffffffffffffff1916149050919050565b60008073ffffffffffffffffffffffffffffffffffffffff166002600084815260200190815260200160002060009054906101000a900473ffffffffffffffffffffffffffffffffffffffff1673ffffffffffffffffffffffffffffffffffffffff1614159050919050565b600033905090565b816004600083815260200190815260200160002060006101000a81548173ffffffffffffffffffffffffffffffffffffffff021916908373ffffffffffffffffffffffffffffffffffffffff160217905550808273ffffffffffffffffffffffffffffffffffffffff166117a083610e04565b73ffffffffffffffffffffffffffffffffffffffff167f8c5be1e5ebec7d5bd14f71427d1e84f3dd0314c0f7b2291e5b200ac8c7c3b92560405160405180910390a45050565b60006117f1826116b9565b611830576040517f08c379a000000000000000000000000000000000000000000000000000000000815260040161182790612e8c565b60405180910390fd5b600061183b83610e04565b90508073ffffffffffffffffffffffffffffffffffffffff168473ffffffffffffffffffffffffffffffffffffffff1614806118aa57508373ffffffffffffffffffffffffffffffffffffffff166118928461061d565b73ffffffffffffffffffffffffffffffffffffffff16145b806118bb57506118ba818561145d565b5b91505092915050565b8273ffffffffffffffffffffffffffffffffffffffff166118e482610e04565b73ffffffffffffffffffffffffffffffffffffffff161461193a576040517f08c379a000000000000000000000000000000000000000000000000000000000815260040161193190612dcc565b60405180910390fd5b600073ffffffffffffffffffffffffffffffffffffffff168273ffffffffffffffffffffffffffffffffffffffff1614156119aa576040517f08c379a00000000000000000000000000000000000000000000000000000000081526004016119a190612e4c565b60405180910390fd5b6119b5838383612275565b6119c060008261172d565b6001600360008573ffffffffffffffffffffffffffffffffffffffff1673ffffffffffffffffffffffffffffffffffffffff1681526020019081526020016000206000828254611a1091906131e2565b925050819055506001600360008473ffffffffffffffffffffffffffffffffffffffff1673ffffffffffffffffffffffffffffffffffffffff1681526020019081526020016000206000828254611a679190613124565b92505081905550816002600083815260200190815260200160002060006101000a81548173ffffffffffffffffffffffffffffffffffffffff021916908373ffffffffffffffffffffffffffffffffffffffff160217905550808273ffffffffffffffffffffffffffffffffffffffff168473ffffffffffffffffffffffffffffffffffffffff167fddf252ad1be2c89b69c2b068fc378daa952ba7f163c4a11628f55a4df523b3ef60405160405180910390a4611b2683838361227a565b505050565b6000611b3682610e04565b9050611b4481600084612275565b611b4f60008361172d565b6001600360008373ffffffffffffffffffffffffffffffffffffffff1673ffffffffffffffffffffffffffffffffffffffff1681526020019081526020016000206000828254611b9f91906131e2565b925050819055506002600083815260200190815260200160002060006101000a81549073ffffffffffffffffffffffffffffffffffffffff021916905581600073ffffffffffffffffffffffffffffffffffffffff168273ffffffffffffffffffffffffffffffffffffffff167fddf252ad1be2c89b69c2b068fc378daa952ba7f163c4a11628f55a4df523b3ef60405160405180910390a4611c448160008461227a565b5050565b600073ffffffffffffffffffffffffffffffffffffffff168273ffffffffffffffffffffffffffffffffffffffff161415611cb8576040517f08c379a0000000000000000000000000000000000000000000000000000000008152600401611caf90612f2c565b60405180910390fd5b611cc1816116b9565b15611d01576040517f08c379a0000000000000000000000000000000000000000000000000000000008152600401611cf890612dec565b60405180910390fd5b611d0d60008383612275565b6001600360008473ffffffffffffffffffffffffffffffffffffffff1673ffffffffffffffffffffffffffffffffffffffff1681526020019081526020016000206000828254611d5d9190613124565b92505081905550816002600083815260200190815260200160002060006101000a81548173ffffffffffffffffffffffffffffffffffffffff021916908373ffffffffffffffffffffffffffffffffffffffff160217905550808273ffffffffffffffffffffffffffffffffffffffff16600073ffffffffffffffffffffffffffffffffffffffff167fddf252ad1be2c89b69c2b068fc378daa952ba7f163c4a11628f55a4df523b3ef60405160405180910390a4611e1e6000838361227a565b5050565b6000600660009054906101000a900473ffffffffffffffffffffffffffffffffffffffff16905081600660006101000a81548173ffffffffffffffffffffffffffffffffffffffff021916908373ffffffffffffffffffffffffffffffffffffffff1602179055508173ffffffffffffffffffffffffffffffffffffffff168173ffffffffffffffffffffffffffffffffffffffff167f8be0079c531659141344cd1fd0a4f28419497f9722a3daafe3b4186f6b6457e060405160405180910390a35050565b8173ffffffffffffffffffffffffffffffffffffffff168373ffffffffffffffffffffffffffffffffffffffff161415611f57576040517f08c379a0000000000000000000000000000000000000000000000000000000008152600401611f4e90612e6c565b60405180910390fd5b80600560008573ffffffffffffffffffffffffffffffffffffffff1673ffffffffffffffffffffffffffffffffffffffff16815260200190815260200160002060008473ffffffffffffffffffffffffffffffffffffffff1673ffffffffffffffffffffffffffffffffffffffff16815260200190815260200160002060006101000a81548160ff0219169083151502179055508173ffffffffffffffffffffffffffffffffffffffff168373ffffffffffffffffffffffffffffffffffffffff167f17307eab39ab6107e8899845ad3d59bd9653f200f220920489ca2b5937696c31836040516120489190612d14565b60405180910390a3505050565b6120608484846118c4565b61206c8484848461227f565b6120ab576040517f08c379a00000000000000000000000000000000000000000000000000000000081526004016120a290612d8c565b60405180910390fd5b50505050565b606060405180602001604052806000815250905090565b60606000821415612110576040518060400160405280600181526020017f30000000000000000000000000000000000000000000000000000000000000008152509050612270565b600082905060005b6000821461214257808061212b90613360565b915050600a8261213b91906131b1565b9150612118565b60008167ffffffffffffffff811115612184577f4e487b7100000000000000000000000000000000000000000000000000000000600052604160045260246000fd5b6040519080825280601f01601f1916602001820160405280156121b65781602001600182028036833780820191505090505b5090505b60008514612269576001826121cf91906131e2565b9150600a856121de91906133d7565b60306121ea9190613124565b60f81b818381518110612226577f4e487b7100000000000000000000000000000000000000000000000000000000600052603260045260246000fd5b60200101907effffffffffffffffffffffffffffffffffffffffffffffffffffffffffffff1916908160001a905350600a8561226291906131b1565b94506121ba565b8093505050505b919050565b505050565b505050565b60006122a08473ffffffffffffffffffffffffffffffffffffffff16612416565b15612409578373ffffffffffffffffffffffffffffffffffffffff1663150b7a026122c9611725565b8786866040518563ffffffff1660e01b81526004016122eb9493929190612cc8565b602060405180830381600087803b15801561230557600080fd5b505af192505050801561233657506040513d601f19601f82011682018060405250810190612333919061272d565b60015b6123b9573d8060008114612366576040519150601f19603f3d011682016040523d82523d6000602084013e61236b565b606091505b506000815114156123b1576040517f08c379a00000000000000000000000000000000000000000000000000000000081526004016123a890612d8c565b60405180910390fd5b805181602001fd5b63150b7a0260e01b7bffffffffffffffffffffffffffffffffffffffffffffffffffffffff1916817bffffffffffffffffffffffffffffffffffffffffffffffffffffffff19161491505061240e565b600190505b949350505050565b6000808273ffffffffffffffffffffffffffffffffffffffff163b119050919050565b600061244c612447846130b0565b61308b565b90508281526020810184848401111561246457600080fd5b61246f8482856132bb565b509392505050565b60008135905061248681613ac8565b92915050565b60008135905061249b81613adf565b92915050565b6000815190506124b081613adf565b92915050565b6000813590506124c581613af6565b92915050565b6000815190506124da81613af6565b92915050565b600082601f8301126124f157600080fd5b8135612501848260208601612439565b91505092915050565b60008135905061251981613b0d565b92915050565b60008135905061252e81613b24565b92915050565b60006020828403121561254657600080fd5b600061255484828501612477565b91505092915050565b6000806040838503121561257057600080fd5b600061257e85828601612477565b925050602061258f85828601612477565b9150509250929050565b6000806000606084860312156125ae57600080fd5b60006125bc86828701612477565b93505060206125cd86828701612477565b92505060406125de8682870161250a565b9150509250925092565b600080600080608085870312156125fe57600080fd5b600061260c87828801612477565b945050602061261d87828801612477565b935050604061262e8782880161250a565b925050606085013567ffffffffffffffff81111561264b57600080fd5b612657878288016124e0565b91505092959194509250565b6000806040838503121561267657600080fd5b600061268485828601612477565b92505060206126958582860161248c565b9150509250929050565b600080604083850312156126b257600080fd5b60006126c085828601612477565b92505060206126d18582860161250a565b9150509250929050565b6000602082840312156126ed57600080fd5b60006126fb848285016124a1565b91505092915050565b60006020828403121561271657600080fd5b6000612724848285016124b6565b91505092915050565b60006020828403121561273f57600080fd5b600061274d848285016124cb565b91505092915050565b60006020828403121561276857600080fd5b60006127768482850161250a565b91505092915050565b6000806040838503121561279257600080fd5b60006127a08582860161250a565b92505060206127b18582860161250a565b9150509250929050565b600080604083850312156127ce57600080fd5b60006127dc8582860161251f565b92505060206127ed8582860161250a565b9150509250929050565b61280081613216565b82525050565b61281761281282613216565b6133a9565b82525050565b61282681613228565b82525050565b6000612837826130e1565b61284181856130f7565b93506128518185602086016132ca565b61285a816134c4565b840191505092915050565b61286e81613297565b82525050565b600061287f826130ec565b6128898185613108565b93506128998185602086016132ca565b6128a2816134c4565b840191505092915050565b60006128b8826130ec565b6128c28185613119565b93506128d28185602086016132ca565b80840191505092915050565b60006128eb604083613108565b91506128f6826134e2565b604082019050919050565b600061290e603283613108565b915061291982613531565b604082019050919050565b6000612931602683613108565b915061293c82613580565b604082019050919050565b6000612954602583613108565b915061295f826135cf565b604082019050919050565b6000612977601c83613108565b91506129828261361e565b602082019050919050565b600061299a601983613108565b91506129a582613647565b602082019050919050565b60006129bd602883613108565b91506129c882613670565b604082019050919050565b60006129e0602483613108565b91506129eb826136bf565b604082019050919050565b6000612a03601983613108565b9150612a0e8261370e565b602082019050919050565b6000612a26602c83613108565b9150612a3182613737565b604082019050919050565b6000612a49603883613108565b9150612a5482613786565b604082019050919050565b6000612a6c602a83613108565b9150612a77826137d5565b604082019050919050565b6000612a8f602983613108565b9150612a9a82613824565b604082019050919050565b6000612ab2603083613108565b9150612abd82613873565b604082019050919050565b6000612ad5602083613108565b9150612ae0826138c2565b602082019050919050565b6000612af8602c83613108565b9150612b03826138eb565b604082019050919050565b6000612b1b601b83613108565b9150612b268261393a565b602082019050919050565b6000612b3e602083613108565b9150612b4982613963565b602082019050919050565b6000612b61602f83613108565b9150612b6c8261398c565b604082019050919050565b6000612b84602183613108565b9150612b8f826139db565b604082019050919050565b6000612ba7603183613108565b9150612bb282613a2a565b604082019050919050565b6000612bca602883613108565b9150612bd582613a79565b604082019050919050565b612be981613280565b82525050565b612c00612bfb82613280565b6133cd565b82525050565b612c0f8161328a565b82525050565b6000612c2182856128ad565b9150612c2d82846128ad565b91508190509392505050565b6000612c458286612bef565b602082019150612c558285612bef565b602082019150612c658284612806565b601482019150819050949350505050565b6000602082019050612c8b60008301846127f7565b92915050565b6000606082019050612ca660008301866127f7565b612cb360208301856127f7565b612cc06040830184612be0565b949350505050565b6000608082019050612cdd60008301876127f7565b612cea60208301866127f7565b612cf76040830185612be0565b8181036060830152612d09818461282c565b905095945050505050565b6000602082019050612d29600083018461281d565b92915050565b6000602082019050612d446000830184612865565b92915050565b60006020820190508181036000830152612d648184612874565b905092915050565b60006020820190508181036000830152612d85816128de565b9050919050565b60006020820190508181036000830152612da581612901565b9050919050565b60006020820190508181036000830152612dc581612924565b9050919050565b60006020820190508181036000830152612de581612947565b9050919050565b60006020820190508181036000830152612e058161296a565b9050919050565b60006020820190508181036000830152612e258161298d565b9050919050565b60006020820190508181036000830152612e45816129b0565b9050919050565b60006020820190508181036000830152612e65816129d3565b9050919050565b60006020820190508181036000830152612e85816129f6565b9050919050565b60006020820190508181036000830152612ea581612a19565b9050919050565b60006020820190508181036000830152612ec581612a3c565b9050919050565b60006020820190508181036000830152612ee581612a5f565b9050919050565b60006020820190508181036000830152612f0581612a82565b9050919050565b60006020820190508181036000830152612f2581612aa5565b9050919050565b60006020820190508181036000830152612f4581612ac8565b9050919050565b60006020820190508181036000830152612f6581612aeb565b9050919050565b60006020820190508181036000830152612f8581612b0e565b9050919050565b60006020820190508181036000830152612fa581612b31565b9050919050565b60006020820190508181036000830152612fc581612b54565b9050919050565b60006020820190508181036000830152612fe581612b77565b9050919050565b6000602082019050818103600083015261300581612b9a565b9050919050565b6000602082019050818103600083015261302581612bbd565b9050919050565b60006020820190506130416000830184612be0565b92915050565b600060208201905061305c6000830184612c06565b92915050565b60006040820190506130776000830185612c06565b6130846020830184612c06565b9392505050565b60006130956130a6565b90506130a1828261332f565b919050565b6000604051905090565b600067ffffffffffffffff8211156130cb576130ca613495565b5b6130d4826134c4565b9050602081019050919050565b600081519050919050565b600081519050919050565b600082825260208201905092915050565b600082825260208201905092915050565b600081905092915050565b600061312f82613280565b915061313a83613280565b9250827fffffffffffffffffffffffffffffffffffffffffffffffffffffffffffffffff0382111561316f5761316e613408565b5b828201905092915050565b60006131858261328a565b91506131908361328a565b92508260ff038211156131a6576131a5613408565b5b828201905092915050565b60006131bc82613280565b91506131c783613280565b9250826131d7576131d6613437565b5b828204905092915050565b60006131ed82613280565b91506131f883613280565b92508282101561320b5761320a613408565b5b828203905092915050565b600061322182613260565b9050919050565b60008115159050919050565b60007fffffffff0000000000000000000000000000000000000000000000000000000082169050919050565b600073ffffffffffffffffffffffffffffffffffffffff82169050919050565b6000819050919050565b600060ff82169050919050565b60006132a2826132a9565b9050919050565b60006132b482613260565b9050919050565b82818337600083830152505050565b60005b838110156132e85780820151818401526020810190506132cd565b838111156132f7576000848401525b50505050565b6000600282049050600182168061331557607f821691505b6020821081141561332957613328613466565b5b50919050565b613338826134c4565b810181811067ffffffffffffffff8211171561335757613356613495565b5b80604052505050565b600061336b82613280565b91507fffffffffffffffffffffffffffffffffffffffffffffffffffffffffffffffff82141561339e5761339d613408565b5b600182019050919050565b60006133b4826133bb565b9050919050565b60006133c6826134d5565b9050919050565b6000819050919050565b60006133e282613280565b91506133ed83613280565b9250826133fd576133fc613437565b5b828206905092915050565b7f4e487b7100000000000000000000000000000000000000000000000000000000600052601160045260246000fd5b7f4e487b7100000000000000000000000000000000000000000000000000000000600052601260045260246000fd5b7f4e487b7100000000000000000000000000000000000000000000000000000000600052602260045260246000fd5b7f4e487b7100000000000000000000000000000000000000000000000000000000600052604160045260246000fd5b6000601f19601f8301169050919050565b60008160601b9050919050565b7f506574747947616368613a205468697320636f6e7472616374206973206e6f7460008201527f20617574686f72697a656420746f206d616e616765207468697320746f6b656e602082015250565b7f4552433732313a207472616e7366657220746f206e6f6e20455243373231526560008201527f63656976657220696d706c656d656e7465720000000000000000000000000000602082015250565b7f4f776e61626c653a206e6577206f776e657220697320746865207a65726f206160008201527f6464726573730000000000000000000000000000000000000000000000000000602082015250565b7f4552433732313a207472616e736665722066726f6d20696e636f72726563742060008201527f6f776e6572000000000000000000000000000000000000000000000000000000602082015250565b7f4552433732313a20746f6b656e20616c7265616479206d696e74656400000000600082015250565b7f506574747947616368613a20696e76616c696420676163686100000000000000600082015250565b7f506574747947616368613a2073656e646572206973206e6f74206f776e65722060008201527f6f6620746f6b656e000000000000000000000000000000000000000000000000602082015250565b7f4552433732313a207472616e7366657220746f20746865207a65726f2061646460008201527f7265737300000000000000000000000000000000000000000000000000000000602082015250565b7f4552433732313a20617070726f766520746f2063616c6c657200000000000000600082015250565b7f4552433732313a206f70657261746f7220717565727920666f72206e6f6e657860008201527f697374656e7420746f6b656e0000000000000000000000000000000000000000602082015250565b7f4552433732313a20617070726f76652063616c6c6572206973206e6f74206f7760008201527f6e6572206e6f7220617070726f76656420666f7220616c6c0000000000000000602082015250565b7f4552433732313a2062616c616e636520717565727920666f7220746865207a6560008201527f726f206164647265737300000000000000000000000000000000000000000000602082015250565b7f4552433732313a206f776e657220717565727920666f72206e6f6e657869737460008201527f656e7420746f6b656e0000000000000000000000000000000000000000000000602082015250565b7f506574747947616368613a2074776f207065747469657320617265206e6f742060008201527f696e207468652073616d652072616e6b00000000000000000000000000000000602082015250565b7f4552433732313a206d696e7420746f20746865207a65726f2061646472657373600082015250565b7f4552433732313a20617070726f76656420717565727920666f72206e6f6e657860008201527f697374656e7420746f6b656e0000000000000000000000000000000000000000602082015250565b7f506574747947616368613a207072696365206e6f74206d617463680000000000600082015250565b7f4f776e61626c653a2063616c6c6572206973206e6f7420746865206f776e6572600082015250565b7f4552433732314d657461646174613a2055524920717565727920666f72206e6f60008201527f6e6578697374656e7420746f6b656e0000000000000000000000000000000000602082015250565b7f4552433732313a20617070726f76616c20746f2063757272656e74206f776e6560008201527f7200000000000000000000000000000000000000000000000000000000000000602082015250565b7f4552433732313a207472616e736665722063616c6c6572206973206e6f74206f60008201527f776e6572206e6f7220617070726f766564000000000000000000000000000000602082015250565b7f506574747947616368613a20706574747920697320696e20746865206869676860008201527f6573742072616e6b000000000000000000000000000000000000000000000000602082015250565b613ad181613216565b8114613adc57600080fd5b50565b613ae881613228565b8114613af357600080fd5b50565b613aff81613234565b8114613b0a57600080fd5b50565b613b1681613280565b8114613b2157600080fd5b50565b613b2d8161328a565b8114613b3857600080fd5b5056fea264697066735822122010c8db1bdae098786392cd6b1006d14c2bc03ff98acdae77118273a3548b7ed264736f6c63430008040033",
  "linkReferences": {},
  "deployedLinkReferences": {}
}